:100000000C946D000C9495000C9495000C94950044
:100010000C9495000C9495000C9495000C9495000C
:100020000C9495000C9495000C9495000C949500FC
:100030000C9495000C9495000C9451090C94950027
:100040000C94F5070C9495000C94C3070C949D0731
:100050000C9495000C9486090C9495000C949500D2
:100060000C943B080C94950000000000240027002D
:100070002A002D0000000000250028002B002E0083
:10008000000000002300260029002C0004040404C2
:100090000404040402020202020203030303030332
:1000A000050505050505050102040810204080012D
:1000B00002040810200102040810200208010410A4
:1000C0002040000000085002010000030407000067
:1000D0000000000000000000C00911241FBECFEF87
:1000E000D8E0DEBFCDBF12E0A0E0B1E0ECEBFFE175
:1000F00002C005900D92A038B107D9F724E0A0E81E
:10010000B2E001C01D92A13EB207E1F710E0CDE6DA
:10011000D0E004C02197FE010E94D60FCC36D10753
:10012000C9F70E94290B0C94DC0F0C94000080E0AE
:1001300008951F93CF93DF9300D000D01F92CDB7C7
:10014000DEB71C8221E02B839A838983E0919A0495
:10015000F0919B0411891D82A0919A04B0919B0497
:10016000E0919E04F0919F049E012F5F3F4F5096B7
:100170004C916FE08AE994E009958D818F5F8D83C2
:10018000811750F30F900F900F900F900F90DF9109
:10019000CF911F9108959B01DC011896ED91FC9180
:1001A00041E067E109940895AF92BF92CF92DF9248
:1001B000EF92FF920F931F93CF93DF936C017B011C
:1001C0008B01040F151FEB015E01AE18BF08C017AD
:1001D000D10759F06991D601ED91FC910190F08120
:1001E000E02DC6010995892B79F7C501DF91CF91E3
:1001F0001F910F91FF90EF90DF90CF90BF90AF9045
:100200000895FC01538D448D252F30E0842F90E01C
:10021000821B930B541710F0CF9608950197089501
:10022000FC01918D828D981761F0A28DAE0FBF2FCA
:10023000B11D5D968C91928D9F5F9F73928F90E020
:1002400008958FEF9FEF0895FC01918D828D98178F
:1002500031F0828DE80FF11D858D90E008958FEFCC
:100260009FEF0895FC01918D228D892F90E0805C95
:100270009F4F821B91098F739927089587EF93E011
:100280000E94320121E0892B09F420E0822F089599
:1002900080E090E0892B29F00E943E0181110C94AE
:1002A00000000895FC01A48DA80FB92FB11DA35A19
:1002B000BF4F2C91848D90E001968F739927848F86
:1002C000A689B7892C93A089B1898C9180648C937D
:1002D000938D848D981306C00288F389E02D808168
:1002E0008F7D80830895EF92FF920F931F93CF939A
:1002F000DF93EC0181E0888F9B8D8C8D981316C065
:10030000E889F989808185FF11C0EE89FF896083C2
:10031000E889F98980818064808381E090E0DF91C1
:10032000CF911F910F91FF90EF900895F62E0B8DB6
:1003300010E00F5F1F4F0F731127E02E8C8D8E1171
:100340000CC00FB607FCFACFE889F989808185FFD8
:10035000F5CFCE010E945201F1CFEB8DEC0FFD2FB6
:10036000F11DE35AFF4FF0820B8FEA89FB898081F0
:100370008062D2CFCF93DF93EC01888D8823B9F0D0
:10038000AA89BB89E889F9898C9185FD03C08081A0
:1003900086FD0DC00FB607FCF7CF8C9185FFF2CF1D
:1003A000808185FFEDCFCE010E945201E9CFDF9120
:1003B000CF91089581508B3088F5E82FF0E0ED5112
:1003C000FE4F0C94D60FF801FC01EE01F4010E0271
:1003D0000E02FF01050209020F0213028091800044
:1003E0008F77809380000895809180008F7DF9CF72
:1003F00084B58F7784BD089584B58F7DFBCF8091C0
:10040000B0008F778093B00008958091B0008F7D09
:10041000F9CF809190008F7780939000089580911C
:1004200090008F7DF9CF80919000877FF5CFCF939B
:10043000DF93282F30E0F901EE53FF4F8491F9014B
:10044000E955FF4FD491F901E457FF4FC491CC23F4
:10045000A1F081110E94DA01EC2FF0E0EE0FFF1FF6
:10046000E058FF4FA591B491EC91ED2381E090E02D
:1004700009F480E0DF91CF91089580E090E0FACF19
:100480001F93CF93DF93282F30E0F901EE53FF4FF6
:100490008491F901E955FF4FD491F901E457FF4FD9
:1004A000C491CC23A9F0162F81110E94DA01EC2F00
:1004B000F0E0EE0FFF1FEC58FF4FA591B4918FB7FE
:1004C000F894EC91111108C0D095DE23DC938FBF16
:1004D000DF91CF911F910895DE2BF8CFCF93DF935B
:1004E000282F30E0F901E955FF4F449124573F4F41
:1004F000F9012491843019F583E08093A000222330
:10050000D9F0822F90E0880F991FFC01E859FF4F26
:10051000A591B491FC01EC58FF4FC591D491623084
:1005200019F59FB7F8942C91842F809582238C9392
:10053000E8814E2B48839FBFDF91CF9108959AEEBB
:10054000980F923020F48FEF84BF84BFD8CF8A31C8
:10055000B1F68091F00082608EBB80E88093F0005D
:100560008EB38093F000CBCF8FB7F894EC914E2BE5
:100570004C938FBFE1CF3FB7F894809113039091D4
:100580001403A0911503B091160326B5A89B05C0CE
:100590002F3F19F00196A11DB11D3FBFBA2FA92F02
:1005A000982F8827BC01CD01620F711D811D911DFF
:1005B000660F771F881F991F08958F929F92AF92A1
:1005C000BF92CF92DF92EF92FF926B017C010E946B
:1005D000BB024B015C01C114D104E104F104B9F088
:1005E0000E94BB02681979098A099B09683E734019
:1005F0008105910580F321E0C21AD108E108F108D4
:1006000088EE880E83E0981EA11CB11CE4CFFF90F9
:10061000EF90DF90CF90BF90AF909F908F90089514
:1006200085ED8093BC008091BC0084FDFCCF1092CE
:10063000EC020895613298F42091EC02243089F4A0
:100640006093C802282FA8EAB2E0FC018E2F821B1B
:10065000861710F080E0089581918D93F7CF81E0A7
:10066000089582E008958FEF9FEF08958FEF9FEF39
:1006700008958091A70290E0919581959109089540
:10068000CF93DF93CB01EA01642F0E941A03CE01BE
:10069000DF91CF910895CF93DF931F92CDB7DEB74F
:1006A000698361E0CE0101960E941A0381E090E027
:1006B0000F90DF91CF910895DC011A96ED91FC9196
:1006C00030E020E00994DC011696ED91FC9130E0D9
:1006D00020E040E069E10994DC011696ED91FC917F
:1006E00030E020E040E068E109949A01DC011696D0
:1006F000ED91FC91462F67E10994EF92FF920F93E1
:100700001F93CF93DF931F92CDB7DEB77C018B0190
:10071000D8016C91673129F150F46531A0F40F9044
:10072000DF91CF911F910F91FF90EF9008956A3163
:1007300018F16E3FA1F7F8014181498369E2C701D1
:100740000E945C030BC0F80141814983D7011696D2
:10075000ED91FC9130E020E0C70109950E5F1F4F3D
:10076000D7CFF80181818983AE014F5F5F4F61E090
:10077000C7010E947503F2CF0F5F1F4FD701169676
:10078000ED91FC9130E020E040E0C7010995C0CF39
:10079000462FDC011696ED91FC9130E020E066E1F9
:1007A0000994462FDC011696ED91FC9130E020E093
:1007B00065E10994EF92FF920F931F93CF93DF931C
:1007C000EC01042F7901693069F483E392E09983A5
:1007D00088831C8A81E0DF91CF911F910F91FF9058
:1007E000EF9008956D3009F475C038F46A3091F1D6
:1007F0006B3009F468C080E0EECF6E3009F47DC044
:100800006F30C9F70E946C03F7011381110F110FAC
:10081000110F6C89160F612F62956F706061CE01A8
:100820000E94D103612F6F70CE010E94D103F701A6
:100830006481606BCE010E94D103F7014081518138
:100840006281660F660F660FCE010E94750301502C
:10085000A1F75DC0EA85FB8530E020E040E068E27A
:100860000995EE81FF8130E020E040E064E1CE01B7
:10087000099541E06BE4CE010E945C03E881F981B7
:10088000448169E2CE010E945C0340E06BE4CE014A
:100890000E945C03E881F981448169E2CE010E94F3
:1008A0005C0341E06BE4CE010E945C03E881F981C6
:1008B000458169E2CE010E945C036EEF71E0CE01DA
:1008C0000E947D0387CF69EF71E04423C1F364EF99
:1008D00071E0F5CF411109C06DEE71E00E947D031A
:1008E000E881F98182898C8B75CF66EE71E00E9478
:1008F0007D03E881F9818389F6CF0E946C0361E86A
:10090000CE010E94D103602FCE010E94C803CE0108
:100910000E9463035FCF41E06DE40C945C03DC0153
:10092000ED91FC9145856DE20C945C03CF93DF93D0
:10093000EC0141E06CE40E945C03CE01DF91CF91B9
:100940000C948F04CF93DF93EC01662379F00E941F
:100950008B04CE010E948F04CE010E94960440E0D9
:100960006CE4CE01DF91CF910C945C0340E06DE428
:100970000E945C03EECF1F93CF93DF93EC01162F01
:1009800060780E94A204612F6074CE010E94A204CC
:10099000612F6072CE010E94A204612F6071CE01AE
:1009A0000E94A204612F6870CE010E94A204612FF0
:1009B0006470CE010E94A204612F6270CE010E9479
:1009C000A204612F6170CE010E94A204CE010E9498
:1009D0008B04CE010E948F04CE010E949604CE01AA
:1009E0000E948B04CE010E948F0440E06CE4CE0193
:1009F000DF91CF911F910C945C03DC011896ED916F
:100A0000FC9130E020E040E069E10994DC011896B7
:100A1000ED91FC9130E020E040E068E10994CF9353
:100A2000DF931F92CDB7DEB76983BE016F5F7F4F43
:100A30000E94CB000F90DF91CF910895EF92FF922B
:100A40001F93CF93DF93EC01162F7A010E940605C6
:100A500060E4CE010E940F05E885F9859701412FDA
:100A600067E1CE010995CE01DF91CF911F91FF90F3
:100A7000EF900C94FD04EF92FF921F93CF93DF93BE
:100A8000EC01142F7901663181F138F4643109F4F5
:100A90004BC0653179F080E022C06831C9F150F176
:100AA0006931C9F78091A602882391F1CE010E9495
:100AB000FD042EC08091A602882319F0CE010E9469
:100AC000FD04CE010E94060560E0CE010E940F05E4
:100AD000612FCE010E940F0581E08093A602DF9175
:100AE000CF911F91FF90EF900895642F0E940F0502
:100AF00081E0F5CF8091A602882319F0CE010E94F3
:100B0000FD04A701193138F4612FCE010E941E05A2
:100B10001092A602EDCF68E1CE010E941E05185189
:100B200088E1E80EF11CEDCF8E898F3F11F488E744
:100B30008E8BE885F9859701412F64E1CE01DF9125
:100B4000CF911F91FF90EF900994CF93DF93EC0129
:100B5000A889B989FD013491319694913196849197
:100B60001396FD01A4916317A8F1961798F1631BE2
:100B7000770B8A9FE02D1124E69FC001E79F900D1F
:100B80001124280F392F311D83E0220F331F8A953E
:100B9000E1F7C9010496DA01245F3F4FE889F9893A
:100BA000E80FF91FE491ED93019682179307B1F7CF
:100BB0008D89882361F0FA019A01285F3F4F819166
:100BC000DF01119780958C932E173F07C1F7DF91B6
:100BD000CF910895FA01CA0108961192E817F90712
:100BE000E1F7E6CFEF92FF921F93CF93DF93EC01F3
:100BF000142F7901683151F130F46431D1F067314B
:100C0000A9F080E006C0693109F443C06032C9F739
:100C100081E0DF91CF911F91FF90EF900895F70150
:100C200061917F01CE010E94BB0411501111F7CFD9
:100C3000EFCF41E06CE40E945C0341E06DE4CE0143
:100C40000E945C03CE010E948F04E2CF8F8988232B
:100C500049F0CE010E948B04CE010E948F04CE0188
:100C60000E949604CE010E948B0440E06DE4CE0108
:100C70000E945C03CE010E948F0440E06CE4CE0130
:100C80000E945C0381E08F8B6E89CE010E94BB04C1
:100C9000BFCF40E06DE40E945C03CE010E948F0450
:100CA000CE010E949604CE010E948B04CE010E94C8
:100CB0008F041F8AADCF0F931F93CF93DF938C01C7
:100CC000C62F642FCC32E8F4CA3208F041C0C832D3
:100CD00071F1C93209F442C080E0C034D0F1CF7361
:100CE000F801EC0FF11D868D8F3F91F1C031E0F0DE
:100CF0000E94170221E0892B09F420E0F801218FDE
:100D000027C0CD3289F140F384EB8C0F823020F77D
:100D1000CF73C00FD12FD11D8E8D411135C061E031
:100D20000E946E0260E08E8D0E94400211C0025E41
:100D30001F4FD0E0F80181918F018F3F31F061E0CA
:100D4000D03108F062E00E946E02DF5FD63191F789
:100D500081E0DF91CF911F910F91089570E090E0B5
:100D600080E00E94DD02F4CF25E030E0433010F057
:100D700022E030E046E0429FC001439F900D1124E5
:100D800005970197F1F7E4CF62E00E946E02E0CF91
:100D90002F923F924F925F926F927F928F929F928B
:100DA000AF92BF92CF92DF92EF92FF920F931F9379
:100DB000CF93DF93CDB7DEB72D970FB6F894DEBF94
:100DC0000FBECDBFDC015496ED91FC915597D9969D
:100DD000DC90D997CF0103966A3019F5FC01849114
:100DE000D80ED996DC92D997D8961C9281E090E0E3
:100DF0002D960FB6F894DEBF0FBECDBFDF91CF9119
:100E00001F910F91FF90EF90DF90CF90BF90AF9028
:100E10009F908F907F906F905F904F903F902F901A
:100E2000089532962490D8965C90D8975D0124E07E
:100E3000A20EB11CF490FC01E490352C3F0CED0C9B
:100E400081E0850D381610F4FF24F394C62E8D0131
:100E5000612CCE0101964C01462C752C242DA40149
:100E60006C2DC5010E94A5057C86DD8691E09B87DF
:100E70009A868986D8011896ED91FC919E01275F8C
:100E80003F4F41E06FE0C50109954394739473149B
:100E900028F3D3946F0CDE14F8F2F80180AD820DC4
:100EA00080AFA4CFDC018D919C91DC01ED91FC9190
:100EB0000190F081E02D0994EAE7F0E087E080837B
:100EC00080E680937C008FE180937E00ABE7B0E00A
:100ED0008C918C938081886A8083808180648083F8
:100EE0000895CF92DF92EF92FF920F931F93CF93CB
:100EF000DF936C01EB017B01E40EF51E10E000E0D6
:100F0000CE15DF0561F06991D601ED91FC9101905C
:100F1000F081E02DC6010995080F191FF1CFC80116
:100F2000DF91CF911F910F91FF90EF90DF90CF90C5
:100F30000895089590E080E008951F920F920FB6F3
:100F40000F9211242F933F934F935F936F937F934F
:100F50008F939F93AF93BF93EF93FF9387EF93E0AC
:100F60000E945201FF91EF91BF91AF919F918F919C
:100F70007F916F915F914F913F912F910F900FBE95
:100F80000F901F9018951F920F920FB60F92112479
:100F90002F938F939F93EF93FF93E0910704F0912A
:100FA00008048081E0910D04F0910E0482FD1BC0C5
:100FB0009081809110048F5F8F73209111048217AC
:100FC00041F0E0911004F0E0E950FC4F958F8093E0
:100FD0001004FF91EF919F918F912F910F900FBE71
:100FE0000F901F9018958081F4CF1F920F920FB62B
:100FF0000F9211242F933F938F939F93AF93BF939F
:101000008091170390911803A0911903B0911A03CE
:101010003091120320E4230F2D3728F023EC230F07
:101020000196A11DB11D2093120380931703909385
:101030001803A0931903B0931A038091130390919E
:101040001403A0911503B09116030196A11DB11DC3
:101050008093130390931403A0931503B093160386
:10106000BF91AF919F918F913F912F910F900FBEA4
:101070000F901F9018951F920F920FB60F92112488
:101080002F933F934F935F936F937F938F939F9390
:10109000AF93BF93EF93FF938091B900887F803621
:1010A00009F44AC0F0F5883209F4A5C018F580317A
:1010B00009F499C0B8F4882309F4F0C0883009F421
:1010C00092C0FF91EF91BF91AF919F918F917F91CE
:1010D0006F915F914F913F912F910F900FBE0F90A5
:1010E0001F901895883109F486C0803251F780939B
:1010F000EB0214C0803409F49BC040F48033B9F390
:101100008833F9F68093EB0285ECAEC0803509F4A4
:1011100083C0883509F494C0883499F60E9410037E
:10112000D0CF883909F48AC038F5883729F050F4CF
:10113000883611F0803729F683E08093EC02109214
:10114000EA0255C0883809F479C0803919F080382E
:1011500009F0B7CF8091EA02803208F06FC0E091C9
:10116000EA0281E08E0F8093EA028091BB00F0E0FA
:10117000E653FD4F80833BC0803B39F0D0F4803A8A
:1011800009F477C0883A09F09CCF84E08093EC02A0
:101190001092C9021092C802F0E0E0E00995809137
:1011A000C80281110FC081E08093C8021092A8028A
:1011B00009C0803C09F4A8CF883C09F4A5CF883B3E
:1011C00009F07FCFE091C90281E08E0F8093C902C0
:1011D000F0E0E855FD4F80818093BB009091C902FB
:1011E0008091C80229C0809111038093BB0085ECD7
:1011F0008093BC0066CF9091100380910F039817E5
:1012000058F5E091100381E08E0F80931003F0E019
:10121000E151FD4F8081E9CFE091100381E08E0F15
:10122000809310038091BB00F0E0E151FD4F80837B
:101230009091100380910F039817C8F285E8D8CFDA
:10124000E091100381E08E0F809310038091BB002A
:10125000F0E0E151FD4F80838091EE0281115ECF7D
:1012600081E08093ED0284EA8093BC001092EC024E
:1012700028CF8091EA02803230F4E091EA02F0E077
:10128000E653FD4F10826091EA0270E08AEC92E032
:10129000F0E0E0E009951092EA0236CF1092EB02FE
:1012A0003DCF1F920F920FB60F9211242F933F93B1
:1012B0004F935F936F937F938F939F93AF93BF935E
:1012C000EF93FF938091A4029091A502019684363A
:1012D0009105A8F49093A5028093A402FF91EF9149
:1012E000BF91AF919F918F917F916F915F914F913E
:1012F0003F912F910F900FBE0F901F901895109255
:10130000A5021092A4020E945C07E8CF1F920F92E0
:101310000FB60F9211242F933F938F939F93EF93C8
:10132000FF9380917C008F7090917C009F5F9093E1
:101330007C002091780030917900E82FF0E0E55EA4
:10134000FC4F30838230A1F480911D0390E0880F20
:10135000991F9093E0048093DF04FF91EF919F9198
:101360008F913F912F910F900FBE0F901F90189566
:10137000863099F780917A008F7780937A00EDCF4D
:10138000CF931092FA031092F90388EE93E0A0E055
:10139000B0E08093FB039093FC03A093FD03B09314
:1013A000FE0386E692E09093F8038093F70385ECC2
:1013B00090E0909304048093030484EC90E0909375
:1013C00006048093050480EC90E0909308048093D9
:1013D000070481EC90E090930A048093090482EC66
:1013E00090E090930C0480930B0486EC90E0909333
:1013F0000E0480930D0410921004109211041092A8
:1014000012041092130487EF93E090939504809355
:101410009404109228031092270310922A0310922A
:10142000290310922C0310922B0310922E0310927A
:101430002D031092300310922F031092320310925A
:10144000310310923403109233031092360310923A
:101450003503109238031092370310923A0310921A
:10146000390310923C0310923B0310923E031092FA
:101470003D031092400310923F03109242031092DA
:1014800041031092440310924303109246031092BA
:101490004503109248031092470310924A0310929A
:1014A000490310924C0310924B0310924E0310927A
:1014B0004D031092500310924F0384E994E09093EF
:1014C00052038093510310925303109254031092CD
:1014D000550310925A031092590310925C03109214
:1014E0005B038FEF9FEF90935E0380935D03909378
:1014F000600380935F0383E0809361031092620333
:101500001092630310926403109265031092E60335
:10151000E6E6F3E080E8DF011D928A95E9F7109294
:10152000E9031092EA031092EB031092EC0310927D
:10153000ED031092EE031092EF031092F00310925D
:10154000F1031092F2031092F3031092F40310923D
:10155000F5031092F60382E090E09093D10480931B
:10156000D00485E090E09093D3048093D2048EEF72
:101570009FEF9093D5048093D40486E090E09093FD
:10158000D7048093D60488EC90E09093E004809395
:10159000DF041092D9041092D80486EC91E0909365
:1015A000DB048093DA04109299041092980410924C
:1015B000CE041092CF0488E792E090939704809332
:1015C000960410929B0410929A041092AF04109209
:1015D000B2041092A6041092A7041092A8041092CC
:1015E000A9048FEF8093B0048093B404E8EBF4E097
:1015F0008EEC94E0CFEFC1938E179F07E1F78AED51
:1016000093E090939F0480939E048BE395E09093E6
:10161000A1048093A00482EF95E09093A3048093AB
:10162000A2048BE596E09093A5048093A40430E097
:1016300020E040E069E08AE994E00E94DA0382E079
:101640008093C40484E08093C504C093C304CF9105
:101650000895CF93DF93CDB7DEB76B970FB6F894AD
:10166000DEBF0FBECDBF8091F20080618EBB80E8EF
:101670008093F2009EB39093F2008093610091E01A
:10168000909361008093610010926100789484B51A
:10169000826084BD84B5816084BD85B5826085BD6E
:1016A00085B5816085BD80916E00816080936E00FC
:1016B00010928100809181008260809381008091EE
:1016C000810081608093810080918000816080939F
:1016D00080008091B10084608093B1008091B0005F
:1016E00081608093B000809191008260809391002E
:1016F0008091910081608093910080919000816041
:101700008093900080917A00846080937A00809129
:101710007A00826080937A0080917A008160809361
:101720007A0080917A00806880937A001092C100DC
:1017300061E085E00E946E020BE512E062E0D801F4
:101740008D918D010E946E02B2E002361B07B1F747
:1017500061E084E00E946E0261E082E00E946E021D
:1017600060E084E00E94400260E082E00E9440026B
:101770000E945C07E0915103F09152030190F081C7
:10178000E02DA089B18982E08C93A485B5851C9257
:10179000A685B7858FE78C93108EA489B58986E0DE
:1017A0008C93A289B3898C9180618C93A289B3892F
:1017B0008C9188608C93A289B3898C9180688C937A
:1017C0000288F389E02D80818F7D808384E080937F
:1017D0005303109255031092540310925C0310921D
:1017E0005B0310925A03109259038FEF9FEF90936F
:1017F0005E0380935D039093600380935F032FB734
:10180000F8948091170390911803A0911903B09157
:101810001A032FBF8093E9039093EA03A093EB038D
:10182000B093EC031092E6031092630310926203EC
:1018300010926403109265031092E8031092E7037C
:101840008091610381708260816080936103E09187
:101850009E04F0919F0430E020E040E06AE08AE9D5
:1018600094E009958E010F5F1F4F88E0F8011192F7
:101870008A95E9F7C8010E949900E0919E04F091D1
:101880009F0430E020E040E06BE08AE994E00995B5
:10189000E0919E04F0919F0430E020E040E06BE096
:1018A0008AE994E009958FEA87BD80916E00826095
:1018B00080936E003CED832E99249A942CE0422E66
:1018C000512C2FB7F8948091170390911803A09191
:1018D0001903B0911A032FBF4091230350912403A1
:1018E00060912503709126036C017D01C41AD50A0D
:1018F000E60AF70AB701A6014139514061057105B1
:1019000008F47EC08093230390932403A0932503BF
:10191000B093260320911C0335EF3203C00111243C
:101920006CEF70E00E94C20F2BE0260F80911F0326
:10193000F0901B03F0911E038091200390E0B4010E
:101940000E94C20F47E0460F30911D03E091210332
:10195000622F70E07093D1046093D0047093D3042D
:101960006093D2048F2D90E0B4010E94C20F695F92
:1019700070E07093D5046093D4048F2F90E0B4018D
:101980000E94C20F685F70E07093D7046093D60422
:10199000832F90E0880F991F9093E0048093DF04D9
:1019A0008E2F90E06FE370E00E94C20F7093DD0411
:1019B0006093DC04E42FF0E0EE0FFF1FE55BFD4FCA
:1019C000808191819093DB048093DA044093DE045C
:1019D0009BE5E92E92E0F92ED12CC12CD7018D91F7
:1019E0007D010E941702BFEFCB1ADB0A892B09F099
:1019F000DBC081E080932203D092C501C092C40174
:101A000080912203882309F4DDC18091C401909163
:101A1000C50101978830910520F49093D9048093F3
:101A2000D8041092220361E085E00E9440028FE01A
:101A3000D8011D928A95E9F7E091D804F091D90474
:101A4000EE0FFF1FEE0FFF1F8091DA049091DB0471
:101A5000E80FF91F8091D0049091D1042081318149
:101A6000820F931F8C30910554F02091D204309155
:101A7000D3042F5F3F4F3093D3042093D204B2019D
:101A80000E94C20F9C018091D2049091D3040196D0
:101A90008A30910508F08EC0BCE0B89FA001B99FC4
:101AA000500D11246A01C20ED31ED98EC88E8281B8
:101AB00093818130910509F482C008F495C0823089
:101AC000910509F484C0039709F486C0398B288BEB
:101AD000F901E20DF31DCF01B2010E94C20F9B8BF1
:101AE0008A8BAA24A394B12C3C9714F4B12CA12C7A
:101AF000CE88DF882C0D3D1DC901B2010E94C20FA6
:101B00009D8B8C8B66246394712C2C30310514F4DE
:101B1000712C612C2091DC043091DD0421153105FC
:101B200039F0C9010297F12CE12C029708F068C046
:101B3000E090D604F090D7044091D4045091D5049D
:101B40005B8F4A8F6801F0E0E0E0EE15FF0509F4D5
:101B500057C0CF0163E070E00E94C20F8130910551
:101B600009F047C06A0D7B1D4A8D5B8D640F751FA0
:101B7000880F991FD801A80FB91F1F964D915C912E
:101B80006F5F7F4F8FEF9FEF6A30710540F4ACE0DD
:101B9000A69FC001A79F900D1124840F951FD60109
:101BA0008D936D013196D1CFE7E0CE16D10409F0C7
:101BB00015CF26CF4FEF5FEF598F488F78CF87E053
:101BC00090E09F8B8E8BF3E02F2E312C7FCFA6E001
:101BD000B0E0BF8BAE8BF7CFE8E0F0E0FF8BEE8B91
:101BE000E4E02E2E312C72CF47E050E05F8B4E8B1D
:101BF000F7CF8230910509F0B7CF660D771DB4CFCE
:101C0000C9010197029708F03FC02091D604309196
:101C1000D70421503109C090D404D090D504F801E4
:101C2000EE0DFF1D7F01E01AF10A37FD5EC0C9010C
:101C300063E070E00E94C20F81309105F9F46A0DF3
:101C40007B1D6C0D7D1D880F991FD801A80FB91F32
:101C50001F964D915C916F5F7F4F8FEF9FEF6A30C2
:101C6000710540F4BCE0B69FC001B79F900D1124F0
:101C7000840F951F819321503109D4CF8230910573
:101C800001F7660D771DDDCF2330310571F5E2E0F8
:101C9000EE16F10450F13801D12CC12C5701F1E0BE
:101CA000AF1AB108CA14DB0400F50E943B0F9C0177
:101CB000B7016C197D098FEF9FE70E94AE0F6F5F30
:101CC0007F4FC9010E94AE0FFB01EC0DFD1DE00F1F
:101CD000F11F8081D3019D913D019083FD013197DA
:101CE0008083BFEFCB1ADB0ADDCFB88CE894B7F85E
:101CF00060E980915103909152030E9452076B2D2D
:101D000080915103909152030E9452076FE7809196
:101D10005103909152030E94520768018091510330
:101D2000909152039601201B310B2E153F05A8F50B
:101D3000F60121916F01A22EE894A7F860E90E94B4
:101D400052076A2D80915103909152030E945207CD
:101D50006FE780915103909152030E945207609166
:101D6000DF047091E00490E080E00E94DD0260E812
:101D700080915103909152030E9452076A2D8091E5
:101D80005103909152030E94520760E080915103E9
:101D9000909152030E945207C1CF60E80E945207FF
:101DA0006B2D80915103909152030E94520760E085
:101DB00080915103909152030E94520760E085E0A8
:101DC0000E94400280E090E0892B09F47ACD0E94C5
:101DD0003E01882309F472CD0E9400006FCD8F92DE
:101DE0009F92AF92BF92CF92DF92EF92FF92CF93EA
:101DF000DF93EC01688179818A819B81611571058E
:101E00008105910521F464E279ED8BE597E02DE100
:101E100033EF41E050E00E944B0F49015A019B0112
:101E2000AC01A7EAB1E40E946A0F6B017C01ACEE41
:101E3000B4EFA50194010E94780FDC01CB018C0D59
:101E40009D1DAE1DBF1DB7FF03C00197A109B0487E
:101E500088839983AA83BB839F77DF91CF91FF907B
:101E6000EF90DF90CF90BF90AF909F908F900895AC
:101E70000E94EF0E089582EE91E00E94EF0E089509
:101E8000B0E0A0E08093E2019093E301A093E4012D
:101E9000B093E5010895052E97FB1EF400940E946F
:101EA000620F57FD07D00E947D0F07FC03D04EF450
:101EB0000C94620F50954095309521953F4F4F4FB0
:101EC0005F4F089590958095709561957F4F8F4FE6
:101ED0009F4F08950E949F0FA59F900DB49F900D56
:101EE000A49F800D911D11240895B7FF0C946A0FD3
:101EF0000E946A0F821B930B0895A1E21A2EAA1B5F
:101F0000BB1BFD010DC0AA1FBB1FEE1FFF1FA217A9
:101F1000B307E407F50720F0A21BB30BE40BF50BA6
:101F2000661F771F881F991F1A9469F7609570952F
:101F3000809590959B01AC01BD01CF010895A29FB2
:101F4000B001B39FC001A39F700D811D1124911D8D
:101F5000B29F700D811D1124911D0895AA1BBB1BFA
:101F600051E107C0AA1FBB1FA617B70710F0A61B99
:101F7000B70B881F991F5A95A9F780959095BC01BA
:101F8000CD01089597FB072E16F4009407D077FD36
:101F900009D00E94AE0F07FC05D03EF490958195C4
:101FA0009F4F0895709561957F4F0895EE0FFF1F25
:0C1FB0000590F491E02D0994F894FFCF07
:101FBC000000020001000000030001000500010008
:101FCC0006000000080000000A00010000000100EB
:101FDC0002000200030003000500010007000000DE
:101FEC00080000000B0002000000010002000200CB
:101FFC0003000000050001000700010008000000BC
:10200C000A000000000000000200010004000200B1
:10201C000500000007000100090001000A00000093
:10202C000000000002000000040001000600020095
:10203C0007000000090001000B0001000000010076
:10204C000100000003000000050001000700020071
:10205C00080000000A00010000000100020001005D
:10206C000300000005000000070001000900020049
:10207C000A00000001000000000002000100040042
:10208C0001000500000007000000090001000B0022
:10209C000200010000001815A015C019FF1815A1A9
:1020AC0015C819FF1815AE19FF1815AF19FF18151B
:1020BC00AE15D5168015A8161F15D316001540158C
:1020CC008D16141520160015A115C815DA16021553
:1020DC0081168F15D916F115DB1640152E15A41582
:1020EC00A619FF0001140A6464323200127A00004F
:1020FC000428961004000080002000C601A8018C62
:10210C00017001540138011C010001060708090A7D
:10211C000B0C000000007301D4000101BA01320164
:10212C001001240100000000C80671079A079907E6
:00000001FF
