:100000000C946F020C9497020C9497020C94970234
:100010000C9497020C9497020C9497020C949702FC
:100020000C9497020C9497020C9497020C949702EC
:100030000C9497020C9497020C94AA0B0C949702C0
:100040000C944E0A0C9497020C941C0A0C94F6091A
:100050000C9497020C943F0C0C9497020C9497020A
:100060000C94940A0C9497020000000024002700CE
:100070002A002D00330000000000250028002B007E
:100080002E003400000000002300260029002C0070
:100090003200040404040404040402020202020202
:1000A0000303030303030505020306050502030515
:1000B00005050506060606060606010204081020C8
:1000C00040800102040810200102040810200208E8
:1000D000408001408080400104102002040810206C
:1000E00040800000000850020100000304070000E7
:1000F00000000000000000004D696E6F722A202091
:100100002020202020006C6F637269616E20202007
:10011000002D2D2D202020202020202020200068B0
:1001200061726D6F6E69632020004E61747572613B
:100130006C204D696E6F720061656F6C69616E2035
:100140002020004D616A6F72202020202020202076
:10015000006D69786F6C796469616E004D616A6FDA
:10016000722020202020202020006C796469616E9C
:1001700020202020004D696E6F722020202020203A
:10018000202000706872796769616E2020004D69D7
:100190006E6F72202020202020202000646F726962
:1001A000616E20202020004E61747572616C204DBC
:1001B000616A6F7200696F6E69616E202020200095
:1001C0004D6F64653A2000417270656767696174BC
:1001D0006F72203630303000207F010100000000B7
:1001E000000000000000005F0000000000030000AD
:1001F0000003000000227F22227F220000242A6BBD
:100200002A120000422512082452210000205649DB
:1002100049552250000000000300000000001C228D
:100220004100000000000041221C000000000A0400
:100230001F040A000008083E0808000000000040F3
:10024000300000000008080808080800000000400E
:10025000000000004020100804020100003E41415F
:10026000413E00000040427F404000000062514992
:10027000494600000022414949360000001C121185
:100280007F1000000027454545390000003E4949E0
:100290004932000000010179050300000036494998
:1002A0004936000000264949493E0000000000127E
:1002B00000000000000000201200000000000814F0
:1002C0002241000000141414141414000000004112
:1002D0002214080000020159090600003C4299A5B9
:1002E000A5B9221C60181611161860007F494949EB
:1002F000494936003E414141414122007F4141414F
:1003000041413E007F494949494141007F0909096E
:10031000090101003E41414149493A007F0808086E
:1003200008087F000041417F4141000020404040DB
:1003300040403F007F080808142241007F404040B1
:10034000404040007F02040804027F007F0204084E
:1003500010207F003E41414141413E007F1111117B
:1003600011110E003E4141416141BE007F09090962
:100370000919660026494949494932000101017FAE
:10038000010101003F40404040403F000F1020402D
:1003900020100F001F60201C20601F004122140845
:1003A000142241000304087008040300416151490C
:1003B0004543410000007F41410000000102040864
:1003C0001020400000000041417F000000040201B5
:1003D0000204000080808080808080800000000116
:1003E000020000000020545454547800007F44441C
:1003F000444438000038444444442800003844440D
:1004000044447F0000385454545448000000047E93
:10041000050100000018A4A4A4A47C00007F04042B
:10042000040478000000447D40000000004080800B
:10043000847D0000007F1010102844000000017F20
:10044000000000007C04047C04047800007C0404A8
:1004500004047800003844444444380000FC444418
:1004600044443800003844444444FC00007C080400
:100470000404040000485454545424000000043F71
:1004800044400000003C404040407C00001C2040B4
:1004900040201C00003C40403840403C00442810B4
:1004A00028440000001CA0A0A0A07C0000446454CC
:1004B0004C4400000000083641000000000000FF2E
:1004C0000000000000000041360800000804040895
:1004D0001010080000000000000000009A0C112419
:1004E0001FBECFEFD8E0DEBFCDBF12E0A0E0B1E08D
:1004F000E8E2FCE202C005900D92A438B107D9F7FA
:1005000024E0A4E8B2E001C01D92A43EB207E1F7E6
:1005100012E0CFE6D2E004C02197FE010E9434131E
:10052000CE36D107C9F70E94030E0C9412160C9414
:10053000000080E008951F93CF93DF9300D000D098
:100540001F92CDB7DEB71C8221E02B839A8389836B
:10055000E0919D04F0919E0411891D82A0919D045B
:10056000B0919E04E091A104F091A2049E012F5F3E
:100570003F4F50964C916FE08DE994E009958D8145
:100580008F5F8D83811750F30F900F900F900F9016
:100590000F90DF91CF911F9108959B01DC01189678
:1005A000ED91FC9141E067E10994662329F06A30FE
:1005B00019F0862F90E008958FEF9FEF0895AF9286
:1005C000BF92CF92DF92EF92FF920F931F93CF9340
:1005D000DF936C017B018B01040F151FEB015E01A2
:1005E000AE18BF08C017D10759F06991D601ED9137
:1005F000FC910190F081E02DC6010995892B79F7D6
:10060000C501DF91CF911F910F91FF90EF90DF9087
:10061000CF90BF90AF900895FC01538D448D252F4E
:1006200030E0842F90E0821B930B541710F0CF968C
:10063000089501970895FC01918D828D981761F0BE
:10064000A28DAE0FBF2FB11D5D968C91928D9F5FD5
:100650009F73928F90E008958FEF9FEF0895FC01B4
:10066000918D828D981731F0828DE80FF11D858D67
:1006700090E008958FEF9FEF0895FC01918D228DFA
:10068000892F90E0805C9F4F821B91098F7399277F
:1006900008958AEF93E00E943D0321E0892B09F43D
:1006A00020E0822F089580E090E0892B29F00E94BD
:1006B000490381110C9400000895FC01A48DA80F3A
:1006C000B92FB11DA35ABF4F2C91848D90E0019694
:1006D0008F739927848FA689B7892C93A089B189B4
:1006E0008C9180648C93938D848D981306C00288BE
:1006F000F389E02D80818F7D80830895EF92FF92B2
:100700000F931F93CF93DF93EC0181E0888F9B8D34
:100710008C8D981316C0E889F989808185FF11C0F6
:10072000EE89FF896083E889F9898081806480830C
:1007300081E090E0DF91CF911F910F91FF90EF90BA
:100740000895F62E0B8D10E00F5F1F4F0F731127CA
:10075000E02E8C8D8E110CC00FB607FCFACFE88905
:10076000F989808185FFF5CFCE010E945D03F1CF2D
:10077000EB8DEC0FFD2FF11DE35AFF4FF0820B8F35
:10078000EA89FB8980818062D2CFCF93DF93EC012D
:10079000888D8823B9F0AA89BB89E889F9898C9169
:1007A00085FD03C0808186FD0DC00FB607FCF7CF25
:1007B0008C9185FFF2CF808185FFEDCFCE010E9425
:1007C0005D03E9CFDF91CF91089581508B3088F59B
:1007D000E82FF0E0E251FC4F0C94341303040704BB
:1007E000F903FF03190419040A04100414041A0479
:1007F0001E04809180008F778093800008958091FF
:1008000080008F7DF9CF84B58F7784BD089584B53E
:100810008F7DFBCF8091B0008F778093B0000895DB
:100820008091B0008F7DF9CF809190008F77809379
:1008300090000895809190008F7DF9CF8091900075
:10084000877FF5CFCF93DF93282F30E0F901EE516A
:10085000FF4F8491F901E654FF4FD491F901EE5610
:10086000FF4FC491CC23A1F081110E94E503EC2F2E
:10087000F0E0EE0FFF1FEC57FF4FA591B491EC9104
:10088000ED2381E090E009F480E0DF91CF910895BD
:1008900080E090E0FACF1F93CF93DF93282F30E0D2
:1008A000F901EE51FF4F8491F901E654FF4FD491C5
:1008B000F901EE56FF4FC491CC23A9F0162F8111F8
:1008C0000E94E503EC2FF0E0EE0FFF1FEA58FF4F08
:1008D000A591B4918FB7F894EC91111108C0D095FF
:1008E000DE23DC938FBFDF91CF911F910895DE2B24
:1008F000F8CFCF93DF93282F30E0F901E654FF4F74
:1009000044912E563F4FF9012491843019F583E02C
:100910008093A0002223D9F0822F90E0880F991FA6
:10092000FC01E859FF4FA591B491FC01EA58FF4F33
:10093000C591D491623019F59FB7F8942C91842F0A
:10094000809582238C93E8814E2B48839FBFDF9153
:10095000CF91089593EE980F923020F48FEF84BFDB
:1009600084BFD8CF8931B1F68091F00082608EBB10
:1009700080E88093F0008EB38093F000CBCF8FB7E8
:10098000F894EC914E2B4C938FBFE1CF3FB7F89486
:100990008091160390911703A0911803B091190349
:1009A00026B5A89B05C02F3F19F00196A11DB11DCA
:1009B0003FBFBA2FA92F982F8827BC01CD01620F06
:1009C000711D811D911D660F771F881F991F089546
:1009D0008F929F92AF92BF92CF92DF92EF92FF924F
:1009E0006B017C010E94C6044B015C01C114D1045F
:1009F000E104F104B9F00E94C604681979098A0972
:100A00009B09683E73408105910580F321E0C21A7D
:100A1000D108E108F10888EE880E83E0981EA11C39
:100A2000B11CE4CFFF90EF90DF90CF90BF90AF90DC
:100A30009F908F90089585ED8093BC008091BC00BD
:100A400084FDFCCF1092EF020895613298F420915A
:100A5000EF02243089F46093CB02282FABEAB2E096
:100A6000FC018E2F821B861710F080E00895819183
:100A70008D93F7CF81E0089582E0089508958FEF78
:100A80009FEF08958FEF9FEF08958091AA0290E065
:100A90009195819591090895CF93DF93CB01EA0158
:100AA000642F0E942505CE01DF91CF910895CF9349
:100AB000DF931F92CDB7DEB7698361E0CE01019667
:100AC0000E94250581E090E00F90DF91CF9108957D
:100AD000DC011A96ED91FC9130E020E00994DC01F4
:100AE0001696ED91FC9130E020E040E069E1099438
:100AF000DC011696ED91FC9130E020E040E068E1E9
:100B000009949A01DC011696ED91FC91462F67E15C
:100B10000994EF92FF920F931F93CF93DF931F924D
:100B2000CDB7DEB77C018B01D8016C91673129F11B
:100B300050F46531A0F40F90DF91CF911F910F9188
:100B4000FF90EF9008956A3118F16E3FA1F7F80118
:100B50004181498369E2C7010E9468050BC0F80121
:100B600041814983D7011696ED91FC9130E020E058
:100B7000C70109950E5F1F4FD7CFF8018181898387
:100B8000AE014F5F5F4F61E0C7010E948105F2CF68
:100B90000F5F1F4FD7011696ED91FC9130E020E0DA
:100BA00040E0C7010995C0CF462FDC011696ED91B4
:100BB000FC9130E020E066E10994462FDC011696B6
:100BC000ED91FC9130E020E065E10994EF92FF9215
:100BD0000F931F93CF93DF93EC01042F79016930BA
:100BE00069F487E292E0998388831C8A81E0DF912F
:100BF000CF911F910F91FF90EF9008956D3009F400
:100C000075C038F46A3091F16B3009F468C080E047
:100C1000EECF6E3009F47DC06F30C9F70E947805C1
:100C2000F7011381110F110F110F6C89160F612F2E
:100C300062956F706061CE010E94DD05612F6F705B
:100C4000CE010E94DD05F7016481606BCE010E9438
:100C5000DD05F701408151816281660F660F660FE5
:100C6000CE010E9481050150A1F75DC0EA85FB8598
:100C700030E020E040E068E20995EE81FF8130E05D
:100C800020E040E064E1CE01099541E06BE4CE0153
:100C90000E946805E881F981448169E2CE010E94E1
:100CA000680540E06BE4CE010E946805E881F981A7
:100CB000448169E2CE010E94680541E06BE4CE0107
:100CC0000E946805E881F981458169E2CE010E94B0
:100CD000680562EF71E0CE010E94890587CF6DEE55
:100CE00071E04423C1F368EE71E0F5CF411109C012
:100CF00061EE71E00E948905E881F98182898C8B1F
:100D000075CF6AED71E00E948905E881F9818389D8
:100D1000F6CF0E94780561E8CE010E94DD05602FC4
:100D2000CE010E94D405CE010E946F055FCF41E045
:100D30006DE40C946805DC01ED91FC9145856DE254
:100D40000C946805CF93DF93EC0141E06CE40E94C2
:100D50006805CE01DF91CF910C949B06CF93DF9372
:100D6000EC01662379F00E949706CE010E949B0653
:100D7000CE010E94A20640E06CE4CE01DF91CF914B
:100D80000C94680540E06DE40E946805EECF1F9367
:100D9000CF93DF93EC01162F60780E94AE06612F8F
:100DA0006074CE010E94AE06612F6072CE010E9477
:100DB000AE06612F6071CE010E94AE06612F687091
:100DC000CE010E94AE06612F6470CE010E94AE0675
:100DD000612F6270CE010E94AE06612F6170CE015C
:100DE0000E94AE06CE010E949706CE010E949B068D
:100DF000CE010E94A206CE010E949706CE010E945B
:100E00009B0640E06CE4CE01DF91CF911F910C94E2
:100E10006805DC011896ED91FC9130E020E040E09F
:100E200069E10994DC011896ED91FC9130E020E035
:100E300040E068E10994CF93DF931F92CDB7DEB70E
:100E40006983BE016F5F7F4F0E94CD020F90DF91DB
:100E5000CF910895EF92FF921F93CF93DF93EC0110
:100E6000162F7A010E94120760E4CE010E941B0730
:100E7000E885F9859701412F67E1CE010995CE01FB
:100E8000DF91CF911F91FF90EF900C940907EF92A3
:100E9000FF921F93CF93DF93EC01142F79016631FA
:100EA00081F138F4643109F44BC0653179F080E0A8
:100EB00022C06831C9F150F16931C9F78091A902A6
:100EC000882391F1CE010E9409072EC08091A902CA
:100ED000882319F0CE010E940907CE010E94120753
:100EE00060E0CE010E941B07612FCE010E941B070C
:100EF00081E08093A902DF91CF911F91FF90EF9045
:100F00000895642F0E941B0781E0F5CF8091A9020C
:100F1000882319F0CE010E940907A701193138F47E
:100F2000612FCE010E942A071092A902EDCF68E13D
:100F3000CE010E942A07185188E1E80EF11CEDCF7E
:100F40008E898F3F11F488E78E8BE885F9859701AC
:100F5000412F64E1CE01DF91CF911F91FF90EF907F
:100F60000994CF93DF93EC01A889B989FD013491ED
:100F700031969491319684911396FD01A491631753
:100F8000A8F1961798F1631B770B8A9FE02D112427
:100F9000E69FC001E79F900D1124280F392F311DC6
:100FA00083E0220F331F8A95E1F7C9010496DA0125
:100FB000245F3F4FE889F989E80FF91FE491ED9329
:100FC000019682179307B1F78D89882361F0FA01A2
:100FD0009A01285F3F4F8191DF01119780958C9393
:100FE0002E173F07C1F7DF91CF910895FA01CA018B
:100FF00008961192E817F907E1F7E6CF4F925F9252
:101000006F927F928F929F92AF92BF92CF92DF9218
:10101000EF92FF920F931F93CF93DF93CDB7DEB77D
:101020002D970FB6F894DEBF0FBECDBF7C01C62E44
:10103000D42EB22EDC0150968D919C91FC013296FB
:10104000149131960491512E560E040F81E0860FB3
:10105000581608F411E0712CFE0131964F0144241A
:101060004394672CAC2C262DA4016B2DC7010E9444
:10107000B107AC86DD864B869A868986D7011496A1
:10108000ED91FC919E01275F3F4F41E06FE0C7016A
:1010900009956394A394A51430F3D394710ED016DC
:1010A00000F32D960FB6F894DEBF0FBECDBFDF91D3
:1010B000CF911F910F91FF90EF90DF90CF90BF9055
:1010C000AF909F908F907F906F905F904F9008951A
:1010D000FF920F931F93CF93DF93E091AD04F091B4
:1010E000AE043296C4911092B5048C01D0E085E034
:1010F000F82EF80161918F01E0919F04F091A00416
:101100008DE994E009958F3F980771F08E3F2FEF9E
:10111000920779F3282F43E06F2D8DE994E00E9428
:10112000FE07FC0EDF5FE5CF8D2FDF91CF911F9182
:101130000F91FF900895EF92FF921F93CF93DF934B
:10114000EC01142F7901683151F130F46431D1F0A0
:101150006731A9F080E006C0693109F443C060320C
:10116000C9F781E0DF91CF911F91FF90EF90089533
:10117000F70161917F01CE010E94C7061150111144
:10118000F7CFEFCF41E06CE40E94680541E06DE4E9
:10119000CE010E946805CE010E949B06E2CF8F8996
:1011A000882349F0CE010E949706CE010E949B063B
:1011B000CE010E94A206CE010E94970640E06DE497
:1011C000CE010E946805CE010E949B0640E06CE4BF
:1011D000CE010E94680581E08F8B6E89CE010E944E
:1011E000C706BFCF40E06DE40E946805CE010E94B3
:1011F0009B06CE010E94A206CE010E949706CE0158
:101200000E949B061F8AADCF0F931F93CF93DF934E
:101210008C01C62F642FCC32E8F4CA3208F041C0EA
:10122000C83271F1C93209F442C080E0C034D0F153
:10123000CF73F801EC0FF11D868D8F3F91F1C03116
:10124000E0F00E94220421E0892B09F420E0F8015B
:10125000218F27C0CD3289F140F384EB8C0F82308F
:1012600020F7CF73C00FD12FD11D8E8D411135C006
:1012700061E00E94790460E08E8D0E944B0411C0F1
:10128000025E1F4FD0E0F80181918F018F3F31F056
:1012900061E0D03108F062E00E947904DF5FD6316E
:1012A00091F781E0DF91CF911F910F91089570E048
:1012B00090E080E00E94E804F4CF25E030E0433085
:1012C00010F022E030E046E0429FC001439F900DC5
:1012D000112405970197F1F7E4CF62E00E947904A9
:1012E000E0CF1F93CF93DF93EC01EC89FD8949ADEB
:1012F0006A3059F43396E491E40FE9AF18AE81E017
:1013000090E0DF91CF911F910895262F329614918E
:1013100068AD04960E94FE07E8ADE10FE8AFEFCF9D
:101320000F931F93CF93DF938C01D0E0C0E0F801BF
:10133000EC0FFD1F6491662341F089E994E00E945F
:101340007109892B11F02196F2CFCE01DF91CF9157
:101350001F910F910895DC018D919C91DC01ED911D
:10136000FC910190F081E02D0994EAE7F0E087E03C
:10137000808380E680937C008FE180937E00ABE7E2
:10138000B0E08C918C938081886A808380818064B6
:1013900080830895CF92DF92EF92FF920F931F9375
:1013A000CF93DF936C01EB017B01E40EF51E10E09F
:1013B00000E0CE15DF0561F06991D601ED91FC9159
:1013C0000190F081E02DC6010995080F191FF1CF9A
:1013D000C801DF91CF911F910F91FF90EF90DF90A7
:1013E000CF900895089590E080E008951F920F92A5
:1013F0000FB60F9211242F933F934F935F936F93E8
:101400007F938F939F93AF93BF93EF93FF938AEF55
:1014100093E00E945D03FF91EF91BF91AF919F9187
:101420008F917F916F915F914F913F912F910F908D
:101430000FBE0F901F9018951F920F920FB60F922C
:1014400011242F938F939F93EF93FF93E0910A04BE
:10145000F0910B048081E0911004F091110482FD61
:101460001BC09081809113048F5F8F7320911404AF
:10147000821741F0E0911304F0E0E650FC4F958FA5
:1014800080931304FF91EF919F918F912F910F9073
:101490000FBE0F901F9018958081F4CF1F920F926E
:1014A0000FB60F9211242F933F938F939F93AF9377
:1014B000BF9380911A0390911B03A0911C03B091DC
:1014C0001D033091150320E4230F2D3728F023EC62
:1014D000230F0196A11DB11D2093150380931A03BC
:1014E00090931B03A0931C03B0931D0380911603DC
:1014F00090911703A0911803B09119030196A11DB3
:10150000B11D8093160390931703A0931803B09313
:101510001903BF91AF919F918F913F912F910F90A0
:101520000FBE0F901F9018951F920F920FB60F923B
:1015300011242F933F934F935F936F937F938F93D8
:101540009F93AF93BF93EF93FF938091B900887FF0
:10155000803609F44AC0F0F5883209F4A5C018F5C0
:10156000803109F499C0B8F4882309F4F0C08830B8
:1015700009F492C0FF91EF91BF91AF919F918F912C
:101580007F916F915F914F913F912F910F900FBE7F
:101590000F901F901895883109F486C0803251F75A
:1015A0008093EE0214C0803409F49BC040F4803371
:1015B000B9F38833F9F68093EE0285ECAEC080353E
:1015C00009F483C0883509F494C0883499F60E94E0
:1015D0001B05D0CF883909F48AC038F5883729F03F
:1015E00050F4883611F0803729F683E08093EF02BB
:1015F0001092ED0255C0883809F479C0803919F08D
:10160000803809F0B7CF8091ED02803208F06FC0CA
:10161000E091ED0281E08E0F8093ED028091BB009E
:10162000F0E0E353FD4F80833BC0803B39F0D0F4C2
:10163000803A09F477C0883A09F09CCF84E080931F
:10164000EF021092CC021092CB02F0E0E0E009959C
:101650008091CB0281110FC081E08093CB02109268
:10166000AB0209C0803C09F4A8CF883C09F4A5CF9F
:10167000883B09F07FCFE091CC0281E08E0F809310
:10168000CC02F0E0E555FD4F80818093BB00909146
:10169000CC028091CB0229C0809114038093BB00BF
:1016A00085EC8093BC0066CF909113038091120368
:1016B000981758F5E091130381E08E0F8093130380
:1016C000F0E0EE50FD4F8081E9CFE091130381E01F
:1016D0008E0F809313038091BB00F0E0EE50FD4F1E
:1016E000808390911303809112039817C8F285E8C4
:1016F000D8CFE091130381E08E0F80931303809184
:10170000BB00F0E0EE50FD4F80838091F10281112B
:101710005ECF81E08093F00284EA8093BC00109257
:10172000EF0228CF8091ED02803230F4E091ED029B
:10173000F0E0E353FD4F10826091ED0270E08DEC1C
:1017400092E0F0E0E0E009951092ED0236CF1092C1
:10175000EE023DCF1F920F920FB60F9211240F93FE
:101760001F932F933F934F935F936F937F938F9329
:101770009F93AF93BF93CF93DF93EF93FF938091AA
:10178000A8028F5F8436B8F48093A802FF91EF918E
:10179000DF91CF91BF91AF919F918F917F916F9189
:1017A0005F914F913F912F911F910F910F900FBE1D
:1017B0000F901F9018951092A80220911F0335EFEB
:1017C0003203C00111246CEF70E00E9420132BE063
:1017D000260F80912203D0911E03F09121034091A6
:1017E00020038091230390E00CED1FEFB8010E94CD
:1017F0002013C7E0C60FE091240330E03093D404F7
:101800002093D3043093D6042093D5048D2F90E0F9
:10181000B8010E942013695F70E07093D804609350
:10182000D7048F2F90E0B8010E942013685F70E00A
:101830007093DA046093D904242F30E0220F331F11
:101840003093DC042093DB048E2F90E06FE370E094
:101850000E9420137093E2046093E104EC2FF0E007
:10186000EE0FFF1FE653FE4F808191819093E004BD
:101870008093DF04C093E3040E94B50987CF1F92D1
:101880000F920FB60F921124FF920F931F932F9375
:101890003F934F935F936F937F938F939F93AF93F8
:1018A000BF93CF93DF93EF93FF9380917C008F7072
:1018B00090917C009F5F90937C0020917800309104
:1018C0007900E82FF0E0E25EFC4F30838630E1F4EF
:1018D00080917A008F7780937A000FE312E0D0E056
:1018E000C0E0FF24F394F80181918F010E9422044B
:1018F0002196892B31F4F0922503D0930101C093F6
:101900000001C730D10579F7FF91EF91DF91CF91B9
:10191000BF91AF919F918F917F916F915F914F9107
:101920003F912F911F910F91FF900F900FBE0F903D
:101930001F901895CF931092FD031092FC0388EE30
:1019400093E0A0E0B0E08093FE039093FF03A093A8
:101950000004B09301048AE492E09093FB03809327
:10196000FA0385EC90E0909307048093060484ECDE
:1019700090E0909309048093080480EC90E09093A9
:101980000B0480930A0481EC90E090930D04809303
:101990000C0482EC90E090930F0480930E0486EC8C
:1019A00090E090931104809310041092130410920D
:1019B000140410921504109216048AEF93E0909389
:1019C00098048093970410922B0310922A0310928C
:1019D0002D0310922C0310922F0310922E031092BD
:1019E000310310923003109233031092320310929D
:1019F000350310923403109237031092360310927D
:101A000039031092380310923B0310923A0310925C
:101A10003D0310923C0310923F0310923E0310923C
:101A2000410310924003109243031092420310921C
:101A300045031092440310924703109246031092FC
:101A400049031092480310924B0310924A031092DC
:101A50004D0310924C0310924F0310924E031092BC
:101A6000510310925003109253031092520387E9CE
:101A700094E0909355038093540310925603109270
:101A800057031092580310925D0310925C0310925A
:101A90005F0310925E038FEF9FEF9093610380933B
:101AA0006003909363038093620383E080936403F5
:101AB00010926503109266031092670310926803F8
:101AC0001092E903E9E6F3E080E8DF011D928A95D0
:101AD000E9F71092EC031092ED031092EE031092CE
:101AE000EF031092F0031092F1031092F2031092A0
:101AF000F3031092F4031092F5031092F603109280
:101B0000F7031092F8031092F90382E090E09093AB
:101B1000D4048093D30485E090E09093D60480931E
:101B2000D5048EEF9FEF9093D8048093D70486E07E
:101B300090E09093DA048093D90488EC90E090933D
:101B4000DC048093DB041092DE041092DD0484E652
:101B500092E09093E0048093DF0410929C04109232
:101B60009B041092D1041092D2048CE592E09093E1
:101B70009A048093990410929E0410929D041092EE
:101B8000B2041092B5041092A9041092AA04109203
:101B9000AB041092AC048FEF8093B3048093B7042E
:101BA000EBEBF4E081ED94E0CFEFC1938E179F074C
:101BB000E1F786EE95E09093A2048093A10487E478
:101BC00097E09093A4048093A3048BE998E090930A
:101BD000A6048093A50484E099E09093A8048093E0
:101BE000A70430E020E040E069E08DE994E00E9445
:101BF000E60582E08093C70484E08093C804C09324
:101C0000C604CF910895CF93DF93CDB7DEB7AB97DE
:101C10000FB6F894DEBF0FBECDBF8091F200806199
:101C20008EBB80E88093F2009EB39093F200809385
:101C3000610091E0909361008093610010926100D7
:101C4000789484B5826084BD84B5816084BD85B597
:101C5000826085BD85B5816085BD80916E008160A3
:101C600080936E0010928100809181008260809349
:101C7000810080918100816080938100809180004B
:101C80008160809380008091B10084608093B10076
:101C90008091B00081608093B0008091910082605B
:101CA0008093910080919100816080939100809158
:101CB000900081608093900080917A00846080938E
:101CC0007A0080917A00826080937A0080917A0015
:101CD000816080937A0080917A00806880937A0096
:101CE0001092C10061E085E00E9479040FE312E0E8
:101CF000A6E4EA2EA2E0FA2E62E0D8018D918D01D1
:101D00000E947904E016F106B9F761E083E00E94D1
:101D1000790460E083E00E944B0461E084E00E946B
:101D2000790461E082E00E94790460E084E00E942E
:101D30004B0460E082E00E944B040E94B509E091F0
:101D40005403F09155030190F081E02DA089B189F1
:101D500082E08C93A485B5851C92A685B7858FE714
:101D60008C93108EA489B58986E08C93A289B3895F
:101D70008C9180618C93A289B3898C9188608C93BB
:101D8000A289B3898C9180688C930288F389E02DB5
:101D900080818F7D808384E0809356031092580366
:101DA0001092570310925F0310925E0310925D032E
:101DB00010925C038FEF9FEF909361038093600319
:101DC00090936303809362032FB7F89480911A0372
:101DD00090911B03A0911C03B0911D032FBF809312
:101DE000EC039093ED03A093EE03B093EF031092F6
:101DF000E903109266031092650310926703109234
:101E000068031092EB031092EA03809164038170DF
:101E10008260816080936403E091A104F091A20448
:101E200030E020E040E06AE08DE994E009958E0121
:101E30000F5F1F4F88E0F80111928A95E9F7C801FA
:101E40000E949B02E091A104F091A20430E020E006
:101E500040E06BE08DE994E00995E091A104F091F8
:101E6000A20430E020E040E06BE08DE994E00995C9
:101E70008FEA87BD80916E00826080936E00FCE0E7
:101E80006F2E712C2FB7F89480911A0390911B0339
:101E9000A0911C03B0911D032FBF409126035091C8
:101EA000270360912803709129036C017D01C41AF6
:101EB000D50AE60AF70AB701A60141395140610582
:101EC000710508F49FC08093260390932703A09385
:101ED0002803B093290388ED91E09093AE0480939A
:101EE000AD04FF24F394F092B2041092D104109246
:101EF000D20487EC91E00E9490091092B2041092F3
:101F0000D104F092D20480EC91E00E94900983E029
:101F10008093D1048093D2042091E30430E050E018
:101F200040E019A27E0191E2E90EF11CCA01B9015B
:101F30002AE030E040E050E00E94DB12605DD70113
:101F40006E937D01211531054105510579F71097F3
:101F500069F0FD0101900020E9F73197AF014A1BBC
:101F60005B0BBD0189E994E00E94CA0980912303BB
:101F70001F928F93E0E8F2E0FF93EF931F930F938C
:101F80000E943A13E5EDEE2EE2E0FE2EF092A00460
:101F9000E0929F04C8010E94680886E08093D10403
:101FA00081E08093D2040F900F900F900F900F90CC
:101FB0000F90E091E304E830D0F4F0E0EE51F04F00
:101FC0000C943413EA0FD210DE10EA10F61002114E
:101FD0000E111A1185EB91E00E9490091092D10424
:101FE00082E08093D20487EA91E00E949009E09118
:101FF000A104F091A20430E020E040E060E18DE92E
:1020000094E0099580912503882309F439C28091D1
:1020100000019091010101978830910520F490937F
:10202000DE048093DD041092250361E085E00E94C8
:102030004B048EE1D8011D928A95E9F7E091DD0409
:10204000F091DE04EE0FFF1FEE0FFF1F8091DF0403
:102050009091E004E80FF91F8091D3049091D4048B
:1020600020813181820F931F8C30910554F0209193
:10207000D5043091D6042F5F3F4F3093D604209380
:10208000D504B3010E9420139C018091D504909146
:10209000D60401968A30910508F0D8C06CE0689F9C
:1020A000A001699F500D11246A01C20ED31EDBA648
:1020B000CAA6828193818130910509F4CCC008F4CD
:1020C000E2C08230910509F4CEC0039709F4D3C071
:1020D0003BA32AA3E8A5F9A5E20FF31FCF01B301A3
:1020E0000E9420139DA38CA344244394512C3C971D
:1020F00014F4512C412C220D331DC901B3010E944F
:1021000020139FA38EA388248394912C2C30310517
:1021100014F4912C812C2091E1043091E2042115DA
:10212000310539F0C9010297F12CE12C029708F032
:10213000B7C0E090D904F090DA04A090D704B09032
:10214000D8046801F0E0E0E0EE16FF0609F4A8C04C
:10215000CF0163E070E00E9420138130910509F007
:1021600098C0640D751D6A0D7B1D880F991FD801DD
:10217000A80FB91F91964D915C916F5F7F4F8FEFC4
:102180009FEF6A30710540F4BCE0B69FC001B79F75
:10219000900D1124840F951FD6018D939D936D0191
:1021A0003196D2CF8CE991E00E9490091092D1042F
:1021B00082E08093D2048EE891E017CF83E891E02B
:1021C0000E9490091092D10482E08093D20485E7A6
:1021D00091E00BCF8AE691E00E9490091092D10421
:1021E00082E08093D2048CE591E0FFCE81E591E01E
:1021F0000E9490091092D10482E08093D20483E47B
:1022000091E0F3CE88E391E00E9490091092D1040E
:1022100082E08093D2048AE291E0E7CE8FE191E000
:102220000E9490091092D10482E08093D20481E14F
:1022300091E0DBCE86E091E00E9490091092D104FB
:1022400082E08093D20488EF90E0CFCE8FEF9FEFB3
:102250009BA78AA72ECF67E0262E312CA3E0B0E003
:10226000B9A7A8A735CF56E0252E312CE3E0F0E042
:10227000F9A7E8A72DCF48E0242E312C84E090E088
:1022800099A788A725CF97E0292E312CA4E0B0E0AC
:10229000E7CF8230910509F066CF680D791D63CFD5
:1022A000C9010197029708F043C02091D9043091E9
:1022B000DA0421503109C090D704D090D804F70136
:1022C000EE0FFF1FE00FF11F6CE0B62E37FD67C069
:1022D000C90163E070E00E9420138130910511F57F
:1022E000640D751D6C0D7D1D880F991FD801A80FF9
:1022F000B91F91964D915C916F5F7F4F8FEF9FEF6C
:102300006A30710538F4B69EC001B79E900D112455
:10231000840F951F81939193BFEFEB1AFB0A215015
:102320003109D4CF82309105E9F6680D791DDACFF5
:1023300023303105A1F5E2E0EE16F10480F15801F9
:10234000D12CC12C4701F1E08F1A9108C814D9048F
:1023500030F50E9499129C01B7016C197D098FEF2D
:102360009FE70E940C136F5F7F4FC9010E940C13FF
:10237000FB01EC0DFD1DEE0FFF1FE00FF11F808133
:102380009181D5012D913D915D0131832083FD0126
:10239000329791838083BFEFCB1ADB0AD7CF9AA401
:1023A000E89497F860E980915403909155030E9456
:1023B000AB09692D80915403909155030E94AB099C
:1023C0006FE780915403909155030E94AB09580127
:1023D000D12CC12C8091540390915503CE14DF046D
:1023E000D1F1F5012081F2E0AF0EB11C822EE8940C
:1023F00087F860E90E94AB09682D809154039091A1
:1024000055030E94AB096FE78091540390915503E7
:102410000E94AB096091DB047091DC0490E080E0E5
:102420000E94E80460E880915403909155030E9453
:10243000AB09682D80915403909155030E94AB091C
:1024400060E080915403909155030E94AB092FEFF7
:10245000C21AD20ABFCF60E80E94AB09692D8091F1
:102460005403909155030E94AB0960E0809154039E
:10247000909155030E94AB0960E085E00E944B04F7
:1024800080E090E0892B09F4FDCC0E944903882369
:1024900009F4F5CC0E940000F2CC8F929F92AF928B
:1024A000BF92CF92DF92EF92FF92CF93DF93EC0136
:1024B000688179818A819B8161157105810591050A
:1024C00021F464E279ED8BE597E02DE133EF41E013
:1024D00050E00E94A91249015A019B01AC01A7EAF0
:1024E000B1E40E94C8126B017C01ACEEB4EFA5010F
:1024F00094010E94D612DC01CB018C0D9D1DAE1DF6
:10250000BF1DB7FF03C00197A109B0488883998315
:10251000AA83BB839F77DF91CF91FF90EF90DF90ED
:10252000CF90BF90AF909F908F9008950E944D12D2
:10253000089582E091E00E944D120895B0E0A0E07D
:102540008093020190930301A0930401B0930501CD
:102550000895052E97FB1EF400940E94C01257FDAB
:1025600007D00E94DB1207FC03D04EF40C94C0127B
:1025700050954095309521953F4F4F4F5F4F0895AF
:1025800090958095709561957F4F8F4F9F4F0895DF
:102590000E94FD12A59F900DB49F900DA49F800DE9
:1025A000911D11240895B7FF0C94C8120E94C812FF
:1025B000821B930B0895A1E21A2EAA1BBB1BFD01DF
:1025C0000DC0AA1FBB1FEE1FFF1FA217B307E40712
:1025D000F50720F0A21BB30BE40BF50B661F771F6A
:1025E000881F991F1A9469F760957095809590954A
:1025F0009B01AC01BD01CF010895A29FB001B39F23
:10260000C001A39F700D811D1124911DB29F700DFB
:10261000811D1124911D0895AA1BBB1B51E107C008
:10262000AA1FBB1FA617B70710F0A61BB70B881F62
:10263000991F5A95A9F780959095BC01CD010895F1
:1026400097FB072E16F4009407D077FD09D00E945F
:102650000C1307FC05D03EF4909581959F4F08958B
:10266000709561957F4F0895EE0FFF1F0590F491CF
:10267000E02D0994AEE0B0E0E0E4F3E10C94E9155C
:102680000D891E8986E08C831A8309838FEF9FE76B
:102690009E838D83AE01475E5F4F6F89788DCE013B
:1026A00001960E945D132F813885020F131FF801D8
:1026B00010822E96E4E00C940516ABE0B0E0E3E661
:1026C000F3E10C94DB157C013B018A01FC011782CC
:1026D0001682838181FFC8C1CE0101965C01F7019A
:1026E0009381F30193FD859193FF81913F018823AD
:1026F00009F453C1853239F493FD859193FF81919B
:102700003F01853229F4B70190E00E944D15E7CFD3
:10271000912C212C312CFFE1F31538F08B3211F183
:1027200090F4803209F1833229F137FC3CC020ED6E
:10273000280F2A3050F536FE20C08AE0989E200DE2
:102740001124922E06C08D3291F0803371F7689477
:1027500030F8F30193FD859193FF81913F01811141
:10276000DACF21C0689431F8689432F8F2CF6894D7
:1027700033F8EFCF689434F8ECCFEAE02E9E200DCA
:102780001124222E689435F8E4CF8E3229F436FCD9
:1027900004C1689436F8DDCF8C3619F4689437F8A4
:1027A000D8CF8836B1F2982F9F7D95549330E0F0C2
:1027B0008336A1F18337C1F1833509F063C0280165
:1027C000F2E04F0E511CF801C080D180692D70E0FD
:1027D00036FC02C06FEF7FEFC6010E9437154C0137
:1027E000689437F882010AC00C5F1F4FFFE3F9833A
:1027F00088248394912C6501E89437F833FE2DC02A
:10280000522C8114910471F5552009F468CFB70159
:1028100080E290E00E944D155A94F6CFF801808135
:1028200089830E5F1F4FE4CF2801F2E04F0E511C49
:10283000F801C080D180692D70E036FC02C06FEFD6
:102840007FEFC6010E9442154C018201D5CFB7012E
:1028500080E290E00E944D152A942814190409F092
:10286000B0F7CECFF60137FC859137FE81916F012D
:10287000B70190E00E944D1551105A94F1E08F1A63
:102880009108BFCF843619F0893609F077C0F80176
:1028900037FE6BC060817181828193810C5F1F4F15
:1028A000F32DFF763F2E97FF09C090958095709588
:1028B00061957F4F8F4F9F4F689437F82AE030E043
:1028C000A5010E947D15C82ECA188C2C432C36FEFB
:1028D0000CC0E89440F8C91440F434FE05C032FC42
:1028E00003C0F32DFE7E4F2E892C44FE95C0FE01C1
:1028F000EC0DF11D8081803309F087C0242D297EE5
:10290000422E842D8870582E43FC95C040FE8FC007
:102910009C2C821418F42C0C922C981844FE91C014
:10292000B70180E390E00E944D1542FE09C088E7A0
:1029300090E041FE02C088E590E0B7010E944D158D
:10294000C91408F48AC0CA94D12C9FEFC91AD90AB5
:10295000CA0CDB1CF60182916F01B70190E00E9466
:102960004D15AC14BD04B1F74FCF60817181072EB6
:10297000000C880B990B0E5F1F4F92CFD32CE8945D
:10298000D4F82AE030E0853739F1232D297FD22E83
:102990008F3601F148F48835A9F0F70186819781D7
:1029A0002B96E2E10C94F715803749F08837A9F7A8
:1029B000D4FE02C06894D2F820E130E00DC06894E3
:1029C000D4F8F6CF34FE03C0822F8660D82E20E1E3
:1029D00032E002C028E030E0F801D7FE0FC060818D
:1029E0007181828193810C5F1F4FA5010E947D152B
:1029F000C82ECA183D2CE89437F867CF60817181E2
:102A000090E080E00E5F1F4FF0CF42FC02C0839445
:102A100078CF8394839475CF842D867809F471CF11
:102A2000F6CFB70180E290E00E944D1583948214A6
:102A3000C0F3512C73CF522C5818821408F46ECF67
:102A4000F8CF842D867809F47BCF8BE241FE80E2BB
:102A500047FC8DE2B70190E071CFB70180E390E0D1
:102A60000E944D159A946CCF8FEF9FEF99CFFC0188
:102A70000590615070400110D8F7809590958E0FA9
:102A80009F1F0895FC016150704001900110D8F71C
:102A9000809590958E0F9F1F08950F931F93CF934E
:102AA000DF93182F092FEB018B8181FD09C01FEFE8
:102AB0000FEF812F902FDF91CF911F910F910895EC
:102AC00082FF14C02E813F818C819D812817390798
:102AD0003CF4E881F981CF010196998388831083C2
:102AE0008E819F8101969F838E83E3CFE885F98550
:102AF000812F0995892BA1F3DACFFA01AA27283073
:102B000051F1203181F1E8946F936E7F6E5F7F4FBA
:102B10008F4F9F4FAF4FB1E03ED0B4E03CD0670F36
:102B2000781F891F9A1FA11D680F791F8A1F911D89
:102B3000A11D6A0F711D811D911DA11D20D009F4D9
:102B400068943F912AE0269F11243019305D31931B
:102B5000DEF6CF010895462F4770405D4193B3E004
:102B60000FD0C9F7F6CF462F4F70405D4A3318F0AB
:102B7000495D31FD4052419302D0A9F7EACFB4E05C
:102B8000A6959795879577956795BA95C9F7009714
:102B90006105710508959B01AC010A2E06945795B5
:102BA000479537952795BA95C9F7620F731F841F0C
:102BB000951FA01D08952F923F924F925F926F92A2
:102BC0007F928F929F92AF92BF92CF92DF92EF92BD
:102BD000FF920F931F93CF93DF93CDB7DEB7CA1B3E
:102BE000DB0B0FB6F894DEBF0FBECDBF09942A8869
:102BF000398848885F846E847D848C849B84AA8411
:102C0000B984C884DF80EE80FD800C811B81AA819D
:102C1000B981CE0FD11D0FB6F894DEBF0FBECDBF68
:082C2000ED010895F894FFCFC7
:102C28000100010000000000020001000000030094
:102C380001000500010006000000080000000A006D
:102C4800010000000100020002000300030005006B
:102C5800010007000000080000000B00020000004F
:102C68000100020002000300000005000100070047
:102C78000100080000000A00000000000000020037
:102C8800010004000200050000000700010009001F
:102C980001000A000000000000000200000004001B
:102CA80001000600020007000000090001000B00F7
:102CB8000100000001000100000003000000050001
:102CC800010007000200080000000A0001000000DF
:102CD80001000200010003000000050000000700D9
:102CE8000100090002000A0000006402AE0192011E
:102CF80076015A013E01220106011815A015C019D6
:102D0800FF1815A115C819FF1815AE19FF1815AF2A
:102D180019FF1815AE15D5168015A8161F15D31648
:102D2800001540158D16141520160015A115C81587
:102D3800DA16021581168F15D916F115DB1640150E
:102D48002E15A415A619FF0001140A646432320076
:102D5800127A000004289610040000800020000663
:102D68000708090A0B0C000000007E03DF020C03B1
:102D7800C5033D031B032F03000000007109CA09A6
:102D8800F309F2090000000002000100040001003C
:102D98000500000007000000090001000B00020008
:042DA800253464006A
:00000001FF
