:100000000C943E020C9466020C9466020C946602F8
:100010000C9466020C9466020C9466020C946602C0
:100020000C9466020C9466020C9466020C94070A07
:100030000C9466020C9466020C945F0B0C9466029E
:100040000C94AB080C9466020C9466020C94660245
:100050000C9466020C94FB0B0C9466020C946602E2
:100060000C94F1080C9466020000000024002700A4
:100070002A002D00330000000000250028002B007E
:100080002E003400000000002300260029002C0070
:100090003200040404040404040402020202020202
:1000A0000303030303030505020306050502030515
:1000B00005050506060606060606010204081020C8
:1000C00040800102040810200102040810200208E8
:1000D000408001408080400104102002040810206C
:1000E00040800000000850020100000304070000E7
:1000F00000000000000000000001030507090B0DCF
:100100000F11131517191B1D1F21232527292B2D0F
:100110002F31333537393B3D3F41434547494B4DFF
:100120004F51535557595B5D5F61636567696B6DEF
:100130006F71737577797B7D7F7D7B79777573714F
:100140006F6D6B69676563615F5D5B5957555351AF
:100150004F4D4B49474543413F3D3B39373533319F
:100160002F2D2B29272523211F1D1B19171513118F
:100170000F0D0B090705030100FFFDFBF9F7F5F370
:10018000F1EFEDEBE9E7E5E3E1DFDDDBD9D7D5D34F
:10019000D1CFCDCBC9C7C5C3C1BFBDBBB9B7B5B33F
:1001A000B1AFADABA9A7A5A3A19F9D9B999795932F
:1001B000918F8D8B8987858381838587898B8D8FAF
:1001C00091939597999B9D9FA1A3A5A7A9ABADAF2F
:1001D000B1B3B5B7B9BBBDBFC1C3C5C7C9CBCDCF1F
:1001E000D1D3D5D7D9DBDDDFE1E3E5E7E9EBEDEF0F
:1001F000F1F3F5F7F9FBFDFE1A001C001E001F00CD
:1002000021002300250028002A002D002F003200A5
:10021000350038003C003F00430047004B005000D1
:1002200055005A005F0065006B00710078007F0088
:1002300087008F009700A000AA00B400BE00CA008B
:10024000D600E300F000FE000E011E012F01410167
:10025000540168017D019401AC01C601E101FD0179
:100260001C023C025E028202A802D002FB022903A9
:1002700059038C03C203FB0338047804BC0404054F
:100280005005A105F7055206B20618078407F607C0
:100290007008F0087809080AA10A430BEF0BA40CB8
:1002A000650D310E090FED0FE010E111F11211147F
:1002B00043158716DE174919CA1A621C121EDB1F66
:1002C000C021C223E3252328862A0E2DBC2F92327B
:1002D0009435C438243CB73F81438547C64B4750CB
:1002E0000D551C5A785F2565296B887148786F7F9A
:1002F00003870A8F8C978FA0FFFEFEFEFDFDFDFC9D
:10030000FCFBFBFAF9F8F8F7F6F5F1EDE8E4DFDBD2
:10031000D7D2CDC8C3BDB8B3ADA8A39D97918B85E7
:100320007F79736E6965605B56524D4845413E3A30
:1003300036332F2C292624211F1C1A1714131211AF
:100340000F0E0D0C0A09090908080707060606061C
:100350000505050505050505050404040404040355
:10036000030302020201010101010000000000007C
:1003700000000000000000000000710340031103B2
:10038000E502BB0294026F024C022B020C02EE014A
:10039000D301B801A001880172015D014A01370152
:1003A000260115010601F700E900DC00D000C400B9
:1003B000B900AE00A5009B0093008A0083007B007B
:1003C00074006E00680062005C00570052004D002F
:1003D0004900450041003D003A003700340031003B
:1003E0002E002B00290026002400220020001E00E1
:1003F0001D001B001A001800170015001400130040
:100400001200110010000F000E000D000D000C0076
:100410000B000A000A000900090008000800070094
:1004200007000600060006000500050005000400A0
:1004300004000400040003000300030003000300A1
:10044000020002000200020002000200020001009D
:100450000100010001000100010001000100010094
:100460000100010001000000000000000000000089
:1004700000000000000000000000560C11241FBE08
:10048000CFEFD8E0DEBFCDBF12E0A0E0B1E0EEE0FC
:10049000F4E202C005900D92AC39B107D9F723E020
:1004A000ACE9B2E001C01D92AA3AB207E1F712E04E
:1004B000CEE3D2E004C02197FE010E94FF11CD33AC
:1004C000D107C9F70E94D50C0C9405120C940000BA
:1004D00080E008951F93CF93DF9300D000D01F9248
:1004E000CDB7DEB71C8221E02B839A838983E0910C
:1004F0006303F091640311891D82A0916303B0919D
:100500006403E0916703F09168039E012F5F3F4F02
:1005100050964C916FE083E693E009958D818F5F53
:100520008D83811750F30F900F900F900F900F90C5
:10053000DF91CF911F9108959B01DC011896ED91F9
:10054000FC9141E067E10994089581508B3088F572
:10055000E82FF0E0E255FD4F0C94FF11C302C702F3
:10056000B902BF02D902D902CA02D002D402DA0209
:10057000DE02809180008F778093800008958091C3
:1005800080008F7DF9CF84B58F7784BD089584B5C1
:100590008F7DFBCF8091B0008F778093B00008955E
:1005A0008091B0008F7DF9CF809190008F778093FC
:1005B00090000895809190008F7DF9CF80919000F8
:1005C000877FF5CFCF93DF93282F30E0F901EE51ED
:1005D000FF4F8491F901E654FF4FD491F901EE5693
:1005E000FF4FC491CC23A1F081110E94A502EC2FF2
:1005F000F0E0EE0FFF1FEC57FF4FA591B491EC9187
:10060000ED2381E090E009F480E0DF91CF9108953F
:1006100080E090E0FACF1F93CF93DF93282F30E054
:10062000F901EE51FF4F8491F901E654FF4FD49147
:10063000F901EE56FF4FC491CC23A9F0162F81117A
:100640000E94A502EC2FF0E0EE0FFF1FEA58FF4FCB
:10065000A591B4918FB7F894EC91111108C0D09581
:10066000DE23DC938FBFDF91CF911F910895DE2BA6
:10067000F8CFCF93DF93282F30E0F901E654FF4FF6
:1006800044912E563F4FF9012491843019F583E0AF
:100690008093A0002223D9F0822F90E0880F991F29
:1006A000FC01E859FF4FA591B491FC01EA58FF4FB6
:1006B000C591D491623019F59FB7F8942C91842F8D
:1006C000809582238C93E8814E2B48839FBFDF91D6
:1006D000CF91089593EE980F923020F48FEF84BF5E
:1006E00084BFD8CF8931B1F68091F00082608EBB93
:1006F00080E88093F0008EB38093F000CBCF8FB76B
:10070000F894EC914E2B4C938FBFE1CF3FB7F89408
:100710008091410390914203A0914303B09144031F
:1007200026B5A89B05C02F3F19F00196A11DB11D4C
:100730003FBFBA2FA92F982F8827BC01CD01620F88
:10074000711D811D911D660F771F881F991F0895C8
:100750008F929F92AF92BF92CF92DF92EF92FF92D1
:100760006B017C010E9486034B015C01C114D10422
:10077000E104F104B9F00E948603681979098A0935
:100780009B09683E73408105910580F321E0C21A00
:10079000D108E108F10888EE880E83E0981EA11CBC
:1007A000B11CE4CFFF90EF90DF90CF90BF90AF905F
:1007B0009F908F90089585ED8093BC008091BC0040
:1007C00084FDFCCF10921A030895613298F42091B1
:1007D0001A03243089F46093F602282FA6EDB2E0C4
:1007E000FC018E2F821B861710F080E00895819106
:1007F0008D93F7CF81E0089582E008958FEF9FEF0A
:1008000008958FEF9FEF08958091D50290E0919524
:10081000819591090895CF93DF93CB01EA01642F6D
:100820000E94E503CE01DF91CF910895CF93DF932E
:100830001F92CDB7DEB7698361E0CE0101960E94B9
:10084000E50381E090E00F90DF91CF910895DC0106
:100850001A96ED91FC9130E020E00994DC011696A7
:10086000ED91FC9130E020E040E069E10994DC0189
:100870001696ED91FC9130E020E040E068E10994AB
:100880009A01DC011696ED91FC91462F67E10994DF
:10089000EF92FF920F931F93CF93DF931F92CDB7E9
:1008A000DEB77C018B01D8016C91673129F150F4DE
:1008B0006531A0F40F90DF91CF911F910F91FF90C0
:1008C000EF9008956A3118F16E3FA1F7F801418168
:1008D000498369E2C7010E9427040BC0F8014181E6
:1008E0004983D7011696ED91FC9130E020E0C701D5
:1008F00009950E5F1F4FD7CFF80181818983AE0123
:100900004F5F5F4F61E0C7010E944004F2CF0F5F6D
:100910001F4FD7011696ED91FC9130E020E040E0AA
:10092000C7010995C0CF462FDC011696ED91FC91C9
:1009300030E020E066E10994462FDC011696ED9147
:10094000FC9130E020E065E10994EF92FF920F9373
:100950001F93CF93DF93EC01042F7901693069F481
:1009600084E592E0998388831C8A81E0DF91CF91AE
:100970001F910F91FF90EF9008956D3009F475C0AD
:1009800038F46A3091F16B3009F468C080E0EECF42
:100990006E3009F47DC06F30C9F70E943704F7014B
:1009A0001381110F110F110F6C89160F612F6295B2
:1009B0006F706061CE010E949C04612F6F70CE0148
:1009C0000E949C04F7016481606BCE010E949C042C
:1009D000F701408151816281660F660F660FCE017B
:1009E0000E9440040150A1F75DC0EA85FB8530E01C
:1009F00020E040E068E20995EE81FF8130E020E0F0
:100A000040E064E1CE01099541E06BE4CE010E9433
:100A10002704E881F981448169E2CE010E9427041C
:100A200040E06BE4CE010E942704E881F981448113
:100A300069E2CE010E94270441E06BE4CE010E94EE
:100A40002704E881F981458169E2CE010E942704EB
:100A50006FE172E0CE010E94480487CF6AE172E044
:100A60004423C1F365E172E0F5CF411109C06EE0A6
:100A700072E00E944804E881F98182898C8B75CFED
:100A800067E072E00E944804E881F9818389F6CF2B
:100A90000E94370461E8CE010E949C04602FCE01C1
:100AA0000E949304CE010E942E045FCF41E06DE4CA
:100AB0000C942704DC01ED91FC9145856DE20C94CA
:100AC0002704CF93DF93EC0141E06CE40E942704FC
:100AD000CE01DF91CF910C945A05CF93DF93EC01B7
:100AE000662379F00E945605CE010E945A05CE0178
:100AF0000E94610540E06CE4CE01DF91CF910C943F
:100B0000270440E06DE40E942704EECF1F93CF93AB
:100B1000DF93EC01162F60780E946D05612F6074E1
:100B2000CE010E946D05612F6072CE010E946D059D
:100B3000612F6071CE010E946D05612F6870CE013A
:100B40000E946D05612F6470CE010E946D05612FBA
:100B50006270CE010E946D05612F6170CE010E940E
:100B60006D05CE010E945605CE010E945A05CE01A8
:100B70000E946105CE010E945605CE010E945A05D1
:100B800040E06CE4CE01DF91CF911F910C942704DB
:100B9000DC011896ED91FC9130E020E040E069E145
:100BA0000994DC011896ED91FC9130E020E040E0E2
:100BB00068E10994CF93DF931F92CDB7DEB76983C5
:100BC000BE016F5F7F4F0E949C020F90DF91CF911B
:100BD0000895EF92FF921F93CF93DF93EC01162FAE
:100BE0007A010E94D10560E4CE010E94DA05E88511
:100BF000F9859701412F67E1CE010995CE01DF917B
:100C0000CF911F91FF90EF900C94C805EF92FF9247
:100C10001F93CF93DF93EC01142F7901663181F19B
:100C200038F4643109F44BC0653179F080E022C0BA
:100C30006831C9F150F16931C9F78091D402882334
:100C400091F1CE010E94C8052EC08091D402882364
:100C500019F0CE010E94C805CE010E94D10560E0C6
:100C6000CE010E94DA05612FCE010E94DA0581E0F3
:100C70008093D402DF91CF911F91FF90EF90089560
:100C8000642F0E94DA0581E0F5CF8091D402882399
:100C900019F0CE010E94C805A701193138F4612F5F
:100CA000CE010E94E9051092D402EDCF68E1CE0199
:100CB0000E94E905185188E1E80EF11CEDCF8E89FC
:100CC0008F3F11F488E78E8BE885F9859701412FD6
:100CD00064E1CE01DF91CF911F91FF90EF900994D5
:100CE000CF93DF93EC01A889B989FD013491319646
:100CF0009491319684911396FD01A4916317A8F104
:100D0000961798F1631B770B8A9FE02D1124E69FBD
:100D1000C001E79F900D1124280F392F311D83E06A
:100D2000220F331F8A95E1F7C9010496DA01245F87
:100D30003F4FE889F989E80FF91FE491ED93019697
:100D400082179307B1F78D89882361F0FA019A0120
:100D5000285F3F4F8191DF01119780958C932E176B
:100D60003F07C1F7DF91CF910895FA01CA010896B4
:100D70001192E817F907E1F7E6CFEF92FF921F9380
:100D8000CF93DF93EC01142F7901683151F130F4E6
:100D90006431D1F06731A9F080E006C0693109F40F
:100DA00043C06032C9F781E0DF91CF911F91FF907E
:100DB000EF900895F70161917F01CE010E948605B1
:100DC00011501111F7CFEFCF41E06CE40E942704DE
:100DD00041E06DE4CE010E942704CE010E945A0535
:100DE000E2CF8F89882349F0CE010E945605CE01BB
:100DF0000E945A05CE010E946105CE010E9456054F
:100E000040E06DE4CE010E942704CE010E945A0505
:100E100040E06CE4CE010E94270481E08F8B6E8954
:100E2000CE010E948605BFCF40E06DE40E942704FA
:100E3000CE010E945A05CE010E946105CE010E949A
:100E40005605CE010E945A051F8AADCF0F931F93FE
:100E5000CF93DF938C01C62F642FCC32E8F4CA32D3
:100E600008F041C0C83271F1C93209F442C080E0D3
:100E7000C034D0F1CF73F801EC0FF11D868D8F3F98
:100E800091F1C031E0F00E94E20221E0892B09F4E7
:100E900020E0F801218F27C0CD3289F140F384EBA7
:100EA0008C0F823020F7CF73C00FD12FD11D8E8DC4
:100EB000411135C061E00E94390360E08E8D0E94CF
:100EC0000B0311C0025E1F4FD0E0F80181918F012A
:100ED0008F3F31F061E0D03108F062E00E943903C9
:100EE000DF5FD63191F781E0DF91CF911F910F91B4
:100EF000089570E090E080E00E94A803F4CF25E020
:100F000030E0433010F022E030E046E0429FC00184
:100F1000439F900D112405970197F1F7E4CF62E00C
:100F20000E943903E0CF2F923F924F925F926F92CF
:100F30007F928F929F92AF92BF92CF92DF92EF9269
:100F4000FF920F931F93CF93DF93CDB7DEB72D970B
:100F50000FB6F894DEBF0FBECDBFDC015496ED9105
:100F6000FC915597D996DC90D997CF0103966A30BA
:100F700019F5FC018491D80ED996DC92D997D896B0
:100F80001C9281E090E02D960FB6F894DEBF0FBE64
:100F9000CDBFDF91CF911F910F91FF90EF90DF9028
:100FA000CF90BF90AF909F908F907F906F905F9009
:100FB0004F903F902F90089532962490D8965C9051
:100FC000D8975D0124E0A20EB11CF490FC01E490DE
:100FD000352C3F0CED0C81E0850D381610F4FF2404
:100FE000F394C62E8D01612CCE0101964C01462C46
:100FF000752C242DA4016C2DC5010E9470067C86E1
:10100000DD8691E09B879A868986D8011896ED91B6
:10101000FC919E01275F3F4F41E06FE0C5010995BC
:1010200043947394731428F3D3946F0CDE14F8F282
:10103000F80180AD820D80AFA4CFCF93DF9390E015
:10104000E62FF0E0EE0FFF1FE850FE4F25913491A0
:10105000880F991FFC01EB5EFE4F31832083EC016A
:10106000C35FDE4F19821882A081B18160817181D6
:1010700048815981835E9E4FFC01C081D181E091FE
:101080000C01F0E086E0769567958A95E1F796E0A9
:10109000569547959A95E1F7649F9001659F300DAD
:1010A000749F300D1124220F232F221F330B3195F3
:1010B0002C9FC0012D9F900D3C9F900D11248A0FF5
:1010C0009B1FEE0FFF1FEC5FFE4F91838083DF912C
:1010D000CF910895EAE7F0E087E0808380E680938F
:1010E0007C008FE180937E00ABE7B0E08C918C9325
:1010F0008081886A80838081806480830895CF9214
:10110000DF92EF92FF920F931F93CF93DF936C01C7
:10111000EB017B01E40EF51E10E000E0CE15DF05CB
:1011200061F06991D601ED91FC910190F081E02D83
:10113000C6010995080F191FF1CFC801DF91CF91A2
:101140001F910F91FF90EF90DF90CF900895089539
:1011500090E080E008951F920F920FB60F92112435
:101160002F933F938F939F93AF93BF938091560399
:1011700090915703A0915803B091590330914003C7
:1011800020E4230F2D3728F023EC230F0196A11D17
:10119000B11D209340038093560390935703A0936F
:1011A0005803B09359038091410390914203A09159
:1011B0004303B09144030196A11DB11D80934103E7
:1011C00090934203A0934303B0934403BF91AF9124
:1011D0009F918F913F912F910F900FBE0F901F9075
:1011E00018951F920F920FB60F9211242F933F93D1
:1011F0004F935F936F937F938F939F93AF93BF931F
:10120000EF93FF938091B900887F803609F44AC03C
:10121000F0F5883209F4A5C018F5803109F499C0B9
:10122000B8F4882309F4F0C0883009F492C0FF9123
:10123000EF91BF91AF919F918F917F916F915F914E
:101240004F913F912F910F900FBE0F901F901895C7
:10125000883109F486C0803251F78093190314C095
:10126000803409F49BC040F48033B9F38833F9F635
:101270008093190385ECAEC0803509F483C08835AE
:1012800009F494C0883499F60E94DB03D0CF8839E2
:1012900009F48AC038F5883729F050F4883611F0FF
:1012A000803729F683E080931A031092180355C003
:1012B000883809F479C0803919F0803809F0B7CF3F
:1012C00080911803803208F06FC0E091180381E02C
:1012D0008E0F809318038091BB00F0E0E850FD4F23
:1012E00080833BC0803B39F0D0F4803A09F477C06A
:1012F000883A09F09CCF84E080931A031092F70299
:101300001092F602F0E0E0E009958091F60281117A
:101310000FC081E08093F6021092D60209C0803C93
:1013200009F4A8CF883C09F4A5CF883B09F07FCF0A
:10133000E091F70281E08E0F8093F702F0E0EA522D
:10134000FD4F80818093BB009091F7028091F6025F
:1013500029C080913F038093BB0085EC8093BC0043
:1013600066CF90913E0380913D03981758F5E09128
:101370003E0381E08E0F80933E03F0E0E35EFC4F7E
:101380008081E9CFE0913E0381E08E0F80933E03A0
:101390008091BB00F0E0E35EFC4F808390913E03C0
:1013A00080913D039817C8F285E8D8CFE0913E03BD
:1013B00081E08E0F80933E038091BB00F0E0E35EFE
:1013C000FC4F808380911C0381115ECF81E080936C
:1013D0001B0384EA8093BC0010921A0328CF8091EB
:1013E0001803803230F4E0911803F0E0E850FD4F2C
:1013F00010826091180370E088EF92E0F0E0E0E086
:1014000009951092180336CF109219033DCF1F9201
:101410000F920FB60F9211240F931F932F933F93A8
:101420004F935F936F937F938F939F93AF93BF93EC
:10143000EF93FF9380910C018F5F80930C0180915B
:101440000C01837080930C01811103C081E08093B3
:10145000D302E0910C01F0E0EE0FFF1FE35FFE4FBF
:10146000818187FD25C180910C01E0910C01F0E0A4
:10147000EE0FFF1FE35BFC4F20813181A0910C0137
:10148000B0E0AA0FBB1FAB5DBE4F6D917C91A091E8
:101490000C01B0E0AA0FBB1FA35FBE4F4D915C9142
:1014A0001197460F571F11965C934E931196EC912E
:1014B000E20FF32FF11DE491A82FB0E0A050BF4F31
:1014C000EC93009145031091460320910401309163
:1014D00005018091CB029091CC02820F931F9093D3
:1014E000CC028093CB02E091CC02E00FF12FF11DF2
:1014F000049120910001609147037091480340914D
:101500000601509107018091CD029091CE02840F87
:10151000951F9093CE028093CD02E091CE02E60F0C
:10152000F72FF11D74916091010180914903909111
:101530004A03E0910801F09109014091CF025091D6
:10154000D0024E0F5F1F5093D0024093CF02E09124
:10155000D002E80FF92FF11D1491509102018091F2
:101560004B0390914C03E0910A01F0910B01A09183
:10157000D102B091D202AE0FBF1FB093D202A0939E
:10158000D102E091D202E80FF92FF11D4491309180
:1015900003010203F0011124EF2FFF0FFF0B76036D
:1015A000B0011124672F770F770BE60FF71F150394
:1015B000C0011124892F990F990BE80FF91F4303DC
:1015C000C0011124892F990F990BE80FF91FF59588
:1015D000E795F595E795E158E093B400E093B30003
:1015E000E0910C01F0E0EE0FFF1FEB5EFE4F8081FB
:1015F0009181E0910C01F0E0EE0FFF1FEB5EFE4FDA
:1016000060817181E0910C01F0E0EE0FFF1FE35F5C
:10161000FE4F20813181E0910C01F0E0EE0FFF1FC1
:10162000E35EFE4FA081B181E0910C01F0E016E095
:10163000769567951A95E1F706E0369527950A9510
:10164000E1F7629FA001639F500D729F500D11241E
:10165000440F452F441F550B51954A9F90014B9FB6
:10166000300D5A9F300D1124820F931FEE0FFF1F74
:10167000EC5FFE4F918380838091C9029091CA02F2
:1016800001969093CA028093C902FF91EF91BF9196
:10169000AF919F918F917F916F915F914F913F910A
:1016A0002F911F910F910F900FBE0F901F901895C3
:1016B000E0910C01F0E0E050FF4F108202CF1F924A
:1016C0000F920FB60F9211240F931F932F933F93F6
:1016D0004F935F936F937F938F939F93AF93BF933A
:1016E000CF93DF93EF93FF938091C7029091C8024D
:1016F000019684369105C8F49093C8028093C7027E
:10170000FF91EF91DF91CF91BF91AF919F918F9119
:101710007F916F915F914F913F912F911F910F9109
:101720000F900FBE0F901F9018951092C802109244
:10173000C7022091C10235EF3203C00111246CEFC2
:1017400070E00E94EB112BE0260F8091C402D09133
:10175000C002F091C3024091C2028091C50290E0A4
:101760000CED1FEFB8010E94EB11C7E0C60FE0912E
:10177000C60230E030939A032093990330939C0380
:1017800020939B038D2F90E0B8010E94EB11695FBD
:1017900070E070939E0360939D038F2F90E0B801DB
:1017A0000E94EB11685F70E07093A00360939F0349
:1017B000242F30E0220F331F3093A2032093A10384
:1017C0008E2F90E06FE370E00E94EB117093A803FE
:1017D0006093A703EC2FF0E0EE0FFF1FE950FE4FE0
:1017E000808191819093A6038093A503C093A90360
:1017F0000E946A0885CF1F920F920FB60F92112494
:10180000FF920F931F932F933F934F935F936F9389
:101810007F938F939F93AF93BF93CF93DF93EF9378
:10182000FF9380917C008F7090917C009F5F9093DC
:101830007C002091780030917900E82FF0E0E054AE
:10184000FD4F30838630E1F480917A008F7780936A
:101850007A000CE612E0D0E0C0E0FF24F394F80137
:1018600081918F010E94E2022196892B31F4F0923E
:101870005A03D0932E01C0932D01C730D10579F7BB
:10188000FF91EF91DF91CF91BF91AF919F918F9198
:101890007F916F915F914F913F912F911F910F9188
:1018A000FF900F900FBE0F901F901895CF9382E07E
:1018B00090E090939A038093990385E090E0909351
:1018C0009C0380939B038EEF9FEF90939E038093E6
:1018D0009D0386E090E09093A00380939F0388ECA3
:1018E00090E09093A2038093A1031092A40310921E
:1018F000A3038FE792E09093A6038093A503109231
:10190000620310926103109297031092980387E785
:1019100092E09093600380935F03109264031092AF
:1019200063031092780310927B0310926F0310925E
:10193000700310927103109272038FEF80937903FA
:1019400080937D03E1E8F3E087E993E0CFEFC19373
:101950008E179F07E1F785EA94E0909368038093E0
:10196000670386E096E090936A03809369038DEBAA
:1019700096E090936C0380936B0386E297E09093DC
:101980006E0380936D0330E020E040E069E083E681
:1019900093E00E94A50482E080938D0384E080930D
:1019A0008E03C0938C03CF910895CF93DF93CDB76F
:1019B000DEB7A8970FB6F894DEBF0FBECDBF8091FB
:1019C000F20080618EBB80E88093F2009EB390931A
:1019D000F2008093610091E0909361008093610038
:1019E00010926100789484B5826084BD84B5816072
:1019F00084BD85B5826085BD85B5816085BD8091DA
:101A00006E00816080936E00109281008091810051
:101A10008260809381008091810081608093810049
:101A2000809180008160809380008091B10084600B
:101A30008093B1008091B00081608093B00080916C
:101A400091008260809391008091910081608093E9
:101A500091008091900081608093900080917A0045
:101A6000846080937A0080917A00826080937A000B
:101A700080917A00816080937A0080917A008068FA
:101A800080937A001092C10061E085E00E943903E2
:101A90000CE612E083E7E82E82E0F82E62E0D8013F
:101AA0008D918D010E943903E016F106B9F761E0CE
:101AB00084E00E94390361E082E00E94390360E023
:101AC00084E00E940B0360E082E00E940B030E940E
:101AD0006A081092800089E0809381001092820051
:101AE00080E293E0909389008093880080916F005A
:101AF000826080936F00789483E08093550383E243
:101B00008093B00081E08093B1008FE78093B400B0
:101B10008093B300539A28EF30E03093460320932C
:101B20004503E4E3F2E0859194919093160180934C
:101B3000150188EF92E090934E0380934D03EAE104
:101B4000F4E0459154915093260140932501109261
:101B50001E0110921D013093480320934703E6E3D2
:101B6000F2E025913491309318012093170190935E
:101B7000500380934F03E2E4F4E0859194919093B5
:101B80002801809327011092200110921F01E091FB
:101B90006703F091680330E020E040E06AE083E60C
:101BA00093E009958E010F5F1F4F88E0F8011192B5
:101BB0008A95E9F7C8010E946A02E0916703F091F3
:101BC000680330E020E040E06BE083E693E00995B5
:101BD000E0916703F091680330E020E040E06BE0C3
:101BE00083E693E009958FEA87BD80916E0082605D
:101BF00080936E00BCE04B2E512C2FB7F89480914F
:101C0000560390915703A0915803B09159032FBFE9
:101C100040915B0350915C0360915D0370915E03A2
:101C20006C017D01C41AD50AE60AF70AB701A601BC
:101C3000413951406105710540F080935B039093F9
:101C40005C03A0935D03B0935E0380915A038823E5
:101C500009F4BCC180912D0190912E01019788302B
:101C6000910520F49093A4038093A30310925A0348
:101C700061E085E00E940B038EE1D8011D928A95F8
:101C8000E9F7E091A303F091A403EE0FFF1FEE0F1D
:101C9000FF1F8091A5039091A603E80FF91F809183
:101CA000990390919A0320813181820F931F8C3088
:101CB000910554F020919B0330919C032F5F3F4F7F
:101CC00030939C0320939B03B2010E94EB119C0173
:101CD00080919B0390919C0301968A30910508F0B6
:101CE00084C0BCE0B89FA001B99F500D11246A01C7
:101CF000C20ED31EDEA2CDA28281938181309105D6
:101D000009F478C008F488C08230910509F479C0DC
:101D1000039709F47AC038A32F8FF901E20DF31D60
:101D2000CF01B2010E94EB119AA389A38824839466
:101D3000912C3C9714F4912C812C260D371DC90150
:101D4000B2010E94EB119CA38BA3AA24A394B12CF3
:101D50002C30310514F4B12CA12C2091A703309123
:101D6000A8032115310539F0C9010297F12CE12CA6
:101D7000029708F05EC0E0909F03F090A003E0910E
:101D80009D03F0919E03F8A7EFA36801F0E0E0E067
:101D9000EE15FF0509F44DC0CF0163E070E00E942D
:101DA000EB1181309105E1F5680D791D4FA158A522
:101DB000640F751F880F991FD801A80FB91F5E9671
:101DC0008D919C916F5F7F4F6A30710578F5ACE023
:101DD000A69FA001A79F500D1124840F951FD60127
:101DE0008D939D936D013196D3CF4FEF5FEF5EA33F
:101DF0004DA382CFE7E06E2E712C63E0262E312CAE
:101E00008ACF76E0672E712CF8CF58E0652E712CC2
:101E100094E0292E312C7FCF47E0642E712CF8CF2F
:101E20008230910519F66A0D7B1DC0CF8FEF9FEFB1
:101E3000D6CFC9010197029708F043C020919F03B4
:101E40003091A00321503109C0909D03D0909E0392
:101E5000F701EE0FFF1FE00FF11F37FD69C0C90149
:101E600063E070E00E94EB118130910509F5680D87
:101E7000791D6C0D7D1D880F991FD801A80FB91F02
:101E80005E968D919C916F5F7F4F6A307105B0F4C3
:101E9000BCE0B69FA001B79F500D1124840F951F81
:101EA000819391934FEFE41AF40A21503109D5CF71
:101EB00082309105F1F66A0D7B1DDBCF8FEF9FEF2E
:101EC000EFCF23303105A1F552E0E516F10480F1A2
:101ED0005801D12CC12C470161E0861A9108C81421
:101EE000D90430F50E943A109C01B7016C197D09A4
:101EF0008FEF9FE70E94D7116F5F7F4FC9010E944C
:101F0000D711FB01EC0DFD1DEE0FFF1FE00FF11FC0
:101F100080819181D5012D913D915D013183208397
:101F2000FD01329791838083BFEFCB1ADB0AD7CFB5
:101F3000E091A103EE9DE02D1124F0E0EE0FFF1FD4
:101F4000E658FC4F8591949190932601809325014A
:101F50006DA180E00E941D085801D12CC12CCE1427
:101F6000DF0481F16091A1037091A20390E080E011
:101F70000E94DC1023E333E343E35FE30E9442115A
:101F80000E94AD10E62FF0E0EE0FFF1FE658FC4F69
:101F9000859194919093280180932701F5016081A8
:101FA000F2E0AF0EB11C81E00E941D086091A10318
:101FB0007091A20390E080E00E94A8032FEFC21A64
:101FC000D20ACDCF60E085E00E940B0380E090E074
:101FD000892B09F412CE0E9400000FCE8F929F929F
:101FE000AF92BF92CF92DF92EF92FF92CF93DF93A7
:101FF000EC01688179818A819B8161157105810578
:10200000910521F464E279ED8BE597E02DE133EF62
:1020100041E050E00E944A1049015A019B01AC0185
:10202000A7EAB1E40E9469106B017C01ACEEB4EF49
:10203000A50194010E947710DC01CB018C0D9D1D40
:10204000AE1DBF1DB7FF03C00197A109B04888832B
:102050009983AA83BB839F77DF91CF91FF90EF9005
:10206000DF90CF90BF90AF909F908F9008950E9487
:10207000EE0F08958FE291E00E94EE0F0895B0E018
:10208000A0E080932F0190933001A0933101B09391
:1020900032010895052E97FB1EF400940E946110F2
:1020A00057FD07D00E947C1007FC03D04EF40C941F
:1020B000611050954095309521953F4F4F4F5F4FA0
:1020C000089590958095709561957F4F8F4F9F4FA4
:1020D00008950E949E10A59F900DB49F900DA49FFF
:1020E000800D911D11240895B7FF0C9469100E9472
:1020F0006910821B930B0895A1E21A2EAA1BBB1B29
:10210000FD010DC0AA1FBB1FEE1FFF1FA217B307C3
:10211000E407F50720F0A21BB30BE40BF50B661FD9
:10212000771F881F991F1A9469F76095709580959D
:1021300090959B01AC01BD01CF010895A29FB00114
:10214000B39FC001A39F700D811D1124911DB29FEB
:10215000700D811D1124911D08950E94211188F098
:102160009F5798F0B92F9927B751B0F0E1F0660F5B
:10217000771F881F991F1AF0BA95C9F714C0B1309C
:1021800091F00E943B11B1E008950C943B11672F30
:10219000782F8827B85F39F0B93FCCF386957795CB
:1021A0006795B395D9F73EF49095809570956195B4
:1021B0007F4F8F4F9F4F0895E89409C097FB3EF4DF
:1021C00090958095709561957F4F8F4F9F4F992384
:1021D000A9F0F92F96E9BB279395F6958795779502
:1021E0006795B795F111F8CFFAF4BB0F11F460FFC2
:1021F0001BC06F5F7F4F8F4F9F4F16C0882311F01A
:1022000096E911C0772321F09EE8872F762F05C02D
:10221000662371F096E8862F70E060E02AF09A95C8
:10222000660F771F881FDAF7880F9695879597F9BD
:10223000089557FD9058440F551F59F05F3F71F0B6
:102240004795880F97FB991F61F09F3F79F087951D
:102250000895121613061406551FF2CF4695F1DFA6
:1022600008C0161617061806991FF1CF8695710536
:10227000610508940895E894BB2766277727CB016A
:1022800097F908950E9455110C94C6110E94B81137
:1022900038F00E94BF1120F0952311F00C94AF117B
:1022A0000C94B51111240C943C110E94191170F377
:1022B000959FC1F3950F50E0551F629FF001729FEB
:1022C000BB27F00DB11D639FAA27F00DB11DAA1FFA
:1022D000649F6627B00DA11D661F829F2227B00D47
:1022E000A11D621F739FB00DA11D621F839FA00DD2
:1022F000611D221F749F3327A00D611D231F849F22
:10230000600D211D822F762F6A2F11249F57504078
:102310009AF0F1F088234AF0EE0FFF1FBB1F661FF3
:10232000771F881F91505040A9F79E3F510580F0BC
:102330000C94AF110C943C115F3FE4F3983ED4F33E
:10234000869577956795B795F795E7959F5FC1F760
:10235000FE2B880F911D9695879597F9089597F90B
:102360009F6780E870E060E008959FEF80EC08953B
:1023700000240A9416161706180609060895002464
:102380000A9412161306140605060895092E0394DE
:10239000000C11F4882352F0BB0F40F4BF2B11F452
:1023A00060FF04C06F5F7F4F8F4F9F4F0895AA1B40
:1023B000BB1B51E107C0AA1FBB1FA617B70710F030
:1023C000A61BB70B881F991F5A95A9F78095909562
:1023D000BC01CD01089597FB072E16F4009407D099
:1023E00077FD09D00E94D71107FC05D03EF49095E7
:1023F00081959F4F0895709561957F4F0895EE0FD9
:0E240000FF1F0590F491E02D0994F894FFCF92
:10240E00FFFFFFFFE803C8002C01900104008000CD
:10241E008000800080F401F401F401F40114000046
:10242E000040007F000A000A000A000A00010001B5
:10243E000000000000020001000000030001000582
:10244E0000010006000000080000000A0001000064
:10245E000001000200020003000300050001000756
:10246E00000000080000000B000200000001000246
:10247E000002000300000005000100070001000833
:10248E000000000A0000000000000002000100042D
:10249E000002000500000007000100090001000A0B
:1024AE000000000000000002000000040001000611
:1024BE0000020007000000090001000B00010000EF
:1024CE0000010001000000030000000500010007EC
:1024DE00000200080000000A0001000000010002D6
:1024EE0000010003000000050000000700010009C4
:1024FE000002000A0000007F02DB01BF01A301877A
:10250E00016B014F0133011815A015C019FF1815E5
:10251E00A115C819FF1815AE19FF1815AF19FF1818
:10252E0015AE15D5168015A8161F15D31600154015
:10253E00158D16141520160015A115C815DA1602DC
:10254E001581168F15D916F115DB1640152E15A40B
:10255E0015A619FF0001140A6464323200127A00C3
:10256E0000042896100400008000200006070809C9
:10257E000A0B0C0000000093077F08A808A70800AC
:10258E000000000200010004000100050000000729
:0C259E00000000090001000B000200001A
:00000001FF
