:100000000C946F020C9497020C9497020C94970234
:100010000C9497020C9497020C9497020C949702FC
:100020000C9497020C9497020C9497020C94DF0C9A
:100030000C9497020C942A0C0C9497020C9497023F
:100040000C94CE0A0C9497020C949C0A0C94760A99
:100050000C9497020C94510C0C9497020C949702F8
:100060000C94140B0C94970200000000240027004D
:100070002A002D00330000000000250028002B007E
:100080002E003400000000002300260029002C0070
:100090003200040404040404040402020202020202
:1000A0000303030303030505020306050502030515
:1000B00005050506060606060606010204081020C8
:1000C00040800102040810200102040810200208E8
:1000D000408001408080400104102002040810206C
:1000E00040800000000850020100000304070000E7
:1000F00000000000000000004D696E6F722A202091
:100100002020202020006C6F637269616E20202007
:10011000002D2D2D202020202020202020200068B0
:1001200061726D6F6E69632020004E61747572613B
:100130006C204D696E6F720061656F6C69616E2035
:100140002020004D616A6F72202020202020202076
:10015000006D69786F6C796469616E004D616A6FDA
:10016000722020202020202020006C796469616E9C
:1001700020202020004D696E6F722020202020203A
:10018000202000706872796769616E2020004D69D7
:100190006E6F72202020202020202000646F726962
:1001A000616E20202020004E61747572616C204DBC
:1001B000616A6F7200696F6E69616E202020200095
:1001C0004D6F64653A2000417270656767696174BC
:1001D0006F72203630303000207F010100000000B7
:1001E000000000000000005F0000000000030000AD
:1001F0000003000000227F22227F220000242A6BBD
:100200002A120000422512082452210000205649DB
:1002100049552250000000000300000000001C228D
:100220004100000000000041221C000000000A0400
:100230001F040A000008083E0808000000000040F3
:10024000300000000008080808080800000000400E
:10025000000000004020100804020100003E41415F
:10026000413E00000040427F404000000062514992
:10027000494600000022414949360000001C121185
:100280007F1000000027454545390000003E4949E0
:100290004932000000010179050300000036494998
:1002A0004936000000264949493E0000000000127E
:1002B00000000000000000201200000000000814F0
:1002C0002241000000141414141414000000004112
:1002D0002214080000020159090600003C4299A5B9
:1002E000A5B9221C60181611161860007F494949EB
:1002F000494936003E414141414122007F4141414F
:1003000041413E007F494949494141007F0909096E
:10031000090101003E41414149493A007F0808086E
:1003200008087F000041417F4141000020404040DB
:1003300040403F007F080808142241007F404040B1
:10034000404040007F02040804027F007F0204084E
:1003500010207F003E41414141413E007F1111117B
:1003600011110E003E4141416141BE007F09090962
:100370000919660026494949494932000101017FAE
:10038000010101003F40404040403F000F1020402D
:1003900020100F001F60201C20601F004122140845
:1003A000142241000304087008040300416151490C
:1003B0004543410000007F41410000000102040864
:1003C0001020400000000041417F000000040201B5
:1003D0000204000080808080808080800000000116
:1003E000020000000020545454547800007F44441C
:1003F000444438000038444444442800003844440D
:1004000044447F0000385454545448000000047E93
:10041000050100000018A4A4A4A47C00007F04042B
:10042000040478000000447D40000000004080800B
:10043000847D0000007F1010102844000000017F20
:10044000000000007C04047C04047800007C0404A8
:1004500004047800003844444444380000FC444418
:1004600044443800003844444444FC00007C080400
:100470000404040000485454545424000000043F71
:1004800044400000003C404040407C00001C2040B4
:1004900040201C00003C40403840403C00442810B4
:1004A00028440000001CA0A0A0A07C0000446454CC
:1004B0004C4400000000083641000000000000FF2E
:1004C0000000000000000041360800000804040895
:1004D000101008000000000000000000370E11247A
:1004E0001FBECFEFD8E0DEBFCDBF12E0A0E0B1E08D
:1004F000EEE4FFE202C005900D92A23BB107D9F7EE
:1005000025E0A2EBB2E001C01D92A533B207E1F7EE
:1005100012E0CFE6D2E004C02197FE010E94C7148A
:10052000CE36D107C9F70E94A20F0C94A5170C94E0
:10053000000080E008951F93CF93DF9300D000D098
:100540001F92CDB7DEB71C8221E02B839A8389836B
:10055000E091DF04F091E00411891D82A091DF0495
:10056000B091E004E091E304F091E4049E012F5F78
:100570003F4F50964C916FE08FED94E009958D813F
:100580008F5F8D83811750F30F900F900F900F9016
:100590000F90DF91CF911F9108959B01DC01189678
:1005A000ED91FC9141E067E10994662329F06A30FE
:1005B00019F0862F90E008958FEF9FEF0895AF9286
:1005C000BF92CF92DF92EF92FF920F931F93CF9340
:1005D000DF936C017B018B01040F151FEB015E01A2
:1005E000AE18BF08C017D10759F06991D601ED9137
:1005F000FC910190F081E02DC6010995892B79F7D6
:10060000C501DF91CF911F910F91FF90EF90DF9087
:10061000CF90BF90AF900895FC01538D448D252F4E
:1006200030E0842F90E0821B930B541710F0CF968C
:10063000089501970895FC01918D828D981761F0BE
:10064000A28DAE0FBF2FB11D5D968C91928D9F5FD5
:100650009F73928F90E008958FEF9FEF0895FC01B4
:10066000918D828D981731F0828DE80FF11D858D67
:1006700090E008958FEF9FEF0895FC01918D228DFA
:10068000892F90E0805C9F4F821B91098F7399277F
:1006900008958CE394E00E943D0321E0892B09F446
:1006A00020E0822F089580E090E0892B29F00E94BD
:1006B000490381110C9400000895FC01A48DA80F3A
:1006C000B92FB11DA35ABF4F2C91848D90E0019694
:1006D0008F739927848FA689B7892C93A089B189B4
:1006E0008C9180648C93938D848D981306C00288BE
:1006F000F389E02D80818F7D80830895EF92FF92B2
:100700000F931F93CF93DF93EC0181E0888F9B8D34
:100710008C8D981316C0E889F989808185FF11C0F6
:10072000EE89FF896083E889F9898081806480830C
:1007300081E090E0DF91CF911F910F91FF90EF90BA
:100740000895F62E0B8D10E00F5F1F4F0F731127CA
:10075000E02E8C8D8E110CC00FB607FCFACFE88905
:10076000F989808185FFF5CFCE010E945D03F1CF2D
:10077000EB8DEC0FFD2FF11DE35AFF4FF0820B8F35
:10078000EA89FB8980818062D2CFCF93DF93EC012D
:10079000888D8823B9F0AA89BB89E889F9898C9169
:1007A00085FD03C0808186FD0DC00FB607FCF7CF25
:1007B0008C9185FFF2CF808185FFEDCFCE010E9425
:1007C0005D03E9CFDF91CF91089581508B3088F59B
:1007D000E82FF0E0E251FC4F0C94C7140304070427
:1007E000F903FF03190419040A04100414041A0479
:1007F0001E04809180008F778093800008958091FF
:1008000080008F7DF9CF84B58F7784BD089584B53E
:100810008F7DFBCF8091B0008F778093B0000895DB
:100820008091B0008F7DF9CF809190008F77809379
:1008300090000895809190008F7DF9CF8091900075
:10084000877FF5CFCF93DF93282F30E0F901EE516A
:10085000FF4F8491F901E654FF4FD491F901EE5610
:10086000FF4FC491CC23A1F081110E94E503EC2F2E
:10087000F0E0EE0FFF1FEC57FF4FA591B491EC9104
:10088000ED2381E090E009F480E0DF91CF910895BD
:1008900080E090E0FACF1F93CF93DF93282F30E0D2
:1008A000F901EE51FF4F8491F901E654FF4FD491C5
:1008B000F901EE56FF4FC491CC23A9F0162F8111F8
:1008C0000E94E503EC2FF0E0EE0FFF1FEA58FF4F08
:1008D000A591B4918FB7F894EC91111108C0D095FF
:1008E000DE23DC938FBFDF91CF911F910895DE2B24
:1008F000F8CFCF93DF93282F30E0F901E654FF4F74
:1009000044912E563F4FF9012491843019F583E02C
:100910008093A0002223D9F0822F90E0880F991FA6
:10092000FC01E859FF4FA591B491FC01EA58FF4F33
:10093000C591D491623019F59FB7F8942C91842F0A
:10094000809582238C93E8814E2B48839FBFDF9153
:10095000CF91089593EE980F923020F48FEF84BFDB
:1009600084BFD8CF8931B1F68091F00082608EBB10
:1009700080E88093F0008EB38093F000CBCF8FB7E8
:10098000F894EC914E2B4C938FBFE1CF3FB7F89486
:100990008091610390916203A0916303B09164031D
:1009A00026B5A89B05C02F3F19F00196A11DB11DCA
:1009B0003FBFBA2FA92F982F8827BC01CD01620F06
:1009C000711D811D911D660F771F881F991F089546
:1009D0008F929F92AF92BF92CF92DF92EF92FF924F
:1009E0006B017C010E94C6044B015C01C114D1045F
:1009F000E104F104B9F00E94C604681979098A0972
:100A00009B09683E73408105910580F321E0C21A7D
:100A1000D108E108F10888EE880E83E0981EA11C39
:100A2000B11CE4CFFF90EF90DF90CF90BF90AF90DC
:100A30009F908F90089585ED8093BC008091BC00BD
:100A400084FDFCCF10923A030895613298F420910E
:100A50003A03243089F460931603282FA6EFB2E0FE
:100A6000FC018E2F821B861710F080E00895819183
:100A70008D93F7CF81E0089582E0089508958FEF78
:100A80009FEF08958FEF9FEF08958091F50290E01A
:100A90009195819591090895CF93DF93CB01EA0158
:100AA000642F0E942505CE01DF91CF910895CF9349
:100AB000DF931F92CDB7DEB7698361E0CE01019667
:100AC0000E94250581E090E00F90DF91CF9108957D
:100AD000DC011A96ED91FC9130E020E00994DC01F4
:100AE0001696ED91FC9130E020E040E069E1099438
:100AF000DC011696ED91FC9130E020E040E068E1E9
:100B000009949A01DC011696ED91FC91462F67E15C
:100B10000994EF92FF920F931F93CF93DF931F924D
:100B2000CDB7DEB77C018B01D8016C91673129F11B
:100B300050F46531A0F40F90DF91CF911F910F9188
:100B4000FF90EF9008956A3118F16E3FA1F7F80118
:100B50004181498369E2C7010E9468050BC0F80121
:100B600041814983D7011696ED91FC9130E020E058
:100B7000C70109950E5F1F4FD7CFF8018181898387
:100B8000AE014F5F5F4F61E0C7010E948105F2CF68
:100B90000F5F1F4FD7011696ED91FC9130E020E0DA
:100BA00040E0C7010995C0CF462FDC011696ED91B4
:100BB000FC9130E020E066E10994462FDC011696B6
:100BC000ED91FC9130E020E065E10994EF92FF9215
:100BD0000F931F93CF93DF93EC01042F79016930BA
:100BE00069F480E692E0998388831C8A81E0DF9132
:100BF000CF911F910F91FF90EF9008956D3009F400
:100C000075C038F46A3091F16B3009F468C080E047
:100C1000EECF6E3009F47DC06F30C9F70E947805C1
:100C2000F7011381110F110F110F6C89160F612F2E
:100C300062956F706061CE010E94DD05612F6F705B
:100C4000CE010E94DD05F7016481606BCE010E9438
:100C5000DD05F701408151816281660F660F660FE5
:100C6000CE010E9481050150A1F75DC0EA85FB8598
:100C700030E020E040E068E20995EE81FF8130E05D
:100C800020E040E064E1CE01099541E06BE4CE0153
:100C90000E946805E881F981448169E2CE010E94E1
:100CA000680540E06BE4CE010E946805E881F981A7
:100CB000448169E2CE010E94680541E06BE4CE0107
:100CC0000E946805E881F981458169E2CE010E94B0
:100CD00068056BE272E0CE010E94890587CF66E26B
:100CE00072E04423C1F361E272E0F5CF411109C023
:100CF0006AE172E00E948905E881F98182898C8B22
:100D000075CF63E172E00E948905E881F9818389EA
:100D1000F6CF0E94780561E8CE010E94DD05602FC4
:100D2000CE010E94D405CE010E946F055FCF41E045
:100D30006DE40C946805DC01ED91FC9145856DE254
:100D40000C946805CF93DF93EC0141E06CE40E94C2
:100D50006805CE01DF91CF910C949B06CF93DF9372
:100D6000EC01662379F00E949706CE010E949B0653
:100D7000CE010E94A20640E06CE4CE01DF91CF914B
:100D80000C94680540E06DE40E946805EECF1F9367
:100D9000CF93DF93EC01162F60780E94AE06612F8F
:100DA0006074CE010E94AE06612F6072CE010E9477
:100DB000AE06612F6071CE010E94AE06612F687091
:100DC000CE010E94AE06612F6470CE010E94AE0675
:100DD000612F6270CE010E94AE06612F6170CE015C
:100DE0000E94AE06CE010E949706CE010E949B068D
:100DF000CE010E94A206CE010E949706CE010E945B
:100E00009B0640E06CE4CE01DF91CF911F910C94E2
:100E10006805DC011896ED91FC9130E020E040E09F
:100E200069E10994DC011896ED91FC9130E020E035
:100E300040E068E10994CF93DF931F92CDB7DEB70E
:100E40006983BE016F5F7F4F0E94CD020F90DF91DB
:100E5000CF910895EF92FF921F93CF93DF93EC0110
:100E6000162F7A010E94120760E4CE010E941B0730
:100E7000E885F9859701412F67E1CE010995CE01FB
:100E8000DF91CF911F91FF90EF900C940907EF92A3
:100E9000FF921F93CF93DF93EC01142F79016631FA
:100EA00081F138F4643109F44BC0653179F080E0A8
:100EB00022C06831C9F150F16931C9F78091F4025B
:100EC000882391F1CE010E9409072EC08091F4027F
:100ED000882319F0CE010E940907CE010E94120753
:100EE00060E0CE010E941B07612FCE010E941B070C
:100EF00081E08093F402DF91CF911F91FF90EF90FA
:100F00000895642F0E941B0781E0F5CF8091F402C1
:100F1000882319F0CE010E940907A701193138F47E
:100F2000612FCE010E942A071092F402EDCF68E1F2
:100F3000CE010E942A07185188E1E80EF11CEDCF7E
:100F40008E898F3F11F488E78E8BE885F9859701AC
:100F5000412F64E1CE01DF91CF911F91FF90EF907F
:100F60000994CF93DF93EC01A889B989FD013491ED
:100F700031969491319684911396FD01A491631753
:100F8000A8F1961798F1631B770B8A9FE02D112427
:100F9000E69FC001E79F900D1124280F392F311DC6
:100FA00083E0220F331F8A95E1F7C9010496DA0125
:100FB000245F3F4FE889F989E80FF91FE491ED9329
:100FC000019682179307B1F78D89882361F0FA01A2
:100FD0009A01285F3F4F8191DF01119780958C9393
:100FE0002E173F07C1F7DF91CF910895FA01CA018B
:100FF00008961192E817F907E1F7E6CF4F925F9252
:101000006F927F928F929F92AF92BF92CF92DF9218
:10101000EF92FF920F931F93CF93DF93CDB7DEB77D
:101020002D970FB6F894DEBF0FBECDBF7C01C62E44
:10103000D42EB22EDC0150968D919C91FC013296FB
:10104000149131960491512E560E040F81E0860FB3
:10105000581608F411E0712CFE0131964F0144241A
:101060004394672CAC2C262DA4016B2DC7010E9444
:10107000B107AC86DD864B869A868986D7011496A1
:10108000ED91FC919E01275F3F4F41E06FE0C7016A
:1010900009956394A394A51430F3D394710ED016DC
:1010A00000F32D960FB6F894DEBF0FBECDBFDF91D3
:1010B000CF911F910F91FF90EF90DF90CF90BF9055
:1010C000AF909F908F907F906F905F904F9008951A
:1010D000FF920F931F93CF93DF93E091EF04F09172
:1010E000F0043296C4911092F7048C01D0E085E0B0
:1010F000F82EF80161918F01E091E104F091E20492
:101100008FED94E009958F3F980771F08E3F2FEF98
:10111000920779F3282F43E06F2D8FED94E00E9422
:10112000FE07FC0EDF5FE5CF8D2FDF91CF911F9182
:101130000F91FF900895EF92FF921F93CF93DF934B
:10114000EC01142F7901683151F130F46431D1F0A0
:101150006731A9F080E006C0693109F443C060320C
:10116000C9F781E0DF91CF911F91FF90EF90089533
:10117000F70161917F01CE010E94C7061150111144
:10118000F7CFEFCF41E06CE40E94680541E06DE4E9
:10119000CE010E946805CE010E949B06E2CF8F8996
:1011A000882349F0CE010E949706CE010E949B063B
:1011B000CE010E94A206CE010E94970640E06DE497
:1011C000CE010E946805CE010E949B0640E06CE4BF
:1011D000CE010E94680581E08F8B6E89CE010E944E
:1011E000C706BFCF40E06DE40E946805CE010E94B3
:1011F0009B06CE010E94A206CE010E949706CE0158
:101200000E949B061F8AADCF0F931F93CF93DF934E
:101210008C01C62F642FCC32E8F4CA3208F041C0EA
:10122000C83271F1C93209F442C080E0C034D0F153
:10123000CF73F801EC0FF11D868D8F3F91F1C03116
:10124000E0F00E94220421E0892B09F420E0F8015B
:10125000218F27C0CD3289F140F384EB8C0F82308F
:1012600020F7CF73C00FD12FD11D8E8D411135C006
:1012700061E00E94790460E08E8D0E944B0411C0F1
:10128000025E1F4FD0E0F80181918F018F3F31F056
:1012900061E0D03108F062E00E947904DF5FD6316E
:1012A00091F781E0DF91CF911F910F91089570E048
:1012B00090E080E00E94E804F4CF25E030E0433085
:1012C00010F022E030E046E0429FC001439F900DC5
:1012D000112405970197F1F7E4CF62E00E947904A9
:1012E000E0CF1F93CF93DF93EC01EC89FD8949ADEB
:1012F0006A3059F43396E491E40FE9AF18AE81E017
:1013000090E0DF91CF911F910895262F329614918E
:1013100068AD04960E94FE07E8ADE10FE8AFEFCF9D
:101320000F931F93CF93DF938C01D0E0C0E0F801BF
:10133000EC0FFD1F6491662341F08BED94E00E9459
:101340007109892B11F02196F2CFCE01DF91CF9157
:101350001F910F910895DC018D919C91DC01ED911D
:10136000FC910190F081E02D0994CF92DF92EF92F1
:10137000FF92CF93DF93C5E1D5E0A889B98925EF26
:101380003FEF4FEF5FEF0E945B1428EEC22E23E089
:10139000D22EE12CF12CA70196010E943C14255F6E
:1013A0003F4F4F4F5F4F39832883AA89BB8929EF6D
:1013B0003FEF4FEF5FEF0E945B14A70196010E9481
:1013C0003C14295F3F4F4F4F5F4F3B832A83AC89CB
:1013D000BD8929EF3FEF4FEF5FEF0E945B14A7013C
:1013E00096010E943C14295F3F4F4F4F5F4F3D8352
:1013F0002C83AE89BF8929EF3FEF4FEF5FEF0E944B
:101400005B14A70196010E943C14285F3F4F4F4F89
:101410005F4F3F832E83288D398DA4EFB1E00E946A
:101420009014A70196010E943C1439872887AC8D3F
:10143000BD8D29EF3FEF4FEF5FEF0E945B14A701D7
:1014400096010E943C14295F3F4F4F4F5F4F3F8FE3
:101450002E8F220F331F23563D4FF901808191813A
:101460009F878E876A8D7B8D90E080E052E0660FCB
:10147000771F881F991F5A95D1F7A70196010E94DF
:101480003C143D872C87DF91CF91FF90EF90DF9048
:10149000CF900895CF92DF92EF92FF920F931F9318
:1014A000CF93DF936C01EB017B01E40EF51E10E09E
:1014B00000E0CE15DF0561F06991D601ED91FC9158
:1014C0000190F081E02DC6010995080F191FF1CF99
:1014D000C801DF91CF911F910F91FF90EF90DF90A6
:1014E000CF900895089590E080E008951F920F92A4
:1014F0000FB60F9211242F933F934F935F936F93E7
:101500007F938F939F93AF93BF93EF93FF938CE35E
:1015100094E00E945D03FF91EF91BF91AF919F9185
:101520008F917F916F915F914F913F912F910F908C
:101530000FBE0F901F9018951F920F920FB60F922B
:1015400011242F938F939F93EF93FF93E0914C047B
:10155000F0914D048081E0915204F091530482FD9A
:101560001BC09081809155048F5F8F73209156042A
:10157000821741F0E0915504F0E0E45CFB4F958F59
:1015800080935504FF91EF919F918F912F910F9030
:101590000FBE0F901F9018958081F4CF1F920F926D
:1015A0000FB60F9211242F933F938F939F93AF9376
:1015B000BF938091650390916603A0916703B091FA
:1015C00068033091600320E4230F2D3728F023ECCB
:1015D000230F0196A11DB11D209360038093650325
:1015E00090936603A0936703B093680380916103AF
:1015F00090916203A0916303B09164030196A11DD1
:10160000B11D8093610390936203A0936303B09331
:101610006403BF91AF919F918F913F912F910F9054
:101620000FBE0F901F9018951F920F920FB60F923A
:1016300011242F933F934F935F936F937F938F93D7
:101640009F93AF93BF93EF93FF938091B900887FEF
:10165000803609F44AC0F0F5883209F4A5C018F5BF
:10166000803109F499C0B8F4882309F4F0C08830B7
:1016700009F492C0FF91EF91BF91AF919F918F912B
:101680007F916F915F914F913F912F910F900FBE7E
:101690000F901F901895883109F486C0803251F759
:1016A0008093390314C0803409F49BC040F4803324
:1016B000B9F38833F9F68093390385ECAEC08035F1
:1016C00009F483C0883509F494C0883499F60E94DF
:1016D0001B05D0CF883909F48AC038F5883729F03E
:1016E00050F4883611F0803729F683E080933A036E
:1016F0001092380355C0883809F479C0803919F040
:10170000803809F0B7CF80913803803208F06FC07D
:10171000E091380381E08E0F809338038091BB0005
:10172000F0E0E85EFC4F80833BC0803B39F0D0F4B2
:10173000803A09F477C0883A09F09CCF84E080931E
:101740003A031092170310921603F0E0E0E00995B7
:101750008091160381110FC081E0809316031092CF
:10176000F60209C0803C09F4A8CF883C09F4A5CF53
:10177000883B09F07FCFE091170381E08E0F8093C3
:101780001703F0E0EA50FD4F80818093BB009091F9
:1017900017038091160329C080915F038093BB00DB
:1017A00085EC8093BC0066CF90915E0380915D03D1
:1017B000981758F5E0915E0381E08E0F80935E03E9
:1017C000F0E0E35CFC4F8081E9CFE0915E0381E0D3
:1017D0008E0F80935E038091BB00F0E0E35CFC4FD2
:1017E000808390915E0380915D039817C8F285E82D
:1017F000D8CFE0915E0381E08E0F80935E038091ED
:10180000BB00F0E0E35CFC4F808380913C038111DE
:101810005ECF81E080933B0384EA8093BC0010920A
:101820003A0328CF80913803803230F4E0913803B6
:10183000F0E0E85EFC4F10826091380370E088E1D0
:1018400093E0F0E0E0E009951092380336CF109273
:1018500039033DCF1F920F920FB60F9211242F9391
:101860003F934F935F936F937F938F939F93AF9328
:10187000BF93EF93FF93E0916903F0916A03099599
:10188000FF91EF91BF91AF919F918F917F916F9158
:101890005F914F913F912F910F900FBE0F901F902E
:1018A00018951F920F920FB60F9211240F931F934A
:1018B0002F933F934F935F936F937F938F939F9358
:1018C000AF93BF93CF93DF93EF93FF93E0917C00AF
:1018D0008091790090E09093F3028093F2028091DE
:1018E0007C008F5F80937C00EF70E730A0F4F0E025
:1018F000E058F34F8091F2029091F3020C94C714D8
:10190000870CA50CAA0CAF0CB40CB90CBE0C9093B0
:101910002A058093290580917A008F7780937A0039
:10192000FF91EF91DF91CF91BF91AF919F918F91F7
:101930007F916F915F914F913F912F911F910F91E7
:101940000F900FBE0F901F901895909326058093CF
:101950002505E1CF90932E0580932D05DCCF909344
:101960002C0580932B05D7CF9093280580932705CE
:10197000D2CF9093320580933105CDCF909330052F
:1019800080932F0580917C00887F80937C0008E7FE
:1019900012E0D0E0C0E0F80181918F010E942204A2
:1019A0002196892B41F481E080936B03D0932E0123
:1019B000C0932D01B0CFC730D10569F7ACCF1F92CE
:1019C0000F920FB60F9211240F931F932F933F93F3
:1019D0004F935F936F937F938F939F93AF93BF9337
:1019E000EF93FF9380912C018F5F80932C01809166
:1019F0002C01837080932C01811103C081E08093BE
:101A0000F102E0912C01F0E0EE0FFF1FEC5DFE4FC4
:101A1000818187FD25C180912C01E0912C01F0E0AE
:101A2000EE0FFF1FE751FD4F20813181A0912C0166
:101A3000B0E0AA0FBB1FA45EBE4F6D917C91A09138
:101A40002C01B0E0AA0FBB1FAC5DBE4F4D915C9165
:101A50001197460F571F11965C934E931196EC9178
:101A6000E20FF32FF11DE491A82FB0E0A85EBE4F66
:101A7000EC930091E1021091E2022091100130916B
:101A800011018091D9029091DA02820F931F9093F5
:101A9000DA028093D902E091DA02E00FF12FF11D12
:101AA0000491209118016091E3027091E402409149
:101AB0001201509113018091DB029091DC02840F9E
:101AC000951F9093DC028093DB02E091DC02E60F2D
:101AD000F72FF11D7491609119018091E5029091A9
:101AE000E602E0911401F09115014091DD02509160
:101AF000DE024E0F5F1F5093DE024093DD02E09145
:101B0000DE02E80FF92FF11D149150911A01809116
:101B1000E7029091E802E0911601F0911701A0917F
:101B2000DF02B091E002AE0FBF1FB093E002A093BE
:101B3000DF02E091E002E80FF92FF11D44913091AE
:101B40001B010203F0011124EF2FFF0FFF0B76039F
:101B5000B0011124672F770F770BE60FF71F1503DE
:101B6000C0011124892F990F990BE80FF91F430326
:101B7000C0011124892F990F990BE80FF91FF595D2
:101B8000E795F595E795E158E093B400E093B3004D
:101B9000E0912C01F0E0EE0FFF1FE85FFE4F808127
:101BA0009181E0912C01F0E0EE0FFF1FE85FFE4F06
:101BB00060817181E0912C01F0E0EE0FFF1FEC5D80
:101BC000FE4F20813181E0912C01F0E0EE0FFF1FEC
:101BD000E050FF4FA081B181E0912C01F0E016E0D0
:101BE000769567951A95E1F706E0369527950A955B
:101BF000E1F7629FA001639F500D729F500D112469
:101C0000440F452F441F550B51954A9F90014B9F00
:101C1000300D5A9F300D1124820F931FEE0FFF1FBE
:101C2000E05FFE4F918380838091D7029091D8022C
:101C300001969093D8028093D702FF91EF91BF91C4
:101C4000AF919F918F917F916F915F914F913F9154
:101C50002F911F910F910F900FBE0F901F9018950D
:101C6000E0912C01F0E0E85EFE4F108202CFCF93AE
:101C700010923F0410923E0488EE93E0A0E0B0E0A2
:101C80008093400490934104A0934204B093430492
:101C900083E892E090933D0480933C0485EC90E0CF
:101CA000909349048093480484EC90E090934B0413
:101CB00080934A0480EC90E090934D0480934C0410
:101CC00081EC90E090934F0480934E0482EC90E07E
:101CD000909351048093500486EC90E090935304C9
:101CE0008093520410925504109256041092570497
:101CF000109258048CE394E09093DA048093D90412
:101D000010926D0310926C0310926F0310926E0389
:101D10001092710310927003109273031092720369
:101D20001092750310927403109277031092760349
:101D3000109279031092780310927B0310927A0329
:101D400010927D0310927C0310927F0310927E0309
:101D500010928103109280031092830310928203E9
:101D600010928503109284031092870310928603C9
:101D7000109289031092880310928B0310928A03A9
:101D800010928D0310928C0310928F0310928E0389
:101D90001092910310929003109293031092920369
:101DA000109295031092940389ED94E09093970319
:101DB00080939603109298031092990310929A03BD
:101DC00010929F0310929E031092A1031092A00301
:101DD0008FEF9FEF9093A3038093A2039093A503AB
:101DE0008093A40383E08093A6031092A70310922C
:101DF000A8031092A9031092AA0310922B04EBEAF5
:101E0000F3E080E8DF011D928A95E9F710922E0435
:101E100010922F0410923004109231041092320468
:101E20001092330410923404109235041092360448
:101E300010923704109238041092390410923A0428
:101E400010923B04109216051092150585E090E063
:101E5000909318058093170582E090E090931A05FF
:101E60008093190586E090E090931C0580931B05F4
:101E700088EC90E090931E0580931D05109220053C
:101E800010921F05109222051092210587EF91E014
:101E900090932405809323051092DE041092DD04B4
:101EA000109213051092140585E992E09093DC04DA
:101EB0008093DB041092E0041092DF041092F4048B
:101EC0001092F7041092EB041092EC041092ED04BF
:101ED0001092EE048FEF8093F5048093F904EDEFF8
:101EE000F4E083E195E0CFEFC1938E179F07E1F710
:101EF00086EE95E09093E4048093E30487E497E012
:101F00009093E6048093E5048BE998E09093E804CD
:101F10008093E70484E099E09093EA048093E904D5
:101F200030E020E040E069E08FED94E00E94E605BB
:101F300083E08093090584E080930A05C093080537
:101F4000CF910895CF93DF93CDB7DEB7AB970FB6A0
:101F5000F894DEBF0FBECDBF8091F20080618EBBD2
:101F600080E88093F2009EB39093F200809361002A
:101F700091E09093610080936100109261007894E9
:101F800084B5826084BD84B5816084BD85B582607E
:101F900085BD85B5816085BD80916E00816080932F
:101FA0006E00109281008091810082608093810098
:101FB00080918100816080938100809180008160A8
:101FC000809380008091B10084608093B100809103
:101FD000B00081608093B000809191008260809316
:101FE0009100809191008160809391008091900098
:101FF00081608093900080917A00846080937A0061
:1020000080917A00826080937A0080917A0081606A
:1020100080937A0080917A00806880937A00109291
:10202000C100F89461E085E00E94790408E712E0BD
:102030008FE7E82E82E0F82E62E0D8018D918D01C5
:102040000E947904E016F106B9F761E084E00E948D
:10205000790461E083E00E94790460E084E00E94FA
:102060004B0460E083E00E944B0483E080937A009D
:102070008FEF80937E0080E680937C0085E08093E4
:102080007C0080917B0080937B0080917A00886A3D
:1020900080937A0080917A00806480937A00E09146
:1020A0009603F09197030190F081E02DA089B1890A
:1020B00082E08C93A485B5851C92A685B7858FE7B1
:1020C0008C93108EA489B58986E08C93A289B389FC
:1020D0008C9180618C93A289B3898C9188608C9358
:1020E000A289B3898C9180688C930288F389E02D52
:1020F00080818F7D808384E08093980310929A037F
:10210000109299031092A1031092A00310929F03C2
:1021100010929E038FEF9FEF9093A3038093A203EF
:102120009093A5038093A4032FB7F894809165033F
:1021300090916603A0916703B09168032FBF8093CD
:102140002E0490932F04A0933004B0933104109286
:102150002B041092A8031092A7031092A9031092C7
:10216000AA0310922D0410922C048091A603817072
:10217000826081608093A603E091E304F091E4041F
:1021800030E020E040E06AE08FED94E009958E01B8
:102190000F5F1F4F88E0F80111928A95E9F7C80197
:1021A0000E949B02E091E304F091E40430E020E01F
:1021B00040E06BE08FED94E00995E091E304F0914D
:1021C000E40430E020E040E06BE08FED94E009951E
:1021D00080E1809381001092800088EA91E69093DC
:1021E00087008093860083E18093810085EB99E0EE
:1021F00090936A038093690381E080936F007894E1
:10220000BCE04B2E512C80916B03882309F4DDC177
:1022100080912D0190912E0101978830910520F435
:102220009093200580931F0510926B0361E085E079
:102230000E944B048EE1D8011D928A95E9F7E09146
:102240001F05F0912005EE0FFF1FEE0FFF1F80917D
:10225000230590912405E80FF91F809115059091B1
:10226000160520813181820F931F8C30910554F027
:1022700020911705309118052F5F3F4F30931805B7
:1022800020931705B2010E94B3149C018091170599
:102290009091180501968A30910508F086C0BCE03F
:1022A000B89FA001B99F500D1124CA01820F931F3E
:1022B00099A788A7828193818130910509F47AC01A
:1022C00008F48AC08230910509F47BC0039709F4B1
:1022D0007CC03BA32AA3F901E20DF31DCF01B2019B
:1022E0000E94B3149DA38CA388248394912C3C97C3
:1022F00014F4912C812C260D371DC901B2010E94C6
:10230000B3149FA38EA3AA24A394B12C2C3031051F
:1023100014F4B12CA12C2091210530912205211516
:10232000310539F0C9010297F12CE12C029708F030
:102330005DC0E0901B05F0901C05E0911905F0913F
:102340001A05FBA7EAA76801F0E0E0E0EE15FF053B
:1023500009F44CC0CF0163E070E00E94B3148130F7
:102360009105F1F5680D791D4AA55BA5640F751FF0
:10237000880F991FD801A80FB91F91964D915C91B4
:102380006F5F7F4F8FEF9FEF6A30710540F4ACE0D5
:10239000A69FC001A79F900D1124840F951FD60101
:1023A0008D939D936D013196D1CFAFEFBFEFB9A75C
:1023B000A8A780CFE7E06E2E712C63E0262E312C8B
:1023C00088CF76E0672E712CF8CF58E0652E712CFF
:1023D00094E0292E312C7DCF47E0642E712CF8CF6C
:1023E0008230910509F66A0D7B1DBECFC9010197A8
:1023F000029708F042C020911B0530911C05215026
:102400003109C0901905D0901A05F701EE0FFF1F92
:10241000E00FF11F37FD68C0C90163E070E00E9462
:10242000B3148130910519F5680D791D6C0D7D1D72
:10243000880F991FD801A80FB91F91964D915C91F3
:102440006F5F7F4F8FEF9FEF6A30710540F4BCE004
:10245000B69FC001B79F900D1124840F951F8193E3
:1024600091934FEFE41AF40A21503109D3CF82300F
:102470009105E1F66A0D7B1DD9CF23303105A1F519
:1024800052E0E516F10480F15801D12CC12C47012E
:1024900061E0861A9108C814D90430F50E942C1402
:1024A0009C01B7016C197D098FEF9FE70E949F1473
:1024B0006F5F7F4FC9010E949F14FB01EC0DFD1D52
:1024C000EE0FFF1FE00FF11F80819181D5012D914B
:1024D0003D915D0131832083FD013297918380839B
:1024E000BFEFCB1ADB0AD7CF98A4E89497F860E93E
:1024F00080919603909197030E94AB09692D80917A
:102500009603909197030E94AB096FE78091960321
:10251000909197030E94AB095801D12CC12C809156
:10252000960390919703CE14DF04D1F1F501208139
:10253000F2E0AF0EB11C822EE89487F860E90E94A9
:10254000AB09682D80919603909197030E94AB0987
:102550006FE780919603909197030E94AB09609179
:102560001D0570911E0590E080E00E94E80460E87F
:1025700080919603909197030E94AB09682D8091FA
:102580009603909197030E94AB0960E080919603B7
:10259000909197030E94AB093FEFC31AD30ABFCFB4
:1025A00060E80E94AB09692D809196039091970392
:1025B0000E94AB0960E080919603909197030E947E
:1025C000AB0960E085E00E944B0488ED91E09093B8
:1025D000F0048093EF04FF24F394F092F40410923B
:1025E00013051092140587EC91E00E949009109257
:1025F000F40410921305F092140580EC91E00E940F
:10260000900983E08093130580931405209133058E
:102610003091340550E040E019A27E0161E2E60EFF
:10262000F11CCA01B9012AE030E040E050E00E940C
:102630006E14605DD7016E937D0121153105410552
:10264000510579F7109769F0FD0101900020E9F735
:102650003197AF014A1B5B0BBD018BED94E00E94EB
:102660004A0A80913105909132059F938F938DEAAC
:1026700092E09F938F931F930F930E94CD1485ED4B
:1026800092E09093E2048093E104C8010E946808FC
:1026900086E08093130581E0809314050F900F90DE
:1026A0000F900F900F900F90E0913305F09134054B
:1026B000E830F105C8F4E15AFC4E0C94C7146713D6
:1026C0008C139813A413B013BC13C813D41385EB45
:1026D00091E00E9490091092130582E08093140506
:1026E00087EA91E00E949009E091E304F091E4040C
:1026F00030E020E040E060E18FED94E0099580E07B
:1027000090E0892B09F47FCD0E944903882309F4C6
:102710007ACD0E94000077CD8CE991E00E9490096B
:102720001092130582E0809314058EE891E0DACFD1
:1027300083E891E00E9490091092130582E0809353
:10274000140585E791E0CECF8AE691E00E949009DA
:102750001092130582E0809314058CE591E0C2CFBE
:1027600081E591E00E9490091092130582E0809328
:10277000140583E491E0B6CF88E391E00E949009CC
:102780001092130582E0809314058AE291E0AACFAB
:102790008FE191E00E9490091092130582E08093EE
:1027A000140581E191E09ECF86E091E00E949009BE
:1027B0001092130582E08093140588EF90E092CF89
:1027C0008F929F92AF92BF92CF92DF92EF92FF9241
:1027D000CF93DF93EC01688179818A819B816115B8
:1027E00071058105910521F464E279ED8BE597E0AF
:1027F0002DE133EF41E050E00E943C1449015A01C1
:102800009B01AC01A7EAB1E40E945B146B017C015F
:10281000ACEEB4EFA50194010E946914DC01CB0178
:102820008C0D9D1DAE1DBF1DB7FF03C00197A109F3
:10283000B04888839983AA83BB839F77DF91CF9128
:10284000FF90EF90DF90CF90BF90AF909F908F90D0
:1028500008950E94E01308958FE291E00E94E01332
:102860000895B0E0A0E080932F0190933001A093F1
:102870003101B09332010895052E97FB1EF40094A8
:102880000E94531457FD07D00E946E1407FC03D01A
:102890004EF40C94531450954095309521953F4F2C
:1028A0004F4F5F4F089590958095709561957F4F3C
:1028B0008F4F9F4F08950E949014A59F900DB49F35
:1028C000900DA49F800D911D11240895B7FF0C94C5
:1028D0005B140E945B14821B930B0895A1E21A2ED5
:1028E000AA1BBB1BFD010DC0AA1FBB1FEE1FFF1FB4
:1028F000A217B307E407F50720F0A21BB30BE40B04
:10290000F50B661F771F881F991F1A9469F760954A
:102910007095809590959B01AC01BD01CF01089504
:10292000A29FB001B39FC001A39F700D811D112410
:10293000911DB29F700D811D1124911D0895AA1B38
:10294000BB1B51E107C0AA1FBB1FA617B70710F09A
:10295000A61BB70B881F991F5A95A9F780959095CC
:10296000BC01CD01089597FB072E16F4009407D003
:1029700077FD09D00E949F1407FC05D03EF4909586
:1029800081959F4F0895709561957F4F0895EE0F43
:10299000FF1F0590F491E02D0994AEE0B0E0E3ED67
:1029A000F4E10C947C170D891E8986E08C831A83D0
:1029B00009838FEF9FE79E838D83AE01475E5F4F54
:1029C0006F89788DCE0101960E94F0142F81388591
:1029D000020F131FF80110822E96E4E00C94981752
:1029E000ABE0B0E0E6EFF4E10C946E177C013B0144
:1029F0008A01FC0117821682838181FFC8C1CE0142
:102A000001965C01F7019381F30193FD859193FF9A
:102A100081913F01882309F453C1853239F493FD34
:102A2000859193FF81913F01853229F4B70190E0B0
:102A30000E94E016E7CF912C212C312CFFE1F315F9
:102A400038F08B3211F190F4803209F1833229F1A0
:102A500037FC3CC020ED280F2A3050F536FE20C050
:102A60008AE0989E200D1124922E06C08D3291F09E
:102A7000803371F7689430F8F30193FD859193FFEB
:102A800081913F018111DACF21C0689431F86894B7
:102A900032F8F2CF689433F8EFCF689434F8ECCF83
:102AA000EAE02E9E200D1124222E689435F8E4CF02
:102AB0008E3229F436FC04C1689436F8DDCF8C36AA
:102AC00019F4689437F8D8CF8836B1F2982F9F7DE3
:102AD00095549330E0F08336A1F18337C1F183350B
:102AE00009F063C02801F2E04F0E511CF801C080CC
:102AF000D180692D70E036FC02C06FEF7FEFC60118
:102B00000E94CA164C01689437F882010AC00C5F13
:102B10001F4FFFE3F98388248394912C6501E89487
:102B200037F833FE2DC0522C8114910471F55520D5
:102B300009F468CFB70180E290E00E94E0165A9451
:102B4000F6CFF801808189830E5F1F4FE4CF280103
:102B5000F2E04F0E511CF801C080D180692D70E069
:102B600036FC02C06FEF7FEFC6010E94D5164C0104
:102B70008201D5CFB70180E290E00E94E0162A944E
:102B80002814190409F0B0F7CECFF60137FC85916F
:102B900037FE81916F01B70190E00E94E01651105D
:102BA0005A94F1E08F1A9108BFCF843619F0893614
:102BB00009F077C0F80137FE6BC0608171818281B6
:102BC00093810C5F1F4FF32DFF763F2E97FF09C0B7
:102BD00090958095709561957F4F8F4F9F4F68942A
:102BE00037F82AE030E0A5010E941017C82ECA1855
:102BF0008C2C432C36FE0CC0E89440F8C91440F4E9
:102C000034FE05C032FC03C0F32DFE7E4F2E892C0E
:102C100044FE95C0FE01EC0DF11D8081803309F06A
:102C200087C0242D297E422E842D8870582E43FC87
:102C300095C040FE8FC09C2C821418F42C0C922C52
:102C4000981844FE91C0B70180E390E00E94E0161E
:102C500042FE09C088E790E041FE02C088E590E0AE
:102C6000B7010E94E016C91408F48AC0CA94D12C96
:102C70009FEFC91AD90ACA0CDB1CF60182916F01B9
:102C8000B70190E00E94E016AC14BD04B1F74FCF3D
:102C900060817181072E000C880B990B0E5F1F4F0E
:102CA00092CFD32CE894D4F82AE030E0853739F17C
:102CB000232D297FD22E8F3601F148F48835A9F0D3
:102CC000F701868197812B96E2E10C948A17803771
:102CD00049F08837A9F7D4FE02C06894D2F820E101
:102CE00030E00DC06894D4F8F6CF34FE03C0822FD4
:102CF0008660D82E20E132E002C028E030E0F80102
:102D0000D7FE0FC060817181828193810C5F1F4F5C
:102D1000A5010E941017C82ECA183D2CE89437F858
:102D200067CF6081718190E080E00E5F1F4FF0CF30
:102D300042FC02C0839478CF8394839475CF842D12
:102D4000867809F471CFF6CFB70180E290E00E9457
:102D5000E01683948214C0F3512C73CF522C581870
:102D6000821408F46ECFF8CF842D867809F47BCFD7
:102D70008BE241FE80E247FC8DE2B70190E071CF2B
:102D8000B70180E390E00E94E0169A946CCF8FEF39
:102D90009FEF99CFFC010590615070400110D8F76A
:102DA000809590958E0F9F1F0895FC016150704093
:102DB00001900110D8F7809590958E0F9F1F089570
:102DC0000F931F93CF93DF93182F092FEB018B8164
:102DD00081FD09C01FEF0FEF812F902FDF91CF9161
:102DE0001F910F91089582FF14C02E813F818C8125
:102DF0009D81281739073CF4E881F981CF010196BC
:102E00009983888310838E819F8101969F838E830F
:102E1000E3CFE885F985812F0995892BA1F3DACFD6
:102E2000FA01AA27283051F1203181F1E8946F93FB
:102E30006E7F6E5F7F4F8F4F9F4FAF4FB1E03ED0A1
:102E4000B4E03CD0670F781F891F9A1FA11D680F3F
:102E5000791F8A1F911DA11D6A0F711D811D911D72
:102E6000A11D20D009F468943F912AE0269F1124E7
:102E70003019305D3193DEF6CF010895462F47704B
:102E8000405D4193B3E00FD0C9F7F6CF462F4F70A6
:102E9000405D4A3318F0495D31FD4052419302D004
:102EA000A9F7EACFB4E0A6959795879577956795AA
:102EB000BA95C9F700976105710508959B01AC01AA
:102EC0000A2E06945795479537952795BA95C9F7D1
:102ED000620F731F841F951FA01D08952F923F92AC
:102EE0004F925F926F927F928F929F92AF92BF921A
:102EF000CF92DF92EF92FF920F931F93CF93DF93C6
:102F0000CDB7DEB7CA1BDB0B0FB6F894DEBF0FBE22
:102F1000CDBF09942A88398848885F846E847D846F
:102F20008C849B84AA84B984C884DF80EE80FD8071
:102F30000C811B81AA81B981CE0FD11D0FB6F894E7
:0E2F4000DEBF0FBECDBFED010895F894FFCFA8
:102F4E001400000040007F00F401F401F401F401CC
:102F5E00E803C8002C019001FFFFFFFF0A000A00E2
:102F6E000A000A0000800080008000800401000139
:102F7E000000000000020001000000030001000537
:102F8E0000010006000000080000000A0001000019
:102F9E00000100020002000300030005000100070B
:102FAE00000000080000000B0002000000010002FB
:102FBE0000020003000000050001000700010008E8
:102FCE000000000A000000000000000200010004E2
:102FDE000002000500000007000100090001000AC0
:102FEE0000000000000000020000000400010006C6
:102FFE0000020007000000090001000B00010000A4
:10300E0000010001000000030000000500010007A0
:10301E00000200080000000A00010000000100028A
:10302E000001000300000005000000070001000978
:10303E000002000A0000000000000002000100046F
:10304E000001000500000007000000090001000B50
:10305E000002001815A015C019FF1815A115C819E2
:10306E00FF1815AE19FF1815AF19FF1815AE15D5A7
:10307E00168015A8161F15D316001540158D16149B
:10308E001520160015A115C815DA16021581168F12
:10309E0015D916F115DB1640152E15A415A619FF18
:1030AE000001140A6464323200127A000004289679
:1030BE001004000080002000060708090A0B0C000F
:1030CE000000007E03DF020C03C5033D031B032F2C
:1030DE00030000000071094A0A730A720AF701DB45
:1030EE0001BF01A30187016B014F01330125346438
:0230FE000000D0
:00000001FF
