:100000000C946F020C9497020C9497020C94970234
:100010000C9497020C9497020C9497020C949702FC
:100020000C9497020C9497020C9497020C949702EC
:100030000C94C5130C94D4130C9497020C9497024F
:100040000C9469120C9497020C9437120C941112B0
:100050000C9497020C9497020C9497020C949702BC
:100060000C94AF120C9497020000000024002700AB
:100070002A002D00330000000000250028002B007E
:100080002E003400000000002300260029002C0070
:100090003200040404040404040402020202020202
:1000A0000303030303030505020306050502030515
:1000B00005050506060606060606010204081020C8
:1000C00040800102040810200102040810200208E8
:1000D000408001408080400104102002040810206C
:1000E00040800000000850020100000304070000E7
:1000F00000000000000000004D696E6F722A202091
:100100002020202020006C6F637269616E20202007
:10011000002D2D2D202020202020202020200068B0
:1001200061726D6F6E69632020004E61747572613B
:100130006C204D696E6F720061656F6C69616E2035
:100140002020004D616A6F72202020202020202076
:10015000006D69786F6C796469616E004D616A6FDA
:10016000722020202020202020006C796469616E9C
:1001700020202020004D696E6F722020202020203A
:10018000202000706872796769616E2020004D69D7
:100190006E6F72202020202020202000646F726962
:1001A000616E20202020004E61747572616C204DBC
:1001B000616A6F7200696F6E69616E202020200095
:1001C0004D6F64653A2000417270656767696174BC
:1001D0006F72203630303000207F010100000000B7
:1001E000000000000000005F0000000000030000AD
:1001F0000003000000227F22227F220000242A6BBD
:100200002A120000422512082452210000205649DB
:1002100049552250000000000300000000001C228D
:100220004100000000000041221C000000000A0400
:100230001F040A000008083E0808000000000040F3
:10024000300000000008080808080800000000400E
:10025000000000004020100804020100003E41415F
:10026000413E00000040427F404000000062514992
:10027000494600000022414949360000001C121185
:100280007F1000000027454545390000003E4949E0
:100290004932000000010179050300000036494998
:1002A0004936000000264949493E0000000000127E
:1002B00000000000000000201200000000000814F0
:1002C0002241000000141414141414000000004112
:1002D0002214080000020159090600003C4299A5B9
:1002E000A5B9221C60181611161860007F494949EB
:1002F000494936003E414141414122007F4141414F
:1003000041413E007F494949494141007F0909096E
:10031000090101003E41414149493A007F0808086E
:1003200008087F000041417F4141000020404040DB
:1003300040403F007F080808142241007F404040B1
:10034000404040007F02040804027F007F0204084E
:1003500010207F003E41414141413E007F1111117B
:1003600011110E003E4141416141BE007F09090962
:100370000919660026494949494932000101017FAE
:10038000010101003F40404040403F000F1020402D
:1003900020100F001F60201C20601F004122140845
:1003A000142241000304087008040300416151490C
:1003B0004543410000007F41410000000102040864
:1003C0001020400000000041417F000000040201B5
:1003D0000204000080808080808080800000000116
:1003E000020000000020545454547800007F44441C
:1003F000444438000038444444442800003844440D
:1004000044447F0000385454545448000000047E93
:10041000050100000018A4A4A4A47C00007F04042B
:10042000040478000000447D40000000004080800B
:10043000847D0000007F1010102844000000017F20
:10044000000000007C04047C04047800007C0404A8
:1004500004047800003844444444380000FC444418
:1004600044443800003844444444FC00007C080400
:100470000404040000485454545424000000043F71
:1004800044400000003C404040407C00001C2040B4
:1004900040201C00003C40403840403C00442810B4
:1004A00028440000001CA0A0A0A07C0000446454CC
:1004B0004C4400000000083641000000000000FF2E
:1004C0000000000000000041360800000804040895
:1004D000101008000000000000000000FB131124B1
:1004E0001FBECFEFD8E0DEBFCDBF12E0A0E0B1E08D
:1004F000E8EDFAE302C005900D92A639B107D9F7ED
:1005000027E0A6E9B2E001C01D92A234B207E1F7EC
:1005100012E0CFE6D2E004C02197FE010E947D1ACE
:10052000CE36D107C9F70E948E150C946A1D0C9423
:10053000000080E008951F93CF93DF9300D000D098
:100540001F92CDB7DEB71C8221E02B839A8389836B
:10055000E091F806F091F90611891D82A091F80644
:10056000B091F906E091FC06F091FD069E012F5F27
:100570003F4F50964C916FE088EF96E009958D8142
:100580008F5F8D83811750F30F900F900F900F9016
:100590000F90DF91CF911F910895662329F06A3063
:1005A00019F0862F90E008958FEF9FEF08959B013B
:1005B000DC011896ED91FC9141E067E10994AF925E
:1005C000BF92CF92DF92EF92FF920F931F93CF9340
:1005D000DF936C017B018B01040F151FEB015E01A2
:1005E000AE18BF08C017D10759F06991D601ED9137
:1005F000FC910190F081E02DC6010995892B79F7D6
:10060000C501DF91CF911F910F91FF90EF90DF9087
:10061000CF90BF90AF900895FC01538D448D252F4E
:1006200030E0842F90E0821B930B541710F0CF968C
:10063000089501970895FC01918D828D981761F0BE
:10064000A28DAE0FBF2FB11D5D968C91928D9F5FD5
:100650009F73928F90E008958FEF9FEF0895FC01B4
:10066000918D828D981731F0828DE80FF11D858D67
:1006700090E008958FEF9FEF0895FC01918D228DFA
:10068000892F90E0805C9F4F821B91098F7399277F
:10069000089585E596E00E943D0321E0892B09F449
:1006A00020E0822F089580E090E0892B29F00E94BD
:1006B000490381110C9400000895FC01A48DA80F3A
:1006C000B92FB11DA35ABF4F2C91848D90E0019694
:1006D0008F739927848FA689B7892C93A089B189B4
:1006E0008C9180648C93938D848D981306C00288BE
:1006F000F389E02D80818F7D80830895EF92FF92B2
:100700000F931F93CF93DF93EC0181E0888F9B8D34
:100710008C8D981316C0E889F989808185FF11C0F6
:10072000EE89FF896083E889F9898081806480830C
:1007300081E090E0DF91CF911F910F91FF90EF90BA
:100740000895F62E0B8D10E00F5F1F4F0F731127CA
:10075000E02E8C8D8E110CC00FB607FCFACFE88905
:10076000F989808185FFF5CFCE010E945D03F1CF2D
:10077000EB8DEC0FFD2FF11DE35AFF4FF0820B8F35
:10078000EA89FB8980818062D2CFCF93DF93EC012D
:10079000888D8823B9F0AA89BB89E889F9898C9169
:1007A00085FD03C0808186FD0DC00FB607FCF7CF25
:1007B0008C9185FFF2CF808185FFEDCFCE010E9425
:1007C0005D03E9CFDF91CF91089581508B3088F59B
:1007D000E82FF0E0E251FC4F0C947D1A030407046B
:1007E000F903FF03190419040A04100414041A0479
:1007F0001E04809180008F778093800008958091FF
:1008000080008F7DF9CF84B58F7784BD089584B53E
:100810008F7DFBCF8091B0008F778093B0000895DB
:100820008091B0008F7DF9CF809190008F77809379
:1008300090000895809190008F7DF9CF8091900075
:10084000877FF5CFCF93DF93282F30E0F901EE516A
:10085000FF4F8491F901E654FF4FD491F901EE5610
:10086000FF4FC491CC23A1F081110E94E503EC2F2E
:10087000F0E0EE0FFF1FEC57FF4FA591B491EC9104
:10088000ED2381E090E009F480E0DF91CF910895BD
:1008900080E090E0FACF1F93CF93DF93282F30E0D2
:1008A000F901EE51FF4F8491F901E654FF4FD491C5
:1008B000F901EE56FF4FC491CC23A9F0162F8111F8
:1008C0000E94E503EC2FF0E0EE0FFF1FEA58FF4F08
:1008D000A591B4918FB7F894EC91111108C0D095FF
:1008E000DE23DC938FBFDF91CF911F910895DE2B24
:1008F000F8CFCF93DF93282F30E0F901E654FF4F74
:1009000044912E563F4FF9012491843019F583E02C
:100910008093A0002223D9F0822F90E0880F991FA6
:10092000FC01E859FF4FA591B491FC01EA58FF4F33
:10093000C591D491623019F59FB7F8942C91842F0A
:10094000809582238C93E8814E2B48839FBFDF9153
:10095000CF91089593EE980F923020F48FEF84BFDB
:1009600084BFD8CF8931B1F68091F00082608EBB10
:1009700080E88093F0008EB38093F000CBCF8FB7E8
:10098000F894EC914E2B4C938FBFE1CFCF93DF9334
:100990001F92CDB7DEB7198280917A008064809370
:1009A0007A0080917A0086FDFCCF8091780089835F
:1009B0009091790089810F90DF91CF9108950F93E5
:1009C0001F93CF93DF93EDEAF0E09081907F9083C7
:1009D0002091050140E4249F900111248E50822B28
:1009E00080937C000DE710E0F801808180628083B5
:1009F0000E94C604EC01F80180818F7D80830E94F3
:100A0000C6048C0F9D1F9C0136952795892F992729
:100A1000A901481B590BCA01DF91CF911F910F917A
:100A20000895CF93C0913605C11103C0CF910C94A6
:100A3000DF0490913505913049F40E94DF0402C033
:100A400095958795CA95E2F7CF9108950E94DF04A6
:100A500002C0880F991FCA95E2F7F6CF3FB7F89406
:100A60008091310590913205A0913305B091340504
:100A700026B5A89B05C02F3F19F00196A11DB11DF9
:100A80003FBFBA2FA92F982F8827BC01CD01620F35
:100A9000711D811D911D660F771F881F991F089575
:100AA0008F929F92AF92BF92CF92DF92EF92FF927E
:100AB0006B017C010E942E054B015C01C114D10425
:100AC000E104F104B9F00E942E05681979098A0938
:100AD0009B09683E73408105910580F321E0C21AAD
:100AE000D108E108F10888EE880E83E0981EA11C69
:100AF000B11CE4CFFF90EF90DF90CF90BF90AF900C
:100B00009F908F9008952FB7F89460912D05709164
:100B10002E0580912F05909130052FBF089585ED0A
:100B20008093BC008091BC0084FDFCCF1092060530
:100B30000895613298F420910605243089F4609379
:100B4000E204282FA2ECB4E0FC018E2F821B861752
:100B500010F080E0089581918D93F7CF81E00895A2
:100B600082E0089508958FEF9FEF08958FEF9FEF34
:100B700008958091C10490E091958195910908951F
:100B8000CF93DF93CB01EA01642F0E949905CE0138
:100B9000DF91CF910895CF93DF931F92CDB7DEB74A
:100BA000698361E0CE0101960E94990581E090E0A1
:100BB0000F90DF91CF9108952091BB02211109C0C0
:100BC00021E02093BB0230913A0520913B053CBDCA
:100BD0002DBD60E0FC0184810C944B0461E0FC01BC
:100BE00084810E944B048091BB0281111092BB0250
:100BF0000895DC011A96ED91FC9130E020E0099413
:100C0000DC011696ED91FC9130E020E040E069E1D6
:100C10000994DC011696ED91FC9130E020E040E073
:100C200068E109949A01DC011696ED91FC91462F3A
:100C300067E10994EF92FF920F931F93CF93DF9395
:100C40001F92CDB7DEB77C018B01D8016C91673163
:100C500029F150F46531A0F40F90DF91CF911F91ED
:100C60000F91FF90EF9008956A3118F16E3FA1F750
:100C7000F8014181498369E2C7010E94F9050BC06F
:100C8000F80141814983D7011696ED91FC9130E03E
:100C900020E0C70109950E5F1F4FD7CFF801818172
:100CA0008983AE014F5F5F4F61E0C7010E9412066A
:100CB000F2CF0F5F1F4FD7011696ED91FC9130E0F8
:100CC00020E040E0C7010995C0CF462FDC01169611
:100CD000ED91FC9130E020E066E10994462FDC01C3
:100CE0001696ED91FC9130E020E065E10994EF92D9
:100CF000FF920F931F93CF93DF93EC01042F7901A1
:100D0000693069F489E392E0998388831C8A81E0E1
:100D1000DF91CF911F910F91FF90EF9008956D306B
:100D200009F475C038F46A3091F16B3009F468C089
:100D300080E0EECF6E3009F47DC06F30C9F70E94BD
:100D40000906F7011381110F110F110F6C89160F8E
:100D5000612F62956F706061CE010E946E06612FF7
:100D60006F70CE010E946E06F7016481606BCE0148
:100D70000E946E06F701408151816281660F660F05
:100D8000660FCE010E9412060150A1F75DC0EA85F0
:100D9000FB8530E020E040E068E20995EE81FF81CC
:100DA00030E020E040E064E1CE01099541E06BE4F1
:100DB000CE010E94F905E881F981448169E2CE0102
:100DC0000E94F90540E06BE4CE010E94F905E8813C
:100DD000F981448169E2CE010E94F90541E06BE4AA
:100DE000CE010E94F905E881F981458169E2CE01D1
:100DF0000E94F90564E072E0CE010E941A0687CFD6
:100E00006FEF71E04423C1F36AEF71E0F5CF411158
:100E100009C063EF71E00E941A06E881F9818289B6
:100E20008C8B75CF6CEE71E00E941A06E881F98117
:100E30008389F6CF0E94090661E8CE010E946E0602
:100E4000602FCE010E946506CE010E9400065FCF92
:100E500041E06DE40C94F905DC01ED91FC914585D0
:100E60006DE20C94F905CF93DF93EC0141E06CE463
:100E70000E94F905CE01DF91CF910C942C07CF93FE
:100E8000DF93EC01662379F00E942807CE010E94CF
:100E90002C07CE010E94330740E06CE4CE01DF91C5
:100EA000CF910C94F90540E06DE40E94F905EECF76
:100EB0001F93CF93DF93EC01162F60780E943F07BA
:100EC000612F6074CE010E943F07612F6072CE01D6
:100ED0000E943F07612F6071CE010E943F07612F82
:100EE0006870CE010E943F07612F6470CE010E949E
:100EF0003F07612F6270CE010E943F07612F617032
:100F0000CE010E943F07CE010E942807CE010E9419
:100F10002C07CE010E943307CE010E942807CE0184
:100F20000E942C0740E06CE4CE01DF91CF911F912D
:100F30000C94F905DC011896ED91FC9130E020E06D
:100F400040E069E10994DC011896ED91FC9130E0F4
:100F500020E040E068E10994CF93DF931F92CDB782
:100F6000DEB76983BE016F5F7F4F0E94D7020F908B
:100F7000DF91CF910895EF92FF921F93CF93DF936C
:100F8000EC01162F7A010E94A30760E4CE010E94B3
:100F9000AC07E885F9859701412F67E1CE010995F6
:100FA000CE01DF91CF911F91FF90EF900C949A07A3
:100FB000EF92FF921F93CF93DF93EC01142F7901EF
:100FC000663181F138F4643109F44BC0653179F050
:100FD00080E022C06831C9F150F16931C9F78091D0
:100FE000BA02882391F1CE010E949A072EC0809107
:100FF000BA02882319F0CE010E949A07CE010E94FE
:10100000A30760E0CE010E94AC07612FCE010E94D1
:10101000AC0781E08093BA02DF91CF911F91FF90DE
:10102000EF900895642F0E94AC0781E0F5CF809186
:10103000BA02882319F0CE010E949A07A70119313C
:1010400038F4612FCE010E94BB071092BA02EDCF97
:1010500068E1CE010E94BB07185188E1E80EF11C3F
:10106000EDCF8E898F3F11F488E78E8BE885F98567
:101070009701412F64E1CE01DF91CF911F91FF9045
:10108000EF900994CF93DF93EC01A889B989FD0112
:10109000349131969491319684911396FD01A491E7
:1010A0006317A8F1961798F1631B770B8A9FE02DC1
:1010B0001124E69FC001E79F900D1124280F392FBE
:1010C000311D83E0220F331F8A95E1F7C901049691
:1010D000DA01245F3F4FE889F989E80FF91FE491AD
:1010E000ED93019682179307B1F78D89882361F0FC
:1010F000FA019A01285F3F4F8191DF011197809596
:101100008C932E173F07C1F7DF91CF910895FA0115
:10111000CA0108961192E817F907E1F7E6CF4F9256
:101120005F926F927F928F929F92AF92BF92CF9277
:10113000DF92EF92FF920F931F93CF93DF93CDB780
:10114000DEB72D970FB6F894DEBF0FBECDBF7C0182
:10115000C62ED42EB22EDC0150968D919C91FC01AE
:101160003296149131960491512E560E040F81E05F
:10117000860F581608F411E0712CFE0131964F01CC
:1011800044244394672CAC2C262DA4016B2DC7015D
:101190000E944208AC86DD864B869A868986D701F6
:1011A0001496ED91FC919E01275F3F4F41E06FE067
:1011B000C70109956394A394A51430F3D394710ED9
:1011C000D01600F32D960FB6F894DEBF0FBECDBF3C
:1011D000DF91CF911F910F91FF90EF90DF90CF9013
:1011E000BF90AF909F908F907F906F905F904F9047
:1011F0000895EF92FF920F931F93CF93DF93F82EF2
:10120000E62EE0910807F09109073296C4911092FA
:1012100010078A01D0E0F80161918F01E091FA0690
:10122000F091FB0688EF96E009958F3F980771F0E3
:101230008E3F2FEF920779F3282F4E2D6F2D88EFD9
:1012400096E00E948F08FC0EDF5FE5CF8D2FDF91C7
:10125000CF911F910F91FF90EF9008952DEC32E008
:101260003093FB062093FA060C94F908EF92FF9254
:101270001F93CF93DF93EC01142F7901683151F163
:1012800030F46431D1F06731A9F080E006C06931F3
:1012900009F443C06032C9F781E0DF91CF911F911B
:1012A000FF90EF900895F70161917F01CE010E94B8
:1012B000580711501111F7CFEFCF41E06CE40E94B5
:1012C000F90541E06DE4CE010E94F905CE010E94CE
:1012D0002C07E2CF8F89882349F0CE010E9428078E
:1012E000CE010E942C07CE010E943307CE010E943E
:1012F000280740E06DE4CE010E94F905CE010E946E
:101300002C0740E06CE4CE010E94F90581E08F8B50
:101310006E89CE010E945807BFCF40E06DE40E9465
:10132000F905CE010E942C07CE010E943307CE01A1
:101330000E942807CE010E942C071F8AADCF0F9371
:101340001F93CF93DF938C01C62F642FCC32E8F428
:10135000CA3208F041C0C83271F1C93209F442C042
:1013600080E0C034D0F1CF73F801EC0FF11D868D11
:101370008F3F91F1C031E0F00E94220421E0892BDF
:1013800009F420E0F801218F27C0CD3289F140F324
:1013900084EB8C0F823020F7CF73C00FD12FD11D7B
:1013A0008E8D411135C061E00E94790460E08E8D20
:1013B0000E944B0411C0025E1F4FD0E0F8018191E2
:1013C0008F018F3F31F061E0D03108F062E00E9480
:1013D0007904DF5FD63191F781E0DF91CF911F91E2
:1013E0000F91089570E090E080E00E945005F4CFE6
:1013F00025E030E0433010F022E030E046E0429F4C
:10140000C001439F900D112405970197F1F7E4CF98
:1014100062E00E947904E0CF1F93CF93DF93EC0149
:10142000EC89FD8949AD6A3059F43396E491E40FB3
:10143000E9AF18AE81E090E0DF91CF911F91089560
:10144000262F3296149168AD04960E948F08E8AD5D
:10145000E10FE8AFEFCF8EBD0000CE99FECF8EB585
:1014600094E499BB08958FEF0C942B0A0F931F936C
:10147000CF93DF93EC010E9483058B010E94330A16
:101480008F3F69F00E948305601B710B6C177D070D
:10149000A8F380E0DF91CF911F910F91089581E033
:1014A000F9CFCF92DF92EF92FF920F931F93CF93DA
:1014B000DF93EC01162F69017A018E81882389F070
:1014C0008F8198859C012F5F3F4F38872F83823013
:1014D000924018F40E94330AF3CFCE010E94EE0529
:1014E0001E82CE010E94DC058CE291E00E94360A49
:1014F000812F80640E942B0A08E110E0D701C60109
:10150000002E04C0B695A795979587950A94D2F7B3
:101510000E942B0A08501109083F8FEF180771F736
:101520008FEF0E942B0A10E00E94330A8A8787FF00
:1015300004C01F3F11F01F5FF7CFDF91CF911F91C4
:101540000F91FF90EF90DF90CF900895CF92DF92B0
:10155000EF92FF920F93CF93DF93EC01690182E149
:10156000411551056105710599F08B85833039F07E
:1015700089E0440F551F661F771F8A95D1F79A019E
:10158000AB0168E1CE010E94510A882319F084E082
:101590008D832DC08EEF0E942B0A76018EEFD81A14
:1015A000F70181917F010E942B0AEC14FD04C1F721
:1015B0008FEF0E942B0A8FEF0E942B0A0E94330AA2
:1015C0008A878F71853071F4011116C0CE010E9497
:1015D000EE0581E0DF91CF910F91FF90EF90DF90CA
:1015E000CF90089581E18D83CE010E94EE05CE015A
:1015F0000E94EE0580E0EECF88E592E00E94360A78
:10160000811102C085E1C4CF20E030E0A9016DE086
:10161000CE010E94510A882311F084E1B9CF0E94C3
:10162000330A8111FACFD2CF0F934091BD0250916E
:10163000BE026091BF027091C00241155105610563
:10164000710589F0082F21EC32E090E080E00E94E3
:10165000A60A882349F01092BD021092BE02109291
:10166000BF021092C00281E00F9108950F93CF93B3
:10167000C82F8091BC02811105C0C1E08C2FCF9191
:101680000F91089540910101509102016091030171
:10169000709104010C2F21EC32E090E080E00E9478
:1016A000A60A811102C0C0E0E9CFCC2331F381E06A
:1016B0000E94140B8823B9F31092BC02DFCFAF92C3
:1016C000BF92CF92DF92EF92FF921F93CF93DF935F
:1016D0006B017C01142F8091010190910201A09176
:1016E0000301B09104018C159D05AE05BF0509F4F9
:1016F000ADC081E00E94360B8823E1F180910600A5
:101700008823A1F08091000090910100A091020037
:10171000B0910300C816D906EA06FB0639F4809199
:10172000070090910800892B09F44FC0C092000077
:10173000D0920100E0920200F092030080910B0031
:10174000A7019601833039F099E0220F331F441F1F
:10175000551F9A95D1F761E190E080E00E94510A0F
:10176000882391F083E08093050090E080E00E9460
:10177000EE0580E0DF91CF911F91FF90EF90DF9019
:10178000CF90BF90AF9008950E948305EB010E9417
:10179000330A80930A008F3F79F40E9483056C1B03
:1017A0007D0B6D32714098F38FE08093050090E0DF
:1017B00080E00E94EE05D9CF8E3FC1F5109208005F
:1017C0001092070081E080930600C1ECD2E081EC2A
:1017D000A82E84E0B82E0E94330A8993AC16BD0669
:1017E000D1F780910700909108009E5F90930800C8
:1017F0008093070020910900222319F0811592405F
:10180000E8F0809106008823C9F08091070090914C
:1018100008009C012F5F3F4F309308002093070082
:101820008230924028F40E94330AEFCF8DE0BDCF82
:1018300090E080E00E94EE0510920600C092010147
:10184000D0920201E0920301F09204014091BC02A7
:10185000412B4093BC0281E08DCF4F925F926F92FB
:101860007F928F929F92AF92BF92CF92DF92EF9230
:10187000FF920F931F93CF93DF93EC0142305105FA
:101880006105710590F480E0DF91CF911F910F9178
:10189000FF90EF90DF90CF90BF90AF909F908F9090
:1018A0007F906F905F904F90089589859A85AB8562
:1018B000BC850196A11DB11D84179507A607B70722
:1018C00010F3CB88DC88ED88FE888F89803109F0A1
:1018D00042C0BB27A72F962F852F480159012A0107
:1018E0003B01C80ED91EEA1EFB1E8091010190919A
:1018F0000201A0910301B0910401C816D906EA06BD
:10190000FB0699F58F898031C1F5B301A2015527F6
:1019100066277727440F551F4F535D4FFA01918279
:1019200080828091BC0281608093BC028A8982306F
:1019300080F08D819E81AF81B8858C0D9D1DAE1D7F
:10194000BF1D8093BD029093BE02A093BF02B093CF
:10195000C00281E099CFDB01CA01E7E0B695A79507
:1019600097958795EA95D1F7B8CF40E0C701B601C2
:101970000E945F0B8111C6CF86CFB301A2014F77C2
:10198000552766277727440F551F440F551F4F5380
:101990005D4FFA0180829182A282B382C2CF8F9280
:1019A0009F92AF92BF92CF92DF92EF92FF920F93EE
:1019B0001F93CF93DF93FC0181859285A385B48526
:1019C0000196A11DB11D84179507A607B70770F4EE
:1019D00080E0DF91CF911F910F91FF90EF90DF900A
:1019E000CF90BF90AF909F908F90089583889488F8
:1019F000A588B6888789803189F5BB27A72F962FC0
:101A0000852FE9016A017B018F01BC01CD01680DC1
:101A1000791D8A1D9B1D8090010190900201A0906C
:101A20000301B090040186169706A806B90601F5D1
:101A3000F8018789803111F5DD24EE24FF24F601B9
:101A4000EE0FFF1FEF53FD4F80819181B0E0A0E0CA
:101A500088839983AA83BB8381E0BBCFDB01CA0162
:101A6000C7E0B695A79597958795CA95D1F7C9CF41
:101A700040E00E945F0B8111DBCFAACFE894C7F84A
:101A8000DD24EE24FF24F601EE0FFF1FEE0FFF1FF3
:101A9000EF53FD4F80819181A281B381BF70D8CF78
:101AA0008F929F92AF92BF92CF92DF92EF92FF926E
:101AB0000F931F93CF93DF93EC018D8181110EC0A3
:101AC00080E0DF91CF911F910F91FF90EF90DF9019
:101AD000CF90BF90AF909F908F9008950B891C89F5
:101AE0002D893E89041715072607370748F34A0151
:101AF0005B01823031F48A869B86AC86BD8681E0AC
:101B0000E0CF81149104A104B10449F41E821F8224
:101B1000188619861A861B861C861D86F0CF0A85B4
:101B20001B852C853D85EB8DFC8D858590E0099688
:101B3000B901A8014150510961097109082E04C079
:101B400076956795579547950A94D2F77501640184
:101B5000E1E0CE1AD108E108F10804C0F694E79458
:101B6000D794C7948A95D2F7C416D506E606F70629
:101B700020F0012B022B032B11F58F89988DA98D55
:101B8000BA8D8E839F83A887B9878E010A5F1F4F06
:101B9000C114D104E104F10409F4ADCF4E815F8199
:101BA0006885798598018B8D9C8D0E94CF0C91E082
:101BB000C91AD108E108F1088111EACF81CFC41A0E
:101BC000D50AE60AF70AE1CF3F924F925F926F92F1
:101BD0007F928F929F92AF92BF92CF92DF92EF92BD
:101BE000FF920F931F93CF93DF93CDB7DEB72C9760
:101BF0000FB6F894DEBF0FBECDBF5C01DC015B9673
:101C00008D909C905C9716964D905D906D907C9019
:101C10001997411451046104710409F468C0BFEFBD
:101C20004B1A5B0A6B0A7B0A312CF4018185928581
:101C3000A385B4859C01AD012F5F3F4F4F4F5F4F90
:101C400029873A874B875C87730162011D821E8258
:101C50001F821886F40181859285A385B4852D8124
:101C60003E814F815885281739074A075B0708F0DE
:101C700056C089859A85AB85BC858C159D05AE05BA
:101C8000BF0550F482E0C82ED12CE12CF12C92E05B
:101C9000492E512C612C712C9E012F5F3F4FB701B3
:101CA000A601C4010E94CF0C8823C9F189819A81C1
:101CB000AB81BC81892B8A2B8B2B09F12601370143
:101CC0009FEF491A590A690A790A2D813E814F818D
:101CD00058852F5F3F4F4F4F5F4F2D833E834F837C
:101CE00058873FEFC31AD30AE30AF30AB3CFF401CC
:101CF00040805180628073803324339496CFC41423
:101D0000D504E604F70409F70FEF1FEF2FEF3FE0CC
:101D1000B701A601C4010E942D0C811119C080E0F9
:101D20002C960FB6F894DEBF0FBECDBFDF91CF91DA
:101D30001F910F91FF90EF90DF90CF90BF90AF90E9
:101D40009F908F907F906F905F904F903F900895FD
:101D5000D50116964D915D916D917C911997411524
:101D600051056105710539F097018601C4010E9492
:101D70002D0C8823A1F2D5011696CD92DD92ED921D
:101D8000FC921997332051F0D701C6010196A11D8D
:101D9000B11DF40180839183A283B383F501878908
:101DA000908DA18DB28D892B8A2B8B2B39F4848158
:101DB000C78AD08EE18EF28E80688483F50184819B
:101DC0008062848381E0ACCF1F93CF93DF93EC01DB
:101DD000162F8C8187FF2AC06E857F858889998917
:101DE00041E00E945F0B882361F1EA8980E2E89F6D
:101DF000F0011124EF53FD4F309719F18D8182309E
:101E000040F48B899C89AD89BE89848F958FA68F7C
:101E1000B78F8F89988D938F828F8F89988DA98D99
:101E2000BA8DB58BA48B8C818F778C83111103C0F5
:101E30008C818F7E8C83812FDF91CF911F910C94A9
:101E4000360B80E0DF91CF911F9108951F93CF93C0
:101E5000DF93EC018D81813031F090E080E0DF9103
:101E6000CF911F9108958C8181FFF7CF82FD1BC018
:101E700090E080E00E94DC050E94330A182F90E079
:101E800080E00E94EE051F3F41F78C8185FF1EC058
:101E90008D81882321F060E0CE010E94E40E8C81C8
:101EA0008F7D8C83DACF4B895C896D897E898A85A9
:101EB0009B85AC85BD8584179507A607B707C1F23A
:101EC000CE010E94500D8111D3CFC7CF4091BD02EA
:101ED0005091BE026091BF027091C002452B462B0B
:101EE000472B21F080E00E94140BB7CF80618C83D8
:101EF0002A853B85317080E092E0821B930BAFCF47
:101F00009F92AF92BF92CF92DF92EF92FF920F9388
:101F10001F93CF93DF9300D000D01F92CDB7DEB7D1
:101F20008C016D83DC0115968C911597813009F039
:101F3000B9C014968C9181FFB5C082FD9FC0D801B5
:101F40005B96ED91FC915C971A96AD90BD90CD900B
:101F5000DC901D9794809A94B601A50189E076954E
:101F60006795579547958A95D1F79422B1E0BB22A2
:101F7000992009F49FC0D8015B96ED91FC915C9784
:101F80001696CD90DD90ED90FC901997B2E0CB1AAB
:101F9000D108E108F108858504C0CC0CDD1CEE1CDD
:101FA000FF1C8A95D2F74685578560897189C40ED2
:101FB000D51EE61EF71EC90CD11CE11CF11CA11494
:101FC000B10409F00AC1F80142855385648575851D
:101FD00083899489A589B689481759076A077B07B9
:101FE00008F4FBC081E00E94360B882309F45AC034
:101FF000C0920101D0920201E0920301F09204012B
:102000008091BC0281608093BC02F501EF53FD4FCB
:102010008D818083F80182859385A485B58501969D
:10202000A11DB11D82879387A487B58743895489F1
:1020300065897689481759076A077B0738F4248130
:10204000838B948BA58BB68B20682483D801149640
:102050008C9183FD9FC081E090E00F900F900F90D6
:102060000F900F90DF91CF911F910F91FF90EF9004
:10207000DF90CF90BF90AF909F900895F801438973
:1020800054896589768982859385A485B5854817A5
:1020900059076A077B0709F452CFC8010E94500D07
:1020A00081114DCF81E090E0D80113969C938E93DF
:1020B000129749C0D80116964D915D916D917C9112
:1020C0001997A114B10409F071C0411551056105BA
:1020D000710589F557968D919D910D90BC91A02D1C
:1020E0000097A105B10509F04FC0C8010E94E40D99
:1020F0008823C1F2D8015B96ED91FC915C9716960E
:10210000CD90DD90ED90FC901997B2E0CB1AD108FC
:10211000E108F108858504C0CC0CDD1CEE1CFF1C19
:102120008A95D2F74685578560897189C40ED51E78
:10213000E61EF71E48CF9E012F5F3F4FCF010E9442
:10214000CF0C811103C090E080E087CF89819A8114
:10215000AB81BC81F801238D348DF901278948EFCB
:102160005FEF60E070E0203121F048EF5FEF6FEF4C
:102170007FE084179507A607B70730F0C8010E94D3
:10218000E40D8111F8CE8ECFF80186839783A08766
:10219000B187F1CEF8018581882309F483CF61E00E
:1021A000C8010E94E40E811156CF7CCF6A017B01E9
:1021B000B2E0CB1AD108E108F108858504C0CC0C47
:1021C000DD1CEE1CFF1C8A95D2F746855785608979
:1021D0007189C40ED51EE61EF71E41E0C701B60187
:1021E0000E945F0B811111CF5DCFDC018D919C911D
:1021F000DC01ED91FC910190F081E02D09942F928A
:102200003F924F925F926F927F928F929F92AF9286
:10221000BF92CF92DF92EF92FF920F931F93CF93D3
:10222000DF938FE00E9411055C0182E10E9411059D
:102230004C018EE00E9411056C0181E10E941105A4
:102240007C0180E10E9411058C0184E10E9411054E
:102250003C0183E10E941105EC019501A5EFBFEF60
:102260000E94831A28EE222E23E0322E412C512C7C
:10227000A20191010E94F219255F3F4F4F4F5F4F1E
:1022800030932F0720932E079401A9EFBFEF0E94F0
:10229000831AA20191010E94F219295F3F4F4F4F0B
:1022A0005F4F30933107209330079601A9EFBFEFBE
:1022B0000E94831AA20191010E94F219295F3F4FE7
:1022C0004F4F5F4F3093330720933207D70129EFE9
:1022D0003FEF4FEF5FEF0E94111AA20191010E94A0
:1022E000F219285F3F4F4F4F5F4F309335072093D0
:1022F00034079801A4EFB1E00E94461AA2019101AF
:102300000E94F2193093370720933607DE0129EF38
:102310003FEF4FEF5FEF0E94111AA20191010E945F
:10232000F219295F3F4F4F4F5F4F30933F07209384
:102330003E07D0934107C0934007220F331F2E570B
:102340003D4FF9018081918190933D0780933C0737
:10235000B301770C880B990B52E0660F771F881F2B
:10236000991F5A95D1F7A20191010E94F219309359
:102370003B0720933A0701E512E0D0E0C0E0F80106
:1023800081918F010E9422042196892BD1F481E052
:1023900080933905D0930701C0930601DF91CF9157
:1023A0001F910F91FF90EF90DF90CF90BF90AF9073
:1023B0009F908F907F906F905F904F903F902F9065
:1023C0000895C730D105D9F6E9CFCF92DF92EF92C9
:1023D000FF920F931F93CF93DF936C01EB017B016F
:1023E000E40EF51E10E000E0CE15DF0561F0699106
:1023F000D601ED91FC910190F081E02DC601099587
:10240000080F191FF1CFC801DF91CF911F910F91D4
:10241000FF90EF90DF90CF900895089590E080E0D6
:1024200008951F920F920FB60F9211242F933F938E
:102430004F935F936F937F938F939F93AF93BF93CC
:10244000EF93FF9385E596E00E945D03FF91EF9186
:10245000BF91AF919F918F917F916F915F914F91BC
:102460003F912F910F900FBE0F901F9018951F92C4
:102470000F920FB60F9211242F938F939F93EF9388
:10248000FF93E0916506F09166068081E0916B060E
:10249000F0916C0682FD1BC0908180916E068F5F6B
:1024A0008F7320916F06821741F0E0916E06F0E085
:1024B000EB5AF94F958F80936E06FF91EF919F91A4
:1024C0008F912F910F900FBE0F901F9018958081C4
:1024D000F4CF1F920F920FB60F9211242F933F93B8
:1024E0008F939F93AF93BF9380912D0590912E056D
:1024F000A0912F05B091300530912C0520E4230FD9
:102500002D3728F023EC230F0196A11DB11D209338
:102510002C0580932D0590932E05A0932F05B09345
:1025200030058091310590913205A0913305B0912D
:1025300034050196A11DB11D80933105909332059C
:10254000A0933305B0933405BF91AF919F918F91C4
:102550003F912F910F900FBE0F901F9018951F92D3
:102560000F920FB60F9211242F933F934F935F93C7
:102570006F937F938F939F93AF93BF93EF93FF934B
:102580008091B900887F803609F44AC0F0F588321E
:1025900009F4A5C018F5803109F499C0B8F488236E
:1025A00009F4F0C0883009F492C0FF91EF91BF9117
:1025B000AF919F918F917F916F915F914F913F91DB
:1025C0002F910F900FBE0F901F901895883109F42E
:1025D00086C0803251F78093050514C0803409F419
:1025E0009BC040F48033B9F38833F9F68093050536
:1025F00085ECAEC0803509F483C0883509F494C0F9
:10260000883499F60E948F05D0CF883909F48AC0A2
:1026100038F5883729F050F4883611F0803729F6DC
:1026200083E0809306051092040555C0883809F4AC
:1026300079C0803919F0803809F0B7CF809104054E
:10264000803208F06FC0E091040581E08E0F809326
:1026500004058091BB00F0E0EC51FB4F80833BC050
:10266000803B39F0D0F4803A09F477C0883A09F019
:102670009CCF84E0809306051092E3041092E2045C
:10268000F0E0E0E009958091E20481110FC081E063
:102690008093E2041092C20409C0803C09F4A8CFE0
:1026A000883C09F4A5CF883B09F07FCFE091E30493
:1026B00081E08E0F8093E304F0E0EE53FB4F8081C6
:1026C0008093BB009091E3048091E20429C0809143
:1026D0002B058093BB0085EC8093BC0066CF909166
:1026E0002A0580912905981758F5E0912A0581E07F
:1026F0008E0F80932A05F0E0E75FFA4F8081E9CFE3
:10270000E0912A0581E08E0F80932A058091BB001D
:10271000F0E0E75FFA4F808390912A0580912905C8
:102720009817C8F285E8D8CFE0912A0581E08E0F8E
:1027300080932A058091BB00F0E0E75FFA4F808329
:102740008091080581115ECF81E08093070584EABE
:102750008093BC001092060528CF8091040580323A
:1027600030F4E0910405F0E0EC51FB4F10826091F1
:10277000040570E084EE94E0F0E0E0E0099510924A
:10278000040536CF109205053DCF1F920F920FB66C
:102790000F9211248F938FEF809300018F910F90F0
:1027A0000FBE0F901F9018951F920F920FB60F92A9
:1027B00011242F933F934F935F936F937F938F9346
:1027C0009F93AF93BF93EF93FF93E0913705F09101
:1027D00038050995FF91EF91BF91AF919F918F912E
:1027E0007F916F915F914F913F912F910F900FBE0D
:1027F0000F901F901895CF9310925806109257067D
:1028000088EE93E0A0E0B0E08093590690935A06DA
:10281000A0935B06B0935C068CE592E0909356061D
:102820008093550685EC90E0909362068093610654
:1028300084EC90E0909364068093630680EC90E0D3
:10284000909366068093650681EC90E0909368060D
:102850008093670682EC90E090936A068093690605
:1028600086EC90E090936C0680936B0610926E0657
:1028700010926F06109270061092710681E5809397
:102880003A0581E080933B05109241051092420584
:10289000109245051092470582E090E0A0E0B0E07C
:1028A0008093480590934905A0934A05B0934B0542
:1028B00010925F0510926905109268058EE692E00D
:1028C000909367058093660510926B0585E596E009
:1028D0009093F3068093F206109286051092850578
:1028E000109288051092870510928A05109289052A
:1028F00010928C0510928B0510928E0510928D050A
:102900001092900510928F051092920510929105E9
:1029100010929405109293051092960510929505C9
:10292000109298051092970510929A0510929905A9
:1029300010929C0510929B0510929E0510929D0589
:102940001092A00510929F051092A2051092A10569
:102950001092A4051092A3051092A6051092A50549
:102960001092A8051092A7051092AA051092A90529
:102970001092AC051092AB051092AE051092AD0509
:1029800082EF96E09093B0058093AF051092B10569
:102990001092B2051092B3051092B8051092B705C7
:1029A0001092BA051092B9058FEF9FEF9093BC0576
:1029B0008093BB059093BE058093BD0583E0809313
:1029C000BF051092C0051092C1051092C205109269
:1029D000C30510924406E4ECF5E080E8DF011D92A7
:1029E0008A95E9F710924706109248061092490618
:1029F00010924A0610924B0610924C0610924D0609
:102A000010924E0610924F061092500610925106E8
:102A100010925206109253061092540610922F07ED
:102A200010922E0785E090E0909331078093300755
:102A300082E090E0909333078093320786E090E045
:102A4000909335078093340788EC90E09093370794
:102A500080933607109239071092380710923B077F
:102A600010923A0780ED91E090933D0780933C07E8
:102A70001092F7061092F60610922C0710922D076E
:102A80008AE792E09093F5068093F4061092F90697
:102A90001092F80610920D0710921007109204077A
:102AA0001092050710920607109207078FEF809388
:102AB0000E0780931207E6E1F7E08CE297E0CFEF94
:102AC000C1938E179F07E1F787E796E09093FD0685
:102AD0008093FC0688ED97E09093FF068093FE06B6
:102AE00086E399E090930107809300078FE999E0CE
:102AF000909303078093020730E020E040E069E014
:102B000088EF96E00E94770683E08093220784E0B6
:102B100080932307C0932107CF910895CF93DF932C
:102B2000CDB7DEB7AB970FB6F894DEBF0FBECDBF03
:102B30008091F20080618EBB80E88093F2009EB3AA
:102B40009093F2008093610091E0909361008093F4
:102B5000610010926100789484B5826084BD84B570
:102B6000816084BD85B5826085BD85B5816085BD88
:102B700080916E00816080936E0010928100809140
:102B800081008260809381008091810081608093C8
:102B90008100809180008160809380008091B100ED
:102BA00084608093B1008091B00081608093B00018
:102BB000809191008260809391008091910081606A
:102BC000809391008091900081608093900080912B
:102BD0007A00846080937A0080917A00826080938A
:102BE0007A0080917A00816080937A0080917A00E7
:102BF000806880937A001092C10061E085E00E94B5
:102C0000790401E512E088E5E82E82E0F82E62E022
:102C1000D8018D918D010E947904E016F106B9F773
:102C200061E084E00E94790461E083E00E9479041D
:102C300060E084E00E944B0460E083E00E944B046B
:102C4000FF24F394F09205018091A0008C70809392
:102C5000A000809105018295880F880F807C809369
:102C60007C0082E080933605F0923505E091AF0557
:102C7000F091B0050190F081E02DA089B1898C938D
:102C8000A485B5851C92A685B7858FE78C93108E99
:102C9000A489B58986E08C93A289B3898C918061DF
:102CA0008C93A289B3898C9188608C93A289B38913
:102CB0008C9180688C930288F389E02D80818F7DD0
:102CC000808384E08093B1051092B3051092B20521
:102CD0001092BA051092B9051092B8051092B70576
:102CE0008FEF9FEF9093BC058093BB059093BE053B
:102CF0008093BD050E948305609347067093480644
:102D00008093490690934A06109244061092C1059A
:102D10001092C0051092C2051092C305109246068B
:102D2000109245068091BF0581708260816080931A
:102D3000BF05E091FC06F091FD0630E020E040E0A8
:102D40006AE088EF96E009958E010F5F1F4F88E0DB
:102D5000F80111928A95E9F7C8010E949B02E0915F
:102D6000FC06F091FD0630E020E040E06BE088EFEB
:102D700096E00995E091FC06F091FD0630E020E038
:102D800040E06BE088EF96E0099580E18093810058
:102D90001092800080E49CE99093870080938600E5
:102DA00082E1809381008FEF90E1909338058093CA
:102DB0003705F0926F00BCE04B2E512C8091390505
:102DC000882309F4DDC180910601909107010197E4
:102DD0008830910520F4909339078093380710923A
:102DE000390561E085E00E944B048EE1D8011D9217
:102DF0008A95E9F7E0913807F0913907EE0FFF1F48
:102E0000EE0FFF1F80913C0790913D07E80FF91FDF
:102E100080912E0790912F0720813181820F931F7F
:102E20008C30910554F020913007309131072F5F9D
:102E30003F4F3093310720933007B2010E94691A47
:102E40009C01809130079091310701968A3091055D
:102E500008F086C0BCE0B89FA001B99F500D1124B6
:102E6000CA01820F931F99A788A78281938181301D
:102E7000910509F47AC008F48AC08230910509F4FA
:102E80007BC0039709F47CC03BA32AA3F901E20DA0
:102E9000F31DCF01B2010E94691A9DA38CA388245F
:102EA0008394912C3C9714F4912C812C260D371D82
:102EB000C901B2010E94691A9FA38EA3AA24A394F8
:102EC000B12C2C30310514F4B12CA12C20913A07EF
:102ED00030913B072115310539F0C9010297F12CDA
:102EE000E12C029708F05DC0E0903407F0903507C0
:102EF000E0913207F0913307FBA7EAA76801F0E001
:102F0000E0E0EE16FF0609F44CC0CF0163E070E08C
:102F10000E94691A81309105F1F5680D791D4AA565
:102F20005BA5640F751F880F991FD801A80FB91FE3
:102F300091964D915C916F5F7F4F8FEF9FEF6A305D
:102F4000710540F4ACE0A69FC001A79F900D11242D
:102F5000840F951FD6018D939D936D013196D1CF2E
:102F6000AFEFBFEFB9A7A8A780CFE7E06E2E712C17
:102F700063E0262E312C88CF76E0672E712CF8CFB7
:102F800058E0652E712C94E0292E312C7DCF47E03E
:102F9000642E712CF8CF8230910509F66A0D7B1DE5
:102FA000BECFC9010197029708F042C020913407B3
:102FB0003091350721503109C0903207D090330746
:102FC000F701EE0FFF1FE00FF11F37FD68C0C901C9
:102FD00063E070E00E94691A8130910519F5680D6F
:102FE000791D6C0D7D1D880F991FD801A80FB91F81
:102FF00091964D915C916F5F7F4F8FEF9FEF6A309D
:10300000710540F4BCE0B69FC001B79F900D11243C
:10301000840F951F819391934FEFE41AF40A215086
:103020003109D3CF82309105E1F66A0D7B1DD9CFEE
:1030300023303105A1F552E0E516F10480F1580185
:10304000D12CC12C470161E0861A9108C814D9041B
:1030500030F50E94E2199C01B7016C197D098FEFD0
:103060009FE70E94551A6F5F7F4FC9010E94551A52
:10307000FB01EC0DFD1DEE0FFF1FE00FF11F808126
:103080009181D5012D913D915D0131832083FD0119
:10309000329791838083BFEFCB1ADB0AD7CF98A4F6
:1030A000E89497F860E98091AF059091B0050E948F
:1030B000F510692D8091AF059091B0050E94F51033
:1030C0006FE78091AF059091B0050E94F51058010F
:1030D000D12CC12C8091AF059091B005CE14DF04A6
:1030E000D1F1F5012081F2E0AF0EB11C822EE894FF
:1030F00087F860E90E94F510682D8091AF059091E6
:10310000B0050E94F5106FE78091AF059091B00572
:103110000E94F510609136077091370790E080E0CB
:103120000E94500560E88091AF059091B0050E9423
:10313000F510682D8091AF059091B0050E94F510B3
:1031400060E08091AF059091B0050E94F5103FEFCF
:10315000C31AD30ABFCF60E80E94F510692D809191
:10316000AF059091B0050E94F51060E08091AF0529
:103170009091B0050E94F51060E085E00E944B043C
:1031800088ED91E0909309078093080781E0809390
:103190000D0747EC51E060E080E00E942E0910929C
:1031A0000D0740EC51E061E080E00E942E0983E0D1
:1031B00080932C0780932D0720913E0730913F0785
:1031C00050E040E019A27E0161E2E60EF11CCA0166
:1031D000B9012AE030E040E050E00E94241A605D2E
:1031E000D7016E937D01211531054105510579F710
:1031F000109769F0FD0101900020E9F73197AF01C8
:103200004A1B5B0BBD0184EF96E00E94E5118091A3
:1032100041078F93809140078F9382E992E09F93BB
:103220008F931F930F930E94921AA80163E085E089
:103230000E942E090F900F900F900F900F900F90FB
:10324000E0913E07F0913F07E830F105C0F4E55DFD
:10325000F64E0C947D1A33195719601969197219B1
:103260007B1984198D1945EB51E061E086E00E94DD
:103270002E0947EA51E062E080E00E942E09E091C9
:10328000FC06F091FD0630E020E040E060E188EFD0
:1032900096E0099580E090E0892B09F48FCD0E949B
:1032A0004903882309F48ACD0E94000087CD4CE9A8
:1032B00051E061E086E00E942E094EE851E0DBCF4C
:1032C00043E851E061E086E00E942E0945E751E0C5
:1032D000D2CF4AE651E061E086E00E942E094CE53B
:1032E00051E0C9CF41E551E061E086E00E942E093E
:1032F00043E451E0C0CF48E351E061E086E00E9442
:103300002E094AE251E0B7CF4FE151E061E086E09B
:103310000E942E0941E151E0AECF46E051E061E06C
:1033200086E00E942E0948EF50E0A5CF8F929F9231
:10333000AF92BF92CF92DF92EF92FF92CF93DF9343
:10334000EC01688179818A819B8161157105810514
:10335000910521F464E279ED8BE597E02DE133EFFF
:1033600041E050E00E94F21949015A019B01AC0171
:10337000A7EAB1E40E94111A6B017C01ACEEB4EF34
:10338000A50194010E941F1ADC01CB018C0D9D1D2B
:10339000AE1DBF1DB7FF03C00197A109B0488883C8
:1033A0009983AA83BB839F77DF91CF91FF90EF90A2
:1033B000DF90CF90BF90AF909F908F9008950E9424
:1033C0009619089588E091E00E9496190895B0E05A
:1033D000A0E08093080190930901A0930A01B093A3
:1033E0000B010895052E97FB1EF400940E94091A04
:1033F00057FD07D00E94241A07FC03D04EF40C940A
:10340000091A50954095309521953F4F4F4F5F4F8A
:10341000089590958095709561957F4F8F4F9F4F40
:1034200008950E94461AA59F900DB49F900DA49FE9
:10343000800D911D11240895B7FF0C94111A0E945C
:10344000111A821B930B0895A1E21A2EAA1BBB1B13
:10345000FD010DC0AA1FBB1FEE1FFF1FA217B30760
:10346000E407F50720F0A21BB30BE40BF50B661F76
:10347000771F881F991F1A9469F76095709580953A
:1034800090959B01AC01BD01CF010895A29FB001B1
:10349000B39FC001A39F700D811D1124911DB29F88
:1034A000700D811D1124911D0895AA1BBB1B51E1B4
:1034B00007C0AA1FBB1FA617B70710F0A61BB70BA4
:1034C000881F991F5A95A9F780959095BC01CD0149
:1034D000089597FB072E16F4009407D077FD09D0C6
:1034E0000E94551A07FC05D03EF4909581959F4F98
:1034F0000895709561957F4F0895EE0FFF1F059019
:10350000F491E02D09940E94461A332312F48A1B89
:103510009B0B0C948D1A0E94461AB7FF0895821BCC
:10352000930B0895AEE0B0E0E8E9FAE10C94411D98
:103530000D891E8986E08C831A8309838FEF9FE7AC
:103540009E838D83AE01475E5F4F6F89788DCE017C
:1035500001960E94B51A2F813885020F131FF801BA
:1035600010822E96E4E00C945D1DABE0B0E0EBEB36
:10357000FAE10C94331D7C013B018A01FC011782A6
:103580001682838181FFC8C1CE0101965C01F701DB
:103590009381F30193FD859193FF81913F018823EE
:1035A00009F453C1853239F493FD859193FF8191DC
:1035B0003F01853229F4B70190E00E94A51CE7CFB6
:1035C000912C212C312CFFE1F31538F08B3211F1C5
:1035D00090F4803209F1833229F137FC3CC020EDB0
:1035E000280F2A3050F536FE20C08AE0989E200D24
:1035F0001124922E06C08D3291F0803371F76894B9
:1036000030F8F30193FD859193FF81913F01811182
:10361000DACF21C0689431F8689432F8F2CF689418
:1036200033F8EFCF689434F8ECCFEAE02E9E200D0B
:103630001124222E689435F8E4CF8E3229F436FC1A
:1036400004C1689436F8DDCF8C3619F4689437F8E5
:10365000D8CF8836B1F2982F9F7D95549330E0F003
:103660008336A1F18337C1F1833509F063C02801A6
:10367000F2E04F0E511CF801C080D180692D70E03E
:1036800036FC02C06FEF7FEFC6010E948F1C4C0119
:10369000689437F882010AC00C5F1F4FFFE3F9837B
:1036A00088248394912C6501E89437F833FE2DC06B
:1036B000522C8114910471F5552009F468CFB7019B
:1036C00080E290E00E94A51C5A94F6CFF801808118
:1036D00089830E5F1F4FE4CF2801F2E04F0E511C8B
:1036E000F801C080D180692D70E036FC02C06FEF18
:1036F0007FEFC6010E949A1C4C018201D5CFB70111
:1037000080E290E00E94A51C2A942814190409F074
:10371000B0F7CECFF60137FC859137FE81916F016E
:10372000B70190E00E94A51C51105A94F1E08F1A45
:103730009108BFCF843619F0893609F077C0F801B7
:1037400037FE6BC060817181828193810C5F1F4F56
:10375000F32DFF763F2E97FF09C0909580957095C9
:1037600061957F4F8F4F9F4F689437F82AE030E084
:10377000A5010E94D51CC82ECA188C2C432C36FEDD
:103780000CC0E89440F8C91440F434FE05C032FC83
:1037900003C0F32DFE7E4F2E892C44FE95C0FE0102
:1037A000EC0DF11D8081803309F087C0242D297E26
:1037B000422E842D8870582E43FC95C040FE8FC049
:1037C0009C2C821418F42C0C922C981844FE91C056
:1037D000B70180E390E00E94A51C42FE09C088E783
:1037E00090E041FE02C088E590E0B7010E94A51C70
:1037F000C91408F48AC0CA94D12C9FEFC91AD90AF7
:10380000CA0CDB1CF60182916F01B70190E00E94A7
:10381000A51CAC14BD04B1F74FCF60817181072E98
:10382000000C880B990B0E5F1F4F92CFD32CE8949E
:10383000D4F82AE030E0853739F1232D297FD22EC4
:103840008F3601F148F48835A9F0F7018681978118
:103850002B96E2E10C944F1D803749F08837A9F789
:10386000D4FE02C06894D2F820E130E00DC0689424
:10387000D4F8F6CF34FE03C0822F8660D82E20E124
:1038800032E002C028E030E0F801D7FE0FC06081CE
:103890007181828193810C5F1F4FA5010E94D51C0D
:1038A000C82ECA183D2CE89437F867CF6081718123
:1038B00090E080E00E5F1F4FF0CF42FC02C0839487
:1038C00078CF8394839475CF842D867809F471CF53
:1038D000F6CFB70180E290E00E94A51C8394821489
:1038E000C0F3512C73CF522C5818821408F46ECFA9
:1038F000F8CF842D867809F47BCF8BE241FE80E2FD
:1039000047FC8DE2B70190E071CFB70180E390E012
:103910000E94A51C9A946CCF8FEF9FEF99CFFC016A
:103920000590615070400110D8F7809590958E0FEA
:103930009F1F0895FC016150704001900110D8F75D
:10394000809590958E0F9F1F08950F931F93CF938F
:10395000DF93182F092FEB018B8181FD09C01FEF29
:103960000FEF812F902FDF91CF911F910F9108952D
:1039700082FF14C02E813F818C819D8128173907D9
:103980003CF4E881F981CF01019699838883108303
:103990008E819F8101969F838E83E3CFE885F98591
:1039A000812F0995892BA1F3DACFFA01AA272830B4
:1039B00051F1203181F1E8946F936E7F6E5F7F4FFC
:1039C0008F4F9F4FAF4FB1E03ED0B4E03CD0670F78
:1039D000781F891F9A1FA11D680F791F8A1F911DCB
:1039E000A11D6A0F711D811D911DA11D20D009F41B
:1039F00068943F912AE0269F11243019305D31935D
:103A0000DEF6CF010895462F4770405D4193B3E045
:103A10000FD0C9F7F6CF462F4F70405D4A3318F0EC
:103A2000495D31FD4052419302D0A9F7EACFB4E09D
:103A3000A6959795879577956795BA95C9F7009755
:103A40006105710508959B01AC010A2E06945795F6
:103A5000479537952795BA95C9F7620F731F841F4D
:103A6000951FA01D08952F923F924F925F926F92E3
:103A70007F928F929F92AF92BF92CF92DF92EF92FE
:103A8000FF920F931F93CF93DF93CDB7DEB7CA1B7F
:103A9000DB0B0FB6F894DEBF0FBECDBF09942A88AA
:103AA000398848885F846E847D848C849B84AA8452
:103AB000B984C884DF80EE80FD800C811B81AA81DF
:103AC000B981CE0FD11D0FB6F894DEBF0FBECDBFAA
:083AD000ED010895F894FFCF09
:103AD80008FFFFFFFF0101000100000000000200D5
:103AE80001000000030001000500010006000000BD
:103AF800080000000A0001000000010002000200A6
:103B08000300030005000100070000000800000092
:103B18000B00020000000100020002000300000088
:103B28000500010007000100080000000A0000006D
:103B3800000000000200010004000200050000006F
:103B480007000100090001000A0000000000000051
:103B58000200000004000100060002000700000047
:103B6800090001000B000100000001000100000035
:103B78000300000005000100070002000800000023
:103B88000A0001000000010002000100030000001B
:103B98000500000007000100090002000A000000FB
:103BA8000000000002000100040001000500000000
:103BB80007000000090001000B0002001815A015FD
:103BC800C019FF1815A115C819FF1815AE19FF1847
:103BD80015AF19FF1815AE15D5168015A8161F159F
:103BE800D316001540158D16141520160015A115AD
:103BF800C815DA16021581168F15D916F115DB16B8
:103C080040152E15A415A619FF0001140A64643284
:103C18003200127A00000428961004000080002068
:103C280000060708090A0B0C000000007E03DF02EB
:103C38000C03C5033D031B032F0300000000800F86
:103C4800DF02260F0D12000000000C0AE5110E120B
:103C58000D12D001B40198017C01600144012801D2
:063C68000C01253464008C
:00000001FF
