:100000000C94AF000C94D7000C94D7000C94D7003C
:100010000C94D7000C94D7000C94D7000C942409AE
:100020000C94D7000C94D7000C94D7000C94D700F4
:100030000C94D7000C94D7000C94DC0A0C94D700D5
:100040000C9480090C94D7000C94D7000C94D70022
:100050000C94D7000C94780B0C94D7000C94D70018
:100060000C94C6090C94D70007634236B79BD8A7F7
:100070001A39685618AEBAAB558C1D3CB7CC5763CD
:10008000BD6DEDFD753EF6177231BF000000803F7B
:1000900008000000BE922449123EABAAAA2ABECD97
:1000A000CCCC4C3E00000080BEABAAAAAA3E000009
:1000B0000000BF000000803F000000000008417801
:1000C000D3BB4387D1133D190E3CC3BD4282AD2B38
:1000D0003E68EC8276BED98FE1A93E4C80EFFFBE30
:1000E00001C4FF7F3F00000000000000000024006A
:1000F00027002A002D000000000023002600290010
:100100002C0000000008500201000003040700005A
:1001100000000000000000000102040810204080E0
:100120000102040810200102040810200208010442
:1001300010204000000000250028002B002E0004A5
:10014000040404040404040202020202020303037E
:10015000030303050505050505050200D30B11245E
:100160001FBECFEFD8E0DEBFCDBF12E0A0E0B1E010
:10017000E6EFF6E202C005900D92A037B107D9F77D
:1001800023E0A0E7B2E001C01D92A437B207E1F777
:1001900010E0CFEAD0E004C02197FE010E94731363
:1001A000CE3AD107C9F70E94520C0C9479130C94E3
:1001B000000080E008951F93CF93DF9300D000D01C
:1001C0001F92CDB7DEB71C8221E02B839A838983EF
:1001D000E0912D03F0912E0311891D82A0912D0332
:1001E000B0912E03E0913103F09132039E012F5F15
:1001F0003F4F50964C916FE08DE293E009958D81D1
:100200008F5F8D83811750F30F900F900F900F9099
:100210000F90DF91CF911F9108959B01DC011896FB
:10022000ED91FC9141E067E10994089581508B3094
:1002300088F5E82FF0E0E15EFE4F0C947313340173
:1002400038012A0130014A014A013B0141014501BF
:100250004B014F01809180008F778093800008953B
:10026000809180008F7DF9CF84B58F7784BD08950C
:1002700084B58F7DFBCF8091B0008F778093B000E5
:1002800008958091B0008F7DF9CF809190008F7795
:10029000809390000895809190008F7DF9CF809198
:1002A0009000877FF5CFCF93DF93282F30E0F901BF
:1002B000EE5FFE4F8491F901E85EFE4FD491F901A3
:1002C000E15CFE4FC491CC23A1F081110E94160184
:1002D000EC2FF0E0EE0FFF1FEA50FF4FA591B49115
:1002E000EC91ED2381E090E009F480E0DF91CF9183
:1002F000089580E090E0FACF1F93CF93DF93282FEB
:1003000030E0F901EE5FFE4F8491F901E85EFE4FA7
:10031000D491F901E15CFE4FC491CC23A9F0162FD2
:1003200081110E941601EC2FF0E0EE0FFF1FED5C33
:10033000FE4FA591B4918FB7F894EC91111108C0BC
:10034000D095DE23DC938FBFDF91CF911F9108956D
:10035000DE2BF8CF9091C60189130DC0EAE5F1E0DC
:10036000E4919FEF9093C601E13059F038F0E2300C
:1003700071F0E330E9F060E00C947C0110926E00C3
:10038000FACF90916F009D7F90936F00F4CF909182
:1003900070009D7F9093700091E09093B0009091D9
:1003A000B100987F94609093B1001092B300E3CFB6
:1003B000909171009D7F90937100DDCFCF93DF937B
:1003C000282F30E0F901E85EFE4F4491215C3E4F5A
:1003D000F9012491843019F583E08093A000222351
:1003E000D9F0822F90E0880F991FFC01E651FF4F52
:1003F000A591B491FC01ED5CFE4FC591D4916230A2
:1004000019F59FB7F8942C91842F809582238C93B3
:10041000E8814E2B48839FBFDF91CF9108959AEEDC
:10042000980F923020F48FEF84BF84BFD8CF8A31E9
:10043000B1F68091F00082608EBB80E88093F0007E
:100440008EB38093F000CBCF8FB7F894EC914E2B06
:100450004C938FBFE1CFCF92DF92EF92FF92CF9379
:100460006C018091C601833049F08F3F09F469C067
:10047000CF91FF90EF90DF90CF900895EAE5F1E003
:10048000C491C7FDF5CF61E083E00E94DE01CC237B
:1004900019F0C23009F03FC1F12CE12C60E074E2A8
:1004A00084EF90E0A70196010E945A0F2150310974
:1004B000410951092F3F31054105510509F00CF45F
:1004C0000FC160E874E88EE190E0A70196010E94F8
:1004D0005A0F2150310941095109C23009F0C1C0F8
:1004E00082E02F3F31054105510509F00CF4C6C1EA
:1004F00060E271EA87E090E0A70196010E945A0F3E
:10050000215031094109510983E02F3F310541054F
:10051000510509F00CF4B2C160E970ED83E090E0A0
:10052000A70196010E945A0F215031094109510932
:100530002F3F31054105510511F00CF0B0C084E0AA
:100540009DC183E08093C601EAE5F1E0C491CF3F0D
:1005500009F48ECFC13039F168F0C23009F441C0DE
:10056000C33009F460C0C7FD83CF61E083E00E941F
:10057000DE018FCF14BC15BC84B5826084BD85B507
:10058000816085BDE2E4F1E0E491F0E0EE0FFF1F51
:10059000ED5CFE4F85919491EBE1F1E0E491E09305
:1005A0001803C0E070CF10928000109281008091FB
:1005B00081008860809381008091810081608093B8
:1005C0008100E2E4F1E0E491F0E0EE0FFF1FED5C6A
:1005D000FE4F85919491EBE1F1E0E491E0931703F4
:1005E00052CF1092B0001092B1008091B0008260A2
:1005F0008093B0008091B10081608093B100E2E40B
:10060000F1E0E491F0E0EE0FFF1FED5CFE4F85910D
:1006100094919093160380931503EBE1F1E0E4913C
:10062000E093140330CF10929000109291008091CB
:100630009100886080939100809191008160809307
:100640009100E2E4F1E0E491F0E0EE0FFF1FED5CD9
:10065000FE4F85919491EBE1F1E0E491E093130377
:1006600012CF2F3F31054105510509F00CF451C05F
:1006700060E970ED83E090E0A70196010E945A0FB7
:100680002150310941095109CC2309F4CDC02F3F34
:1006900031054105510511F00CF0CEC050CF68E492
:1006A00078EE81E090E0A70196010E945A0F215058
:1006B00031094109510985E02F3F310541055105B7
:1006C00009F00CF4DBC064E274EF80E090E0A70175
:1006D00096010E945A0F2150310941095109BAC0AF
:1006E00081E0C111CBC095B5987F892B85BD27BD11
:1006F0008FEF9FEFDC018093250390932603A09357
:100700002703B093280380916E00826080936E006F
:10071000AFCE82E0E6CFF12CE12C60E074E284EF12
:1007200090E0A70196010E945A0F2150310941091A
:10073000510991E02115310581E0480751056CF020
:1007400060E970ED83E090E0A70196010E945A0FE6
:10075000215031094109510993E0C130D9F4809108
:100760008100887F892B80938100309389002093BA
:1007700088008FEF9FEFDC01809321039093220389
:10078000A0932303B093240380916F008260809331
:100790006F006ECEC33009F077C080919100887FE2
:1007A000892B80939100209398008FEF9FEFDC01BD
:1007B0008093190390931A03A0931B03B0931C0317
:1007C0008091710082608093710052CEC23019F026
:1007D000C33049F34DCE2093B3008FEF9FEFDC0180
:1007E00080931D0390931E03A0931F03B0932003D7
:1007F000809170008260809370003ACE84E02F3F39
:1008000031054105510509F008F46DCF69E07DE33C
:1008100080E090E0A70196010E945A0F2150310913
:100820004109510985E05FCF83E02F3F3105410544
:10083000510509F00CF457CF64E274EF80E090E0CA
:10084000A70196010E945A0F21503109410951090F
:10085000CC23A1F286E02F3F31054105510571F00F
:1008600068F069E07DE380E090E0A70196010E94D6
:100870005A0F215031094109510987E09091B10087
:10088000987F892B8093B100C13009F46ECF0CF0B2
:100890009DCFC111EDCD2BCF3FB7F89480910E03C2
:1008A00090910F03A0911003B091110326B5A89B5E
:1008B00005C02F3F19F00196A11DB11D3FBFBA2FF2
:1008C000A92F982F8827BC01CD01620F711D811DB2
:1008D000911D660F771F881F991F08958F929F9211
:1008E000AF92BF92CF92DF92EF92FF926B017C01A9
:1008F0000E944C044B015C01C114D104E104F104D9
:10090000B9F00E944C04681979098A099B09683E6C
:1009100073408105910580F321E0C21AD108E108F6
:10092000F10888EE880E83E0981EA11CB11CE4CF6C
:10093000FF90EF90DF90CF90BF90AF909F908F90FF
:10094000089585ED8093BC008091BC0084FDFCCFB0
:100950001092E3020895613298F42091E30224306A
:1009600089F46093BF02282FAFE9B2E0FC018E2F1B
:10097000821B861710F080E0089581918D93F7CF48
:1009800081E0089582E008958FEF9FEF08958FEF43
:100990009FEF089580919E0290E091958195910935
:1009A0000895CF93DF93CB01EA01642F0E94AB043B
:1009B000CE01DF91CF910895CF93DF931F92CDB7F2
:1009C000DEB7698361E0CE0101960E94AB0481E04D
:1009D00090E00F90DF91CF910895DC011A96ED9190
:1009E000FC9130E020E00994DC011696ED91FC9139
:1009F00030E020E040E069E10994DC011696ED91D9
:100A0000FC9130E020E040E068E109949A01DC01CB
:100A10001696ED91FC91462F67E10994EF92FF92B3
:100A20000F931F93CF93DF931F92CDB7DEB77C0157
:100A30008B01D8016C91673129F150F46531A0F434
:100A40000F90DF91CF911F910F91FF90EF9008953C
:100A50006A3118F16E3FA1F7F8014181498369E2DB
:100A6000C7010E94ED040BC0F80141814983D70101
:100A70001696ED91FC9130E020E0C70109950E5FDC
:100A80001F4FD7CFF80181818983AE014F5F5F4F40
:100A900061E0C7010E940605F2CF0F5F1F4FD7012B
:100AA0001696ED91FC9130E020E040E0C7010995F9
:100AB000C0CF462FDC011696ED91FC9130E020E08E
:100AC00066E10994462FDC011696ED91FC9130E029
:100AD00020E065E10994EF92FF920F931F93CF936B
:100AE000DF93EC01042F7901693069F484E492E02A
:100AF000998388831C8A81E0DF91CF911F910F91A8
:100B0000FF90EF9008956D3009F475C038F46A30A5
:100B100091F16B3009F468C080E0EECF6E3009F4DB
:100B20007DC06F30C9F70E94FD04F7011381110FDA
:100B3000110F110F6C89160F612F62956F70606134
:100B4000CE010E946205612F6F70CE010E94620586
:100B5000F7016481606BCE010E946205F70140815C
:100B600051816281660F660F660FCE010E940605F5
:100B70000150A1F75DC0EA85FB8530E020E040E050
:100B800068E20995EE81FF8130E020E040E064E119
:100B9000CE01099541E06BE4CE010E94ED04E881AD
:100BA000F981448169E2CE010E94ED0440E06BE4EA
:100BB000CE010E94ED04E881F981448169E2CE0111
:100BC0000E94ED0441E06BE4CE010E94ED04E88157
:100BD000F981458169E2CE010E94ED046FE072E087
:100BE000CE010E940E0587CF6AE072E04423C1F374
:100BF00065E072E0F5CF411109C06EEF71E00E942F
:100C00000E05E881F98182898C8B75CF67EF71E0E1
:100C10000E940E05E881F9818389F6CF0E94FD04C8
:100C200061E8CE010E946205602FCE010E94590545
:100C3000CE010E94F4045FCF41E06DE40C94ED041A
:100C4000DC01ED91FC9145856DE20C94ED04CF93B0
:100C5000DF93EC0141E06CE40E94ED04CE01DF91F2
:100C6000CF910C942006CF93DF93EC01662379F0AB
:100C70000E941C06CE010E942006CE010E9427067B
:100C800040E06CE4CE01DF91CF910C94ED0440E0A4
:100C90006DE40E94ED04EECF1F93CF93DF93EC0140
:100CA000162F60780E943306612F6074CE010E9477
:100CB0003306612F6072CE010E943306612F60718E
:100CC000CE010E943306612F6870CE010E94330668
:100CD000612F6470CE010E943306612F6270CE01D5
:100CE0000E943306612F6170CE010E943306CE014F
:100CF0000E941C06CE010E942006CE010E942706FB
:100D0000CE010E941C06CE010E94200640E06CE449
:100D1000CE01DF91CF911F910C94ED04DC01189668
:100D2000ED91FC9130E020E040E069E10994DC01C4
:100D30001896ED91FC9130E020E040E068E10994E4
:100D4000CF93DF931F92CDB7DEB76983BE016F5F8C
:100D50007F4F0E940D010F90DF91CF910895EF9288
:100D6000FF921F93CF93DF93EC01162F7A010E941D
:100D7000970660E4CE010E94A006E885F9859701F8
:100D8000412F67E1CE010995CE01DF91CF911F91EF
:100D9000FF90EF900C948E06EF92FF921F93CF93EB
:100DA000DF93EC01142F7901663181F138F464315D
:100DB00009F44BC0653179F080E022C06831C9F197
:100DC00050F16931C9F780919D02882391F1CE01DC
:100DD0000E948E062EC080919D02882319F0CE01BC
:100DE0000E948E06CE010E94970660E0CE010E940E
:100DF000A006612FCE010E94A00681E080939D0293
:100E0000DF91CF911F91FF90EF900895642F0E9482
:100E1000A00681E0F5CF80919D02882319F0CE01D4
:100E20000E948E06A701193138F4612FCE010E946D
:100E3000AF0610929D02EDCF68E1CE010E94AF0691
:100E4000185188E1E80EF11CEDCF8E898F3F11F427
:100E500088E78E8BE885F9859701412F64E1CE0103
:100E6000DF91CF911F91FF90EF900994CF93DF9383
:100E7000EC01A889B989FD0134913196949131969C
:100E800084911396FD01A4916317A8F1961798F128
:100E9000631B770B8A9FE02D1124E69FC001E79F1B
:100EA000900D1124280F392F311D83E0220F331F9D
:100EB0008A95E1F7C9010496DA01245F3F4FE8897A
:100EC000F989E80FF91FE491ED93019682179307D2
:100ED000B1F78D89882361F0FA019A01285F3F4FAD
:100EE0008191DF01119780958C932E173F07C1F7F1
:100EF000DF91CF910895FA01CA0108961192E8177F
:100F0000F907E1F7E6CFEF92FF921F93CF93DF93BC
:100F1000EC01142F7901683151F130F46431D1F0D2
:100F20006731A9F080E006C0693109F443C060323E
:100F3000C9F781E0DF91CF911F91FF90EF90089565
:100F4000F70161917F01CE010E944C0611501111F1
:100F5000F7CFEFCF41E06CE40E94ED0441E06DE497
:100F6000CE010E94ED04CE010E942006E2CF8F89BF
:100F7000882349F0CE010E941C06CE010E94200663
:100F8000CE010E942706CE010E941C0640E06DE4BF
:100F9000CE010E94ED04CE010E94200640E06CE4E8
:100FA000CE010E94ED0481E08F8B6E89CE010E94FC
:100FB0004C06BFCF40E06DE40E94ED04CE010E94DC
:100FC0002006CE010E942706CE010E941C06CE01FB
:100FD0000E9420061F8AADCF0F931F93CF93DF93FC
:100FE0008C01C62F642FCC32E8F4CA3208F041C01D
:100FF000C83271F1C93209F442C080E0C034D0F186
:10100000CF73F801EC0FF11D868D8F3F91F1C03148
:10101000E0F00E94530121E0892B09F420E0F8015F
:10102000218F27C0CD3289F140F384EB8C0F8230C1
:1010300020F7CF73C00FD12FD11D8E8D411135C038
:1010400061E00E94DE0160E08E8D0E947C0111C093
:10105000025E1F4FD0E0F80181918F018F3F31F088
:1010600061E0D03108F062E00E94DE01DF5FD6313E
:1010700091F781E0DF91CF911F910F91089570E07A
:1010800090E080E00E946E04F4CF25E030E0433031
:1010900010F022E030E046E0429FC001439F900DF7
:1010A000112405970197F1F7E4CF62E00E94DE0179
:1010B000E0CF2F923F924F925F926F927F928F92EA
:1010C0009F92AF92BF92CF92DF92EF92FF920F93D7
:1010D0001F93CF93DF93CDB7DEB72D970FB6F8945C
:1010E000DEBF0FBECDBFDC015496ED91FC9155974C
:1010F000D996DC90D997CF0103966A3019F5FC0197
:101100008491D80ED996DC92D997D8961C9281E01A
:1011100090E02D960FB6F894DEBF0FBECDBFDF91E5
:10112000CF911F910F91FF90EF90DF90CF90BF90E4
:10113000AF909F908F907F906F905F904F903F9077
:101140002F90089532962490D8965C90D8975D01A0
:1011500024E0A20EB11CF490FC01E490352C3F0C6D
:10116000ED0C81E0850D381610F4FF24F394C62EA3
:101170008D01612CCE0101964C01462C752C242D3D
:10118000A4016C2DC5010E9436077C86DD8691E0A6
:101190009B879A868986D8011896ED91FC919E01CD
:1011A000275F3F4F41E06FE0C50109954394739479
:1011B000731428F3D3946F0CDE14F8F2F80180ADA9
:1011C000820D80AFA4CFEAE7F0E087E0808380E67D
:1011D00080937C008FE180937E00ABE7B0E08C9140
:1011E0008C938081886A8083808180648083089565
:1011F000CF92DF92EF92FF920F931F93CF93DF93E3
:101200006C01EB017B01E40EF51E10E000E0CE1551
:10121000DF0561F06991D601ED91FC910190F081BB
:10122000E02DC6010995080F191FF1CFC801DF9104
:10123000CF911F910F91FF90EF90DF90CF90089585
:10124000089590E080E008951F920F920FB60F92DC
:1012500011242F933F934F935F936F937F938F93BB
:101260009F93AF93BF93EF93FF9380911D03909152
:101270001E03A0911F03B0912003892B8A2B8B2B77
:10128000D1F190911403E0911503F0911603808140
:101290008927808380911D0390911E03A0911F03D5
:1012A000B0912003181619061A061B069CF48091AB
:1012B0001D0390911E03A0911F03B091200301977D
:1012C000A109B10980931D0390931E03A0931F03EE
:1012D000B0932003FF91EF91BF91AF919F918F91B8
:1012E0007F916F915F914F913F912F910F900FBE22
:1012F0000F901F9018958091C6010E94AA01EACF15
:101300001F920F920FB60F9211242F933F938F933A
:101310009F93AF93BF9380910A0390910B03A09189
:101320000C03B0910D033091090320E4230F2D37F6
:1013300028F023EC230F0196A11DB11D2093090372
:1013400080930A0390930B03A0930C03B0930D03B7
:1013500080910E0390910F03A0911003B09111039F
:101360000196A11DB11D80930E0390930F03A093CE
:101370001003B0931103BF91AF919F918F913F9153
:101380002F910F900FBE0F901F9018951F920F92E4
:101390000FB60F9211242F933F934F935F936F9348
:1013A0007F938F939F93AF93BF93EF93FF9380911E
:1013B000B900887F803609F44AC0F0F5883209F414
:1013C000A5C018F5803109F499C0B8F4882309F450
:1013D000F0C0883009F492C0FF91EF91BF91AF91B6
:1013E0009F918F917F916F915F914F913F912F913D
:1013F0000F900FBE0F901F901895883109F486C08A
:10140000803251F78093E20214C0803409F49BC00B
:1014100040F48033B9F38833F9F68093E20285EC27
:10142000AEC0803509F483C0883509F494C088348F
:1014300099F60E94A104D0CF883909F48AC038F502
:10144000883729F050F4883611F0803729F683E088
:101450008093E3021092E10255C0883809F479C004
:10146000803919F0803809F0B7CF8091E1028032DD
:1014700008F06FC0E091E10281E08E0F8093E102FD
:101480008091BB00F0E0EF53FD4F80833BC0803B79
:1014900039F0D0F4803A09F477C0883A09F09CCF4B
:1014A00084E08093E3021092C0021092BF02F0E049
:1014B000E0E009958091BF0281110FC081E0809327
:1014C000BF0210929F0209C0803C09F4A8CF883C5B
:1014D00009F4A5CF883B09F07FCFE091C00281E0FD
:1014E0008E0F8093C002F0E0E156FD4F8081809323
:1014F000BB009091C0028091BF0229C08091080377
:101500008093BB0085EC8093BC0066CF909107036D
:1015100080910603981758F5E091070381E08E0F3C
:1015200080930703F0E0EA51FD4F8081E9CFE0911D
:10153000070381E08E0F809307038091BB00F0E0EA
:10154000EA51FD4F8083909107038091060398171D
:10155000C8F285E8D8CFE091070381E08E0F809331
:1015600007038091BB00F0E0EA51FD4F808380913A
:10157000E50281115ECF81E08093E40284EA8093EA
:10158000BC001092E30228CF8091E102803230F457
:10159000E091E102F0E0EF53FD4F10826091E10233
:1015A00070E081EC92E0F0E0E0E009951092E10259
:1015B00036CF1092E2023DCF1F920F920FB60F92DC
:1015C00011240F931F932F933F934F935F936F9328
:1015D0007F938F939F93AF93BF93CF93DF93EF93BB
:1015E000FF9380919B0290919C0201968436910515
:1015F000C8F490939C0280939B02FF91EF91DF913E
:10160000CF91BF91AF919F918F917F916F915F919A
:101610004F913F912F911F910F910F900FBE0F90FF
:101620001F90189510929C0210929B022091950297
:1016300035EF3203C00111246CEF70E00E945F139C
:101640002BE0260F80919802D0919402F09197029E
:10165000409196028091990290E00CED1FEFB80145
:101660000E945F13C7E0C60FE0919A0230E030930A
:1016700064032093630330936603209365038D2FE7
:1016800090E0B8010E945F13695F70E07093680397
:10169000609367038F2F90E0B8010E945F13685F2B
:1016A00070E070936A0360936903242F30E0220F87
:1016B000331F30936C0320936B038E2F90E06FE306
:1016C00070E00E945F137093720360937103EC2FBC
:1016D000F0E0EE0FFF1FE951FE4F80819181909362
:1016E000700380936F03C09373030E94E30885CF58
:1016F0001F920F920FB60F921124FF920F931F9318
:101700002F933F934F935F936F937F938F939F9309
:10171000AF93BF93CF93DF93EF93FF9380917C00C0
:101720008F7090917C009F5F90937C002091780057
:1017300030917900E82FF0E0EC56FD4F3083863091
:10174000E1F480917A008F7780937A000CE512E0C3
:10175000D0E0C0E0FF24F394F80181918F010E9452
:1017600053012196892B31F4F0921203D093C501D5
:10177000C093C401C730D10579F7FF91EF91DF9194
:10178000CF91BF91AF919F918F917F916F915F9119
:101790004F913F912F911F910F91FF900F900FBE8E
:1017A0000F901F901895CF9382E090E09093640380
:1017B0008093630385E090E09093660380936503D4
:1017C0008EEF9FEF909368038093670386E090E02D
:1017D00090936A038093690388EC90E090936C0384
:1017E00080936B0310926E0310926D0387EC91E06F
:1017F0009093700380936F0310922C0310922B032D
:10180000109261031092620387E692E090932A039C
:101810008093290310922E0310922D0310924203FD
:10182000109245031092390310923A0310923B0331
:1018300010923C038FEF8093430380934703EBE4C4
:10184000F3E081E693E0CFEFC1938E179F07E1F7B6
:101850008BE695E090933203809331038CEC96E015
:10186000909334038093330383E897E09093360397
:10187000809335038CEE97E0909338038093370381
:1018800030E020E040E069E08DE293E00E946B05EB
:1018900082E08093570384E080935803C0935603FB
:1018A000CF910895CF93DF93CDB7DEB769970FB689
:1018B000F894DEBF0FBECDBF8091F20080618EBB79
:1018C00080E88093F2009EB39093F20080936100D1
:1018D00091E0909361008093610010926100789490
:1018E00084B5826084BD84B5816084BD85B5826025
:1018F00085BD85B5816085BD80916E0081608093D6
:101900006E0010928100809181008260809381003E
:10191000809181008160809381008091800081604E
:10192000809380008091B10084608093B1008091A9
:10193000B00081608093B0008091910082608093BC
:10194000910080919100816080939100809190003E
:1019500081608093900080917A00846080937A0007
:1019600080917A00826080937A0080917A00816011
:1019700080937A0080917A00806880937A00109238
:10198000C10061E085E00E94DE010CE512E062E04A
:10199000D8018D918D010E94DE01B2E003361B0754
:1019A000B1F761E084E00E94DE0161E082E00E9424
:1019B000DE0160E084E00E947C0160E082E00E9441
:1019C0007C010E94E308E0913103F091320330E0A2
:1019D00020E040E06AE08DE293E009958E010F5F20
:1019E0001F4F88E0F80111928A95E9F7C8010E941B
:1019F000DB00E0913103F091320330E020E040E081
:101A00006BE08DE293E00995E0913103F0913203B0
:101A100030E020E040E06BE08DE293E009958FEA52
:101A200087BD80916E00826080936E003CE0432E03
:101A3000512C80911203882309F4D8C18091C401EC
:101A40009091C50101978830910520F490936E0321
:101A500080936D031092120361E085E00E947C0187
:101A60008FE0D8011D928A95E9F7E0916D03F0911E
:101A70006E03EE0FFF1FEE0FFF1F80916F0390911B
:101A80007003E80FF91F8091630390916403208134
:101A90003181820F931F8C30910554F020916503A2
:101AA000309166032F5F3F4F3093660320936503A9
:101AB000B2010E945F139C018091650390916603BF
:101AC00001968A30910508F083C0BCE0B89FB00150
:101AD000B99F700D1124AB01420F531F5F8B4E8BCA
:101AE000828193818130910509F477C008F487C021
:101AF0008230910509F478C0039709F479C0398BD5
:101B0000288BF901E20DF31DCF01B2010E945F1392
:101B10009B8B8A8B88248394912C3C9714F4912C72
:101B2000812C260D371DC901B2010E945F139D8BC8
:101B30008C8BAA24A394B12C2C30310514F4B12C35
:101B4000A12C20917103309172032115310539F0D8
:101B5000C9010297F12CE12C029708F05DC0E090DA
:101B60006903F0906A03E0916703F0916803F98FCD
:101B7000E88F6801F0E0E0E0EE16FF0609F44CC0E3
:101B8000CF0163E070E00E945F1381309105D9F5C9
:101B9000680D791D488D598D640F751F880F991F29
:101BA000D801A80FB91F1F968D919C916F5F7F4F31
:101BB0006A30710570F5ACE0A69FA001A79F500D9B
:101BC0001124840F951FD6018D936D013196D4CFCA
:101BD0008FEF9FEF9F8B8E8B83CF97E0692E712CB9
:101BE000B3E02B2E312C8BCF86E0682E712CF8CFF2
:101BF000A8E06A2E712CE4E02E2E312C80CFF7E085
:101C00006F2E712CF8CF8230910521F66A0D7B1D65
:101C1000C1CF8FEF9FEFD7CFC9010197029708F08F
:101C200040C02091690330916A0321503109C0906E
:101C30006703D0906803F801EE0DFF1D7F01E01AE5
:101C4000F10A37FD5FC0C90163E070E00E945F13D5
:101C500081309105E9F4680D791D6C0D7D1D880FAB
:101C6000991FD801A80FB91F1F968D919C916F5F86
:101C70007F4F6A30710590F4BCE0B69FA001B79F1A
:101C8000500D1124840F951F819321503109D6CF17
:101C90008230910511F76A0D7B1DDFCF8FEF9FEF2B
:101CA000F3CF2330310571F5E2E0EE16F10450F187
:101CB0005801D12CC12C4701F1E08F1A9108C814AA
:101CC000D90400F50E944A0F9C01B7016C197D09E7
:101CD0008FEF9FE70E944B136F5F7F4FC9010E94F8
:101CE0004B13FB01EC0DFD1DE00FF11F8081D501B1
:101CF0009D915D019083FD0131978083BFEFCB1AE9
:101D0000DB0ADDCFEE89FF89BF01FF0F880B990B3E
:101D10000E94601020E030E040E451E40E94BD0FDA
:101D20009B01AC0160E070E080E090E40E94EC1068
:101D30000E942F10CB010E942B0260916B037091C7
:101D40006C037695679590E080E00E946E04609148
:101D50006B0370916C03769567957695679590E027
:101D600080E00E946E0483E00E94AA016801C6011F
:101D7000801B910B8E159F05A8F5D6016D916D0105
:101D800070E090E080E00E945E1020E030E040E4EF
:101D900051E40E94BD0F9B01AC0160E070E080E067
:101DA00090E40E94EC100E942F10CB010E942B02A5
:101DB00060916B0370916C037695679590E080E07D
:101DC0000E946E0483E00E94AA0160916B037091EF
:101DD0006C03769567957695679590E080E00E9414
:101DE0006E04C5CF60E085E00E947C0180E090E059
:101DF000892B09F41ECE0E9400001BCE8F929F9269
:101E0000AF92BF92CF92DF92EF92FF92CF93DF9388
:101E1000EC01688179818A819B8161157105810559
:101E2000910521F464E279ED8BE597E02DE133EF44
:101E300041E050E00E945A0F49015A019B01AC0158
:101E4000A7EAB1E40E94790F6B017C01ACEEB4EF1C
:101E5000A50194010E94870FDC01CB018C0D9D1D13
:101E6000AE1DBF1DB7FF03C00197A109B04888830D
:101E70009983AA83BB839F77DF91CF91FF90EF90E7
:101E8000DF90CF90BF90AF909F908F9008950E9469
:101E9000FE0E089583EE91E00E94FE0E0895B0E0DC
:101EA000A0E08093E3019093E401A093E501B09357
:101EB000E6010895052E97FB1EF400940E94710F11
:101EC00057FD07D00E948C0F07FC03D04EF40C94F2
:101ED000710F50954095309521953F4F4F4F5F4F73
:101EE000089590958095709561957F4F8F4F9F4F86
:101EF00008950E94AE0FA59F900DB49F900DA49FD2
:101F0000800D911D11240895B7FF0C94790F0E9444
:101F1000790F821B930B0895A1E21A2EAA1BBB1BFB
:101F2000FD010DC0AA1FBB1FEE1FFF1FA217B307A5
:101F3000E407F50720F0A21BB30BE40BF50B661FBB
:101F4000771F881F991F1A9469F76095709580957F
:101F500090959B01AC01BD01CF010895A29FB001F6
:101F6000B39FC001A39F700D811D1124911DB29FCD
:101F7000700D811D1124911D08950E94D10F0C94A4
:101F8000B2100E94AB1058F00E94A41040F029F447
:101F90005F3F29F00C949B1051110C94E6100C94A7
:101FA000A1100E94C31068F39923B1F3552391F354
:101FB000951B550BBB27AA2762177307840738F0B8
:101FC0009F5F5F4F220F331F441FAA1FA9F335D015
:101FD0000E2E3AF0E0E832D091505040E695001CC9
:101FE000CAF72BD0FE2F29D0660F771F881FBB1F83
:101FF000261737074807AB07B0E809F0BB0B802D61
:10200000BF01FF2793585F4F3AF09E3F510578F08C
:102010000C949B100C94E6105F3FE4F3983ED4F3CD
:10202000869577956795B795F7959F5FC9F7880F60
:10203000911D9695879597F90895E1E0660F771FB2
:10204000881FBB1F621773078407BA0720F0621B43
:10205000730B840BBA0BEE1F88F7E09508950E946E
:10206000CB1088F09F5798F0B92F9927B751B0F04F
:10207000E1F0660F771F881F991F1AF0BA95C9F70C
:1020800014C0B13091F00E94E510B1E008950C94B5
:10209000E510672F782F8827B85F39F0B93FCCF368
:1020A000869577956795B395D9F73EF49095809589
:1020B000709561957F4F8F4F9F4F0895E89409C0A9
:1020C00097FB3EF490958095709561957F4F8F4F6B
:1020D0009F4F9923A9F0F92F96E9BB279395F69581
:1020E000879577956795B795F111F8CFFAF4BB0FFF
:1020F00011F460FF1BC06F5F7F4F8F4F9F4F16C063
:10210000882311F096E911C0772321F09EE8872FEC
:10211000762F05C0662371F096E8862F70E060E0A8
:102120002AF09A95660F771F881FDAF7880F969521
:10213000879597F9089597F99F6780E870E060E0C8
:1021400008959FEF80EC089500240A941616170650
:1021500018060906089500240A9412161306140698
:1021600005060895092E0394000C11F4882352F0FB
:10217000BB0F40F4BF2B11F460FF04C06F5F7F4FB3
:102180008F4F9F4F089557FD9058440F551F59F09A
:102190005F3F71F04795880F97FB991F61F09F3F54
:1021A00079F087950895121613061406551FF2CF7D
:1021B0004695F1DF08C0161617061806991FF1CFCD
:1021C00086957105610508940895E894BB276627F4
:1021D0007727CB0197F90895FA01EE0FFF1F30968C
:1021E00021053105A1F16115710561F48038BFE366
:1021F0009B0749F168949038810561F08038BFEF02
:102200009B0741F099234AF5FF3FE1053105210580
:1022100019F1E8940894E795D901AA2329F4AB2F82
:10222000BE2FF85FD0F310C0FF5F70F4A695E0F703
:10223000F73950F019F0FF3A38F49F779F930DD09B
:102240000F9007FC9058089546F00C94A11060E0A0
:1022500070E080E89FE308954FE79F775F934F9387
:102260003F932F930E94E7112F913F914F915F91E0
:102270000E9463120C94441129F416F00C949B10E4
:102280000C94E5100C94A1100E94CB10A8F3963882
:10229000A0F707F80F92E8942BE33AEA48EB5FE7E0
:1022A0000E9479120F920F920F924DB75EB70F9264
:1022B0000E942F12E8E6F0E00E9476114F915F91A4
:1022C000EF91FF91E595EE1FFF1F49F0FE57E06883
:1022D0004427EE0F441FFA95E1F74195550B0E94F4
:1022E000A9110F9007FE0C949D110895DF93CF93D1
:1022F0001F930F93FF92EF92DF927B018C01689402
:1023000006C0DA2EEF010E947612FE01E894A59134
:102310002591359145915591A6F3EF010E94E81260
:10232000FE019701A801DA9469F7DF90EF90FF9022
:102330000F911F91CF91DF9108959B01AC0160E057
:1023400070E080E89FE30C94BD0F0C949B100C94FC
:102350003D130E94CB10D8F39923C9F3940F511D5C
:10236000A3F39150504094F059F0882332F0660F57
:10237000771F881F91505040C1F79E3F51052CF7A1
:10238000880F911D9695879597F908955F3FACF05A
:10239000983E9CF0BB27869577956795B79508F48E
:1023A000B1609395C1F7BB0F58F711F460FFE8CF08
:1023B0006F5F7F4F8F4F9F4FE3CF0C94E61016F067
:1023C0000C943D130C94A11068940C949B100E94E3
:1023D000CB10A8F39923C1F3AEF3DF93CF931F93F0
:1023E0000F93FF92C92FDD2788232AF02197660FCC
:1023F000771F881FDAF720E030E040E85FEB9FE3CB
:10240000883920F0803E38F021968F770E94D112D3
:10241000E0E9F0E004C00E94D112EDEBF0E00E9490
:1024200076118B01BE01EC01FB2E6F57710975957A
:10243000771F880B990B0E94601028E132E741E377
:102440005FE30E947612AF2D9801AE01FF900F91CD
:102450001F91CF91DF910E94E8120C94B210FA0103
:10246000DC01AA0FBB1F9B01AC01BF5728F4222738
:1024700033274427507820C0B75190F4AB2F002465
:10248000469537952795011CA395D2F3002071F04E
:10249000220F331F441FB395DAF30ED00C94D012E1
:1024A00061307105A0E88A07B94630F49B01AC01A0
:1024B0006627772788279078309621F0208331830C
:1024C0004283538308950E9476120C94B2100E94A6
:1024D000A41038F00E94AB1020F0952311F00C945A
:1024E0009B100C94A11011240C94E6100E94C310B0
:1024F00070F3959FC1F3950F50E0551F629FF00157
:10250000729FBB27F00DB11D639FAA27F00DB11D6F
:10251000AA1F649F6627B00DA11D661F829F2227F8
:10252000B00DA11D621F739FB00DA11D621F839F7F
:10253000A00D611D221F749F3327A00D611D231F55
:10254000849F600D211D822F762F6A2F11249F57A3
:1025500050409AF0F1F088234AF0EE0FFF1FBB1FA6
:10256000661F771F881F91505040A9F79E3F510565
:1025700080F00C949B100C94E6105F3FE4F3983EBF
:10258000D4F3869577956795B795F795E7959F5F0F
:10259000C1F7FE2B880F911D9695879597F90895A1
:1025A0005058BB27AA270E94E8120C94B2100E9430
:1025B000A41038F00E94AB1020F039F49F3F19F4BA
:1025C00026F40C94A1100EF4E095E7FB0C949B10FC
:1025D000E92F0E94C31058F3BA17620773078407E4
:1025E000950720F079F4A6F50C94E5100EF4E0952B
:1025F0000B2EBA2FA02D0B01B90190010C01CA01BD
:10260000A0011124FF27591B99F0593F50F4503E67
:1026100068F11A16F040A22F232F342F4427585F59
:10262000F3CF469537952795A795F0405395C9F771
:102630007EF41F16BA0B620B730B840BBAF0915029
:10264000A1F0FF0FBB1F661F771F881FC2F70EC0C8
:10265000BA0F621F731F841F48F48795779567959B
:10266000B795F7959E3F08F0B0CF9395880F08F087
:102670009927EE0F9795879508959F3F31F09150D8
:1026800020F4879577956795B795880F911D969556
:10269000879597F90895AA1BBB1B51E107C0AA1F94
:1026A000BB1FA617B70710F0A61BB70B881F991FF3
:1026B0005A95A9F780959095BC01CD01089597FB97
:1026C000072E16F4009407D077FD09D00E944B1313
:1026D00007FC05D03EF4909581959F4F0895709525
:1026E00061957F4F0895EE0FFF1F0590F491E02D47
:0626F0000994F894FFCFED
:1026F60000000200010000000300010005000100C7
:1027060006000000080000000A00010000000100A9
:10271600020002000300030005000100070000009C
:10272600080000000B000200000001000200020089
:10273600030000000500010007000100080000007A
:102746000A00000000000000020001000400020070
:102756000500000007000100090001000A00000052
:102766000000000002000000040001000600020054
:1027760007000000090001000B0001000000010035
:102786000100000003000000050001000700020030
:10279600080000000A00010000000100020001001C
:1027A6000300000005000000070001000900020008
:1027B6000A0000000100FF00000000020001000402
:1027C6000001000500000007000000090001000BE1
:1027D60000020001000000C701A8018C017001542D
:1027E6000138011C0100011815A015C019FF1815A4
:1027F600A115C819FF1815AE19FF1815AF19FF183E
:1028060015AE15D5168015A8161F15D3160015403A
:10281600158D16141520160015A115C815DA160201
:102826001581168F15D916F115DB1640152E15A430
:1028360015A619FF0001140A6464323200127A00E8
:1028460000042896100400008000200006070809EE
:102856000A0B0C000000005908F80821092009009D
:00000001FF
