:100000000C946F020C9497020C9497020C94970234
:100010000C9497020C9497020C9497020C949702FC
:100020000C9497020C9497020C9497020C94A50CD4
:100030000C9497020C9497020C94AA0B0C949702C0
:100040000C944E0A0C9497020C941C0A0C94F6091A
:100050000C9497020C94480C0C9497020C94970201
:100060000C94940A0C9497020000000024002700CE
:100070002A002D00330000000000250028002B007E
:100080002E003400000000002300260029002C0070
:100090003200040404040404040402020202020202
:1000A0000303030303030505020306050502030515
:1000B00005050506060606060606010204081020C8
:1000C00040800102040810200102040810200208E8
:1000D000408001408080400104102002040810206C
:1000E00040800000000850020100000304070000E7
:1000F00000000000000000004D696E6F722A202091
:100100002020202020006C6F637269616E20202007
:10011000002D2D2D202020202020202020200068B0
:1001200061726D6F6E69632020004E61747572613B
:100130006C204D696E6F720061656F6C69616E2035
:100140002020004D616A6F72202020202020202076
:10015000006D69786F6C796469616E004D616A6FDA
:10016000722020202020202020006C796469616E9C
:1001700020202020004D696E6F722020202020203A
:10018000202000706872796769616E2020004D69D7
:100190006E6F72202020202020202000646F726962
:1001A000616E20202020004E61747572616C204DBC
:1001B000616A6F7200696F6E69616E202020200095
:1001C0004D6F64653A2000417270656767696174BC
:1001D0006F72203630303000207F010100000000B7
:1001E000000000000000005F0000000000030000AD
:1001F0000003000000227F22227F220000242A6BBD
:100200002A120000422512082452210000205649DB
:1002100049552250000000000300000000001C228D
:100220004100000000000041221C000000000A0400
:100230001F040A000008083E0808000000000040F3
:10024000300000000008080808080800000000400E
:10025000000000004020100804020100003E41415F
:10026000413E00000040427F404000000062514992
:10027000494600000022414949360000001C121185
:100280007F1000000027454545390000003E4949E0
:100290004932000000010179050300000036494998
:1002A0004936000000264949493E0000000000127E
:1002B00000000000000000201200000000000814F0
:1002C0002241000000141414141414000000004112
:1002D0002214080000020159090600003C4299A5B9
:1002E000A5B9221C60181611161860007F494949EB
:1002F000494936003E414141414122007F4141414F
:1003000041413E007F494949494141007F0909096E
:10031000090101003E41414149493A007F0808086E
:1003200008087F000041417F4141000020404040DB
:1003300040403F007F080808142241007F404040B1
:10034000404040007F02040804027F007F0204084E
:1003500010207F003E41414141413E007F1111117B
:1003600011110E003E4141416141BE007F09090962
:100370000919660026494949494932000101017FAE
:10038000010101003F40404040403F000F1020402D
:1003900020100F001F60201C20601F004122140845
:1003A000142241000304087008040300416151490C
:1003B0004543410000007F41410000000102040864
:1003C0001020400000000041417F000000040201B5
:1003D0000204000080808080808080800000000116
:1003E000020000000020545454547800007F44441C
:1003F000444438000038444444442800003844440D
:1004000044447F0000385454545448000000047E93
:10041000050100000018A4A4A4A47C00007F04042B
:10042000040478000000447D40000000004080800B
:10043000847D0000007F1010102844000000017F20
:10044000000000007C04047C04047800007C0404A8
:1004500004047800003844444444380000FC444418
:1004600044443800003844444444FC00007C080400
:100470000404040000485454545424000000043F71
:1004800044400000003C404040407C00001C2040B4
:1004900040201C00003C40403840403C00442810B4
:1004A00028440000001CA0A0A0A07C0000446454CC
:1004B0004C4400000000083641000000000000FF2E
:1004C0000000000000000041360800000804040895
:1004D000101008000000000000000000FD0D1124B5
:1004E0001FBECFEFD8E0DEBFCDBF12E0A0E0B1E08D
:1004F000E6EEFEE202C005900D92A23BB107D9F7ED
:1005000025E0A2EBB2E001C01D92AE32B207E1F7E6
:1005100012E0CFE6D2E004C02197FE010E949314BE
:10052000CE36D107C9F70E94660F0C9471170C9450
:10053000000080E008951F93CF93DF9300D000D098
:100540001F92CDB7DEB71C8221E02B839A8389836B
:10055000E091E704F091E80411891D82A091E7047D
:10056000B091E804E091EB04F091EC049E012F5F60
:100570003F4F50964C916FE087EE94E009958D8146
:100580008F5F8D83811750F30F900F900F900F9016
:100590000F90DF91CF911F9108959B01DC01189678
:1005A000ED91FC9141E067E10994662329F06A30FE
:1005B00019F0862F90E008958FEF9FEF0895AF9286
:1005C000BF92CF92DF92EF92FF920F931F93CF9340
:1005D000DF936C017B018B01040F151FEB015E01A2
:1005E000AE18BF08C017D10759F06991D601ED9137
:1005F000FC910190F081E02DC6010995892B79F7D6
:10060000C501DF91CF911F910F91FF90EF90DF9087
:10061000CF90BF90AF900895FC01538D448D252F4E
:1006200030E0842F90E0821B930B541710F0CF968C
:10063000089501970895FC01918D828D981761F0BE
:10064000A28DAE0FBF2FB11D5D968C91928D9F5FD5
:100650009F73928F90E008958FEF9FEF0895FC01B4
:10066000918D828D981731F0828DE80FF11D858D67
:1006700090E008958FEF9FEF0895FC01918D228DFA
:10068000892F90E0805C9F4F821B91098F7399277F
:10069000089584E494E00E943D0321E0892B09F44D
:1006A00020E0822F089580E090E0892B29F00E94BD
:1006B000490381110C9400000895FC01A48DA80F3A
:1006C000B92FB11DA35ABF4F2C91848D90E0019694
:1006D0008F739927848FA689B7892C93A089B189B4
:1006E0008C9180648C93938D848D981306C00288BE
:1006F000F389E02D80818F7D80830895EF92FF92B2
:100700000F931F93CF93DF93EC0181E0888F9B8D34
:100710008C8D981316C0E889F989808185FF11C0F6
:10072000EE89FF896083E889F9898081806480830C
:1007300081E090E0DF91CF911F910F91FF90EF90BA
:100740000895F62E0B8D10E00F5F1F4F0F731127CA
:10075000E02E8C8D8E110CC00FB607FCFACFE88905
:10076000F989808185FFF5CFCE010E945D03F1CF2D
:10077000EB8DEC0FFD2FF11DE35AFF4FF0820B8F35
:10078000EA89FB8980818062D2CFCF93DF93EC012D
:10079000888D8823B9F0AA89BB89E889F9898C9169
:1007A00085FD03C0808186FD0DC00FB607FCF7CF25
:1007B0008C9185FFF2CF808185FFEDCFCE010E9425
:1007C0005D03E9CFDF91CF91089581508B3088F59B
:1007D000E82FF0E0E251FC4F0C949314030407045B
:1007E000F903FF03190419040A04100414041A0479
:1007F0001E04809180008F778093800008958091FF
:1008000080008F7DF9CF84B58F7784BD089584B53E
:100810008F7DFBCF8091B0008F778093B0000895DB
:100820008091B0008F7DF9CF809190008F77809379
:1008300090000895809190008F7DF9CF8091900075
:10084000877FF5CFCF93DF93282F30E0F901EE516A
:10085000FF4F8491F901E654FF4FD491F901EE5610
:10086000FF4FC491CC23A1F081110E94E503EC2F2E
:10087000F0E0EE0FFF1FEC57FF4FA591B491EC9104
:10088000ED2381E090E009F480E0DF91CF910895BD
:1008900080E090E0FACF1F93CF93DF93282F30E0D2
:1008A000F901EE51FF4F8491F901E654FF4FD491C5
:1008B000F901EE56FF4FC491CC23A9F0162F8111F8
:1008C0000E94E503EC2FF0E0EE0FFF1FEA58FF4F08
:1008D000A591B4918FB7F894EC91111108C0D095FF
:1008E000DE23DC938FBFDF91CF911F910895DE2B24
:1008F000F8CFCF93DF93282F30E0F901E654FF4F74
:1009000044912E563F4FF9012491843019F583E02C
:100910008093A0002223D9F0822F90E0880F991FA6
:10092000FC01E859FF4FA591B491FC01EA58FF4F33
:10093000C591D491623019F59FB7F8942C91842F0A
:10094000809582238C93E8814E2B48839FBFDF9153
:10095000CF91089593EE980F923020F48FEF84BFDB
:1009600084BFD8CF8931B1F68091F00082608EBB10
:1009700080E88093F0008EB38093F000CBCF8FB7E8
:10098000F894EC914E2B4C938FBFE1CF3FB7F89486
:100990008091600390916103A0916203B091630321
:1009A00026B5A89B05C02F3F19F00196A11DB11DCA
:1009B0003FBFBA2FA92F982F8827BC01CD01620F06
:1009C000711D811D911D660F771F881F991F089546
:1009D0008F929F92AF92BF92CF92DF92EF92FF924F
:1009E0006B017C010E94C6044B015C01C114D1045F
:1009F000E104F104B9F00E94C604681979098A0972
:100A00009B09683E73408105910580F321E0C21A7D
:100A1000D108E108F10888EE880E83E0981EA11C39
:100A2000B11CE4CFFF90EF90DF90CF90BF90AF90DC
:100A30009F908F90089585ED8093BC008091BC00BD
:100A400084FDFCCF109239030895613298F420910F
:100A50003903243089F460931503282FA5EFB2E001
:100A6000FC018E2F821B861710F080E00895819183
:100A70008D93F7CF81E0089582E0089508958FEF78
:100A80009FEF08958FEF9FEF08958091F40290E01B
:100A90009195819591090895CF93DF93CB01EA0158
:100AA000642F0E942505CE01DF91CF910895CF9349
:100AB000DF931F92CDB7DEB7698361E0CE01019667
:100AC0000E94250581E090E00F90DF91CF9108957D
:100AD000DC011A96ED91FC9130E020E00994DC01F4
:100AE0001696ED91FC9130E020E040E069E1099438
:100AF000DC011696ED91FC9130E020E040E068E1E9
:100B000009949A01DC011696ED91FC91462F67E15C
:100B10000994EF92FF920F931F93CF93DF931F924D
:100B2000CDB7DEB77C018B01D8016C91673129F11B
:100B300050F46531A0F40F90DF91CF911F910F9188
:100B4000FF90EF9008956A3118F16E3FA1F7F80118
:100B50004181498369E2C7010E9468050BC0F80121
:100B600041814983D7011696ED91FC9130E020E058
:100B7000C70109950E5F1F4FD7CFF8018181898387
:100B8000AE014F5F5F4F61E0C7010E948105F2CF68
:100B90000F5F1F4FD7011696ED91FC9130E020E0DA
:100BA00040E0C7010995C0CF462FDC011696ED91B4
:100BB000FC9130E020E066E10994462FDC011696B6
:100BC000ED91FC9130E020E065E10994EF92FF9215
:100BD0000F931F93CF93DF93EC01042F79016930BA
:100BE00069F484E592E0998388831C8A81E0DF912F
:100BF000CF911F910F91FF90EF9008956D3009F400
:100C000075C038F46A3091F16B3009F468C080E047
:100C1000EECF6E3009F47DC06F30C9F70E947805C1
:100C2000F7011381110F110F110F6C89160F612F2E
:100C300062956F706061CE010E94DD05612F6F705B
:100C4000CE010E94DD05F7016481606BCE010E9438
:100C5000DD05F701408151816281660F660F660FE5
:100C6000CE010E9481050150A1F75DC0EA85FB8598
:100C700030E020E040E068E20995EE81FF8130E05D
:100C800020E040E064E1CE01099541E06BE4CE0153
:100C90000E946805E881F981448169E2CE010E94E1
:100CA000680540E06BE4CE010E946805E881F981A7
:100CB000448169E2CE010E94680541E06BE4CE0107
:100CC0000E946805E881F981458169E2CE010E94B0
:100CD00068056FE172E0CE010E94890587CF6AE165
:100CE00072E04423C1F365E172E0F5CF411109C020
:100CF0006EE072E00E948905E881F98182898C8B1F
:100D000075CF67E072E00E948905E881F9818389E7
:100D1000F6CF0E94780561E8CE010E94DD05602FC4
:100D2000CE010E94D405CE010E946F055FCF41E045
:100D30006DE40C946805DC01ED91FC9145856DE254
:100D40000C946805CF93DF93EC0141E06CE40E94C2
:100D50006805CE01DF91CF910C949B06CF93DF9372
:100D6000EC01662379F00E949706CE010E949B0653
:100D7000CE010E94A20640E06CE4CE01DF91CF914B
:100D80000C94680540E06DE40E946805EECF1F9367
:100D9000CF93DF93EC01162F60780E94AE06612F8F
:100DA0006074CE010E94AE06612F6072CE010E9477
:100DB000AE06612F6071CE010E94AE06612F687091
:100DC000CE010E94AE06612F6470CE010E94AE0675
:100DD000612F6270CE010E94AE06612F6170CE015C
:100DE0000E94AE06CE010E949706CE010E949B068D
:100DF000CE010E94A206CE010E949706CE010E945B
:100E00009B0640E06CE4CE01DF91CF911F910C94E2
:100E10006805DC011896ED91FC9130E020E040E09F
:100E200069E10994DC011896ED91FC9130E020E035
:100E300040E068E10994CF93DF931F92CDB7DEB70E
:100E40006983BE016F5F7F4F0E94CD020F90DF91DB
:100E5000CF910895EF92FF921F93CF93DF93EC0110
:100E6000162F7A010E94120760E4CE010E941B0730
:100E7000E885F9859701412F67E1CE010995CE01FB
:100E8000DF91CF911F91FF90EF900C940907EF92A3
:100E9000FF921F93CF93DF93EC01142F79016631FA
:100EA00081F138F4643109F44BC0653179F080E0A8
:100EB00022C06831C9F150F16931C9F78091F3025C
:100EC000882391F1CE010E9409072EC08091F30280
:100ED000882319F0CE010E940907CE010E94120753
:100EE00060E0CE010E941B07612FCE010E941B070C
:100EF00081E08093F302DF91CF911F91FF90EF90FB
:100F00000895642F0E941B0781E0F5CF8091F302C2
:100F1000882319F0CE010E940907A701193138F47E
:100F2000612FCE010E942A071092F302EDCF68E1F3
:100F3000CE010E942A07185188E1E80EF11CEDCF7E
:100F40008E898F3F11F488E78E8BE885F9859701AC
:100F5000412F64E1CE01DF91CF911F91FF90EF907F
:100F60000994CF93DF93EC01A889B989FD013491ED
:100F700031969491319684911396FD01A491631753
:100F8000A8F1961798F1631B770B8A9FE02D112427
:100F9000E69FC001E79F900D1124280F392F311DC6
:100FA00083E0220F331F8A95E1F7C9010496DA0125
:100FB000245F3F4FE889F989E80FF91FE491ED9329
:100FC000019682179307B1F78D89882361F0FA01A2
:100FD0009A01285F3F4F8191DF01119780958C9393
:100FE0002E173F07C1F7DF91CF910895FA01CA018B
:100FF00008961192E817F907E1F7E6CF4F925F9252
:101000006F927F928F929F92AF92BF92CF92DF9218
:10101000EF92FF920F931F93CF93DF93CDB7DEB77D
:101020002D970FB6F894DEBF0FBECDBF7C01C62E44
:10103000D42EB22EDC0150968D919C91FC013296FB
:10104000149131960491512E560E040F81E0860FB3
:10105000581608F411E0712CFE0131964F0144241A
:101060004394672CAC2C262DA4016B2DC7010E9444
:10107000B107AC86DD864B869A868986D7011496A1
:10108000ED91FC919E01275F3F4F41E06FE0C7016A
:1010900009956394A394A51430F3D394710ED016DC
:1010A00000F32D960FB6F894DEBF0FBECDBFDF91D3
:1010B000CF911F910F91FF90EF90DF90CF90BF9055
:1010C000AF909F908F907F906F905F904F9008951A
:1010D000FF920F931F93CF93DF93E091F704F0916A
:1010E000F8043296C4911092FF048C01D0E085E0A0
:1010F000F82EF80161918F01E091E904F091EA0482
:1011000087EE94E009958F3F980771F08E3F2FEF9F
:10111000920779F3282F43E06F2D87EE94E00E9429
:10112000FE07FC0EDF5FE5CF8D2FDF91CF911F9182
:101130000F91FF900895EF92FF921F93CF93DF934B
:10114000EC01142F7901683151F130F46431D1F0A0
:101150006731A9F080E006C0693109F443C060320C
:10116000C9F781E0DF91CF911F91FF90EF90089533
:10117000F70161917F01CE010E94C7061150111144
:10118000F7CFEFCF41E06CE40E94680541E06DE4E9
:10119000CE010E946805CE010E949B06E2CF8F8996
:1011A000882349F0CE010E949706CE010E949B063B
:1011B000CE010E94A206CE010E94970640E06DE497
:1011C000CE010E946805CE010E949B0640E06CE4BF
:1011D000CE010E94680581E08F8B6E89CE010E944E
:1011E000C706BFCF40E06DE40E946805CE010E94B3
:1011F0009B06CE010E94A206CE010E949706CE0158
:101200000E949B061F8AADCF0F931F93CF93DF934E
:101210008C01C62F642FCC32E8F4CA3208F041C0EA
:10122000C83271F1C93209F442C080E0C034D0F153
:10123000CF73F801EC0FF11D868D8F3F91F1C03116
:10124000E0F00E94220421E0892B09F420E0F8015B
:10125000218F27C0CD3289F140F384EB8C0F82308F
:1012600020F7CF73C00FD12FD11D8E8D411135C006
:1012700061E00E94790460E08E8D0E944B0411C0F1
:10128000025E1F4FD0E0F80181918F018F3F31F056
:1012900061E0D03108F062E00E947904DF5FD6316E
:1012A00091F781E0DF91CF911F910F91089570E048
:1012B00090E080E00E94E804F4CF25E030E0433085
:1012C00010F022E030E046E0429FC001439F900DC5
:1012D000112405970197F1F7E4CF62E00E947904A9
:1012E000E0CF1F93CF93DF93EC01EC89FD8949ADEB
:1012F0006A3059F43396E491E40FE9AF18AE81E017
:1013000090E0DF91CF911F910895262F329614918E
:1013100068AD04960E94FE07E8ADE10FE8AFEFCF9D
:101320000F931F93CF93DF938C01D0E0C0E0F801BF
:10133000EC0FFD1F6491662341F083EE94E00E9460
:101340007109892B11F02196F2CFCE01DF91CF9157
:101350001F910F910895DC018D919C91DC01ED911D
:10136000FC910190F081E02D0994EAE7F0E087E03C
:10137000808380E680937C008FE180937E00ABE7E2
:10138000B0E08C918C938081886A808380818064B6
:1013900080830895CF92DF92EF92FF920F931F9375
:1013A000CF93DF936C01EB017B01E40EF51E10E09F
:1013B00000E0CE15DF0561F06991D601ED91FC9159
:1013C0000190F081E02DC6010995080F191FF1CF9A
:1013D000C801DF91CF911F910F91FF90EF90DF90A7
:1013E000CF900895089590E080E008951F920F92A5
:1013F0000FB60F9211242F933F934F935F936F93E8
:101400007F938F939F93AF93BF93EF93FF9384E466
:1014100094E00E945D03FF91EF91BF91AF919F9186
:101420008F917F916F915F914F913F912F910F908D
:101430000FBE0F901F9018951F920F920FB60F922C
:1014400011242F938F939F93EF93FF93E091540474
:10145000F09155048081E0915A04F0915B0482FD83
:101460001BC0908180915D048F5F8F7320915E041B
:10147000821741F0E0915D04F0E0EC5BFB4F958F4B
:1014800080935D04FF91EF919F918F912F910F9029
:101490000FBE0F901F9018958081F4CF1F920F926E
:1014A0000FB60F9211242F933F938F939F93AF9377
:1014B000BF938091640390916503A0916603B091FE
:1014C000670330915F0320E4230F2D3728F023ECCE
:1014D000230F0196A11DB11D20935F038093640328
:1014E00090936503A0936603B093670380916003B4
:1014F00090916103A0916203B09163030196A11DD5
:10150000B11D8093600390936103A0936203B09335
:101510006303BF91AF919F918F913F912F910F9056
:101520000FBE0F901F9018951F920F920FB60F923B
:1015300011242F933F934F935F936F937F938F93D8
:101540009F93AF93BF93EF93FF938091B900887FF0
:10155000803609F44AC0F0F5883209F4A5C018F5C0
:10156000803109F499C0B8F4882309F4F0C08830B8
:1015700009F492C0FF91EF91BF91AF919F918F912C
:101580007F916F915F914F913F912F910F900FBE7F
:101590000F901F901895883109F486C0803251F75A
:1015A0008093380314C0803409F49BC040F4803326
:1015B000B9F38833F9F68093380385ECAEC08035F3
:1015C00009F483C0883509F494C0883499F60E94E0
:1015D0001B05D0CF883909F48AC038F5883729F03F
:1015E00050F4883611F0803729F683E08093390370
:1015F0001092370355C0883809F479C0803919F042
:10160000803809F0B7CF80913703803208F06FC07F
:10161000E091370381E08E0F809337038091BB0008
:10162000F0E0E95EFC4F80833BC0803B39F0D0F4B2
:10163000803A09F477C0883A09F09CCF84E080931F
:1016400039031092160310921503F0E0E0E00995BB
:101650008091150381110FC081E0809315031092D2
:10166000F50209C0803C09F4A8CF883C09F4A5CF55
:10167000883B09F07FCFE091160381E08E0F8093C5
:101680001603F0E0EB50FD4F80818093BB009091FA
:1016900016038091150329C080915E038093BB00DF
:1016A00085EC8093BC0066CF90915D0380915C03D4
:1016B000981758F5E0915D0381E08E0F80935D03EC
:1016C000F0E0E45CFC4F8081E9CFE0915D0381E0D4
:1016D0008E0F80935D038091BB00F0E0E45CFC4FD3
:1016E000808390915D0380915C039817C8F285E830
:1016F000D8CFE0915D0381E08E0F80935D038091F0
:10170000BB00F0E0E45CFC4F808380913B038111DF
:101710005ECF81E080933A0384EA8093BC0010920C
:10172000390328CF80913703803230F4E0913703BA
:10173000F0E0E95EFC4F10826091370370E087E1D2
:1017400093E0F0E0E0E009951092370336CF109275
:1017500038033DCF1F920F920FB60F921124EF92D4
:10176000FF920F931F932F933F934F935F936F932A
:101770007F938F939F93AF93BF93CF93DF93EF9319
:10178000FF938091F2028F5F8436C8F48093F20257
:10179000FF91EF91DF91CF91BF91AF919F918F9189
:1017A0007F916F915F914F913F912F911F910F9179
:1017B000FF90EF900F900FBE0F901F901895109212
:1017C000F2022091690335EF3203C0011124ECEFDE
:1017D000F0E0BF010E947F142BE0260F80916C0384
:1017E000E0906803D0916B03F0906A0380916D03E1
:1017F00090E00CED1FEFB8010E947F1447E0460F08
:10180000C0916E0330E030931E0520931D05309388
:10181000200520931F058E2D90E0B8010E947F14B3
:10182000695F70E070932205609321058D2F90E031
:10183000B8010E947F14685F70E070932405609384
:10184000230524EF31E0F29EC001F39E900D112498
:10185000BF010E947F1470932605609325058C2F8D
:1018600090E06FE370E00E947F1470932C0560930A
:101870002B05E42FF0E0EE0FFF1FE950FE4F8081B3
:10188000918190932A058093290540932D0580CF5F
:101890001F920F920FB60F921124FF920F931F9376
:1018A0002F933F934F935F936F937F938F939F9368
:1018B000AF93BF93CF93DF93EF93FF9380917C001F
:1018C0008F7090917C009F5F90937C0020917800B6
:1018D00030917900E82FF0E0E859FC4F30838630F2
:1018E000F1F480917A008F7780937A000CE612E011
:1018F000D0E0C0E0FF24F394F80181918F010E94B1
:1019000022042196892B31F4F0926F03D0932E019B
:10191000C0932D01C730D10579F70E94B509FF9119
:10192000EF91DF91CF91BF91AF919F918F917F9177
:101930006F915F914F913F912F911F910F91FF9068
:101940000F900FBE0F901F9018951F920F920FB619
:101950000F9211240F931F932F933F934F935F93F5
:101960006F937F938F939F93AF93BF93EF93FF9367
:1019700080912C018F5F80932C0180912C018370CA
:1019800080932C01811103C081E08093F102E091EA
:101990002C01F0E0EE0FFF1FEC5DFE4F818187FD13
:1019A00025C180912C01E0912C01F0E0EE0FFF1F8A
:1019B000E751FD4F20813181A0912C01B0E0AA0FA9
:1019C000BB1FA45EBE4F6D917C91A0912C01B0E035
:1019D000AA0FBB1FAC5DBE4F4D915C911197460F96
:1019E000571F11965C934E931196EC91E20FF32FD3
:1019F000F11DE491A82FB0E0A85EBE4FEC930091DA
:101A0000E1021091E20220911001309111018091C8
:101A1000D9029091DA02820F931F9093DA02809399
:101A2000D902E091DA02E00FF12FF11D049120912B
:101A300018016091E3027091E4024091120150910B
:101A400013018091DB029091DC02840F951F90932B
:101A5000DC028093DB02E091DC02E60FF72FF11D40
:101A60007491609119018091E5029091E602E091F4
:101A70001401F09115014091DD025091DE024E0FEC
:101A80005F1F5093DE024093DD02E091DE02E80F1B
:101A9000F92FF11D149150911A018091E702909154
:101AA000E802E0911601F0911701A091DF02B091D8
:101AB000E002AE0FBF1FB093E002A093DF02E091FF
:101AC000E002E80FF92FF11D449130911B01020350
:101AD000F0011124EF2FFF0FFF0B7603B00111244B
:101AE000672F770F770BE60FF71F1503C00111243F
:101AF000892F990F990BE80FF91F4303C001112497
:101B0000892F990F990BE80FF91FF595E795F59532
:101B1000E795E158E093B400E093B300E0912C0125
:101B2000F0E0EE0FFF1FE85FFE4F80819181E091B2
:101B30002C01F0E0EE0FFF1FE85FFE4F6081718126
:101B4000E0912C01F0E0EE0FFF1FEC5DFE4F2081D5
:101B50003181E0912C01F0E0EE0FFF1FE050FF4FCC
:101B6000A081B181E0912C01F0E016E076956795B7
:101B70001A95E1F706E0369527950A95E1F7629FF9
:101B8000A001639F500D729F500D1124440F452FEB
:101B9000441F550B51954A9F90014B9F300D5A9F02
:101BA000300D1124820F931FEE0FFF1FE05FFE4FD9
:101BB000918380838091D7029091D802019690936F
:101BC000D8028093D702FF91EF91BF91AF919F917F
:101BD0008F917F916F915F914F913F912F911F91C5
:101BE0000F910F900FBE0F901F901895E0912C0150
:101BF000F0E0E85EFE4F108202CFCF9310924704D0
:101C00001092460488EE93E0A0E0B0E08093480490
:101C100090934904A0934A04B0934B0487E792E061
:101C2000909345048093440485EC90E09093510494
:101C30008093500484EC90E090935304809352047A
:101C400080EC90E0909355048093540481EC90E0F4
:101C5000909357048093560482EC90E0909359043B
:101C60008093580486EC90E090935B0480935A0430
:101C700010925D0410925E0410925F041092600452
:101C800084E494E09093E2048093E104109275035D
:101C900010927403109277031092760310927903D6
:101CA0001092780310927B0310927A0310927D03B6
:101CB00010927C0310927F0310927E031092810396
:101CC0001092800310928303109282031092850376
:101CD0001092840310928703109286031092890356
:101CE0001092880310928B0310928A0310928D0336
:101CF00010928C0310928F0310928E031092910316
:101D000010929003109293031092920310929503F5
:101D100010929403109297031092960310929903D5
:101D20001092980310929B0310929A0310929D03B5
:101D300010929C0381EE94E090939F0380939E0306
:101D40001092A0031092A1031092A2031092A70375
:101D50001092A6031092A9031092A8038FEF9FEF91
:101D60009093AB038093AA039093AD038093AC034D
:101D700083E08093AE031092AF031092B0031092F1
:101D8000B1031092B20310923304E3EBF3E080E866
:101D9000DF011D928A95E9F71092360410923704FC
:101DA000109238041092390410923A0410923B04B5
:101DB00010923C0410923D0410923E0410923F0495
:101DC0001092400410924104109242041092430475
:101DD00082E090E090931E0580931D0585E090E0E1
:101DE0009093200580931F058EEF9FEF909322051F
:101DF0008093210586E090E090932405809323054D
:101E000088EC90E090932605809325051092280594
:101E10001092270581E992E090932A058093290585
:101E20001092E6041092E50410921B0510921C0516
:101E300089E892E09093E4048093E3041092E8042C
:101E40001092E7041092FC041092FF041092F30425
:101E50001092F4041092F5041092F6048FEF809320
:101E6000FD0480930105E5E0F5E08BE195E0CFEF1F
:101E7000C1938E179F07E1F786EE95E09093EC04EF
:101E80008093EB0487E497E09093EE048093ED0455
:101E90008BE998E09093F0048093EF0484E099E05C
:101EA0009093F2048093F10430E020E040E069E098
:101EB00087EE94E00E94E60583E08093110584E0BC
:101EC00080931205C0931005CF910895CF93DF93AF
:101ED000CDB7DEB7AB970FB6F894DEBF0FBECDBF60
:101EE0008091F20080618EBB80E88093F2009EB307
:101EF0009093F2008093610091E090936100809351
:101F0000610010926100789484B5826084BD84B5CC
:101F1000816084BD85B5826085BD85B5816085BDE4
:101F200080916E00816080936E001092810080919C
:101F30008100826080938100809181008160809324
:101F40008100809180008160809380008091B10049
:101F500084608093B1008091B00081608093B00074
:101F600080919100826080939100809191008160C6
:101F70008093910080919000816080939000809187
:101F80007A00846080937A0080917A0082608093E6
:101F90007A0080917A00816080937A0080917A0043
:101FA000806880937A001092C10061E085E00E9411
:101FB00079040CE612E0A3E7EA2EA2E0FA2E62E032
:101FC000D8018D918D010E947904E016F106B9F7D0
:101FD00061E082E00E94790461E084E00E9479047B
:101FE00061E083E00E94790460E084E00E944B0499
:101FF00060E083E00E944B040E94B509E0919E03DB
:10200000F0919F030190F081E02DA089B18982E0D9
:102010008C93A485B5851C92A685B7858FE78C9394
:10202000108EA489B58986E08C93A289B3898C919E
:1020300080618C93A289B3898C9188608C93A289EA
:10204000B3898C9180688C930288F389E02D80811C
:102050008F7D808384E08093A0031092A20310926E
:10206000A1031092A9031092A8031092A703109243
:10207000A6038FEF9FEF9093AB038093AA039093F7
:10208000AD038093AC032FB7F894809164039091D3
:102090006503A0916603B09167032FBF8093360458
:1020A00090933704A0933804B0933904109233040A
:1020B0001092B0031092AF031092B1031092B203CA
:1020C00010923504109234048091AE0381708260C6
:1020D00081608093AE03E091EB04F091EC0430E07A
:1020E00020E040E06AE087EE94E009958E010F5F02
:1020F0001F4F88E0F80111928A95E9F7C8010E9404
:102100009B02E091EB04F091EC0430E020E040E031
:102110006BE087EE94E00995E091EB04F091EC041C
:1021200030E020E040E06BE087EE94E009958FEA34
:1021300087BD80916E00826080936E00FCE06F2E00
:10214000712C2FB7F8948091640390916503A0914E
:102150006603B09167032FBF4091700350917103E4
:1021600060917203709173036C017D01C41AD50AEA
:10217000E60AF70AB701A601413951406105710528
:1021800008F49FC08093700390937103A09372032F
:10219000B093730388ED91E09093F8048093F70473
:1021A000FF24F394F092FC0410921B0510921C057E
:1021B00087EC91E00E9490091092FC0410921B059C
:1021C000F0921C0580EC91E00E94900983E08093DE
:1021D0001B0580931C0520912D0530E050E040E068
:1021E00019A27E0191E2E90EF11CCA01B9012AE0AF
:1021F00030E040E050E00E943A14605DD7016E93F9
:102200007D01211531054105510579F7109769F0D8
:10221000FD0101900020E9F73197AF014A1B5B0BEC
:10222000BD0183EE94E00E94CA0980916D031F9264
:102230008F93EDEAF2E0FF93EF931F930F930E94C9
:102240009914E5EDEE2EE2E0FE2EF092EA04E09223
:10225000E904C8010E94680886E080931B0581E0BC
:1022600080931C050F900F900F900F900F900F9080
:10227000E0912D05E830D0F4F0E0EF5BFE4E0C94D9
:102280009314491131123D124912551261126D1207
:10229000791285EB91E00E94900910921B0582E073
:1022A00080931C0587EA91E00E949009E091EB047D
:1022B000F091EC0430E020E040E060E187EE94E053
:1022C000099580916F03882309F439C280912D010B
:1022D00090912E0101978830910520F49093280564
:1022E0008093270510926F0361E085E00E944B0404
:1022F0008EE1D8011D928A95E9F7E0912705F091CA
:102300002805EE0FFF1FEE0FFF1F8091290590910A
:102310002A05E80FF91F80911D0590911E05208167
:102320003181820F931F8C30910554F020911F054D
:10233000309120052F5F3F4F3093200520931F05DC
:10234000B3010E947F149C0180911F05909120058C
:1023500001968A30910508F0D8C06CE0689FA00112
:10236000699F500D11246A01C20ED31EDBA6CAA6B6
:10237000828193818130910509F4CCC008F4E2C0D8
:102380008230910509F4CEC0039709F4D3C03BA372
:102390002AA3E8A5F9A5E20FF31FCF01B3010E941C
:1023A0007F149DA38CA344244394512C3C9714F494
:1023B000512C412C220D331DC901B3010E947F1401
:1023C0009FA38EA388248394912C2C30310514F480
:1023D000912C812C20912B0530912C052115310554
:1023E00039F0C9010297F12CE12C029708F0B7C02F
:1023F000E0902305F0902405A0902105B0902205DF
:102400006801F0E0E0E0EE16FF0609F4A8C0CF0195
:1024100063E070E00E947F148130910509F098C05C
:10242000640D751D6A0D7B1D880F991FD801A80FBB
:10243000B91F91964D915C916F5F7F4F8FEF9FEF2A
:102440006A30710540F4BCE0B69FC001B79F900DA3
:102450001124840F951FD6018D939D936D013196A4
:10246000D2CF8CE991E00E94900910921B0582E086
:1024700080931C058EE891E017CF83E891E00E94DD
:10248000900910921B0582E080931C0585E791E07E
:102490000BCF8AE691E00E94900910921B0582E022
:1024A00080931C058CE591E0FFCE81E591E00E94D0
:1024B000900910921B0582E080931C0583E491E053
:1024C000F3CE88E391E00E94900910921B0582E010
:1024D00080931C058AE291E0E7CE8FE191E00E94B3
:1024E000900910921B0582E080931C0581E191E028
:1024F000DBCE86E091E00E94900910921B0582E0FD
:1025000080931C0588EF90E0CFCE8FEF9FEF9BA7C5
:102510008AA72ECF67E0262E312CA3E0B0E0B9A722
:10252000A8A735CF56E0252E312CE3E0F0E0F9A73F
:10253000E8A72DCF48E0242E312C84E090E099A725
:1025400088A725CF97E0292E312CA4E0B0E0E7CF73
:102550008230910509F066CF680D791D63CFC901FE
:102560000197029708F043C020912305309124057C
:1025700021503109C0902105D0902205F701EE0FBE
:10258000FF1FE00FF11F6CE0B62E37FD67C0C901D9
:1025900063E070E00E947F148130910511F5640DB5
:1025A000751D6C0D7D1D880F991FD801A80FB91FCF
:1025B00091964D915C916F5F7F4F8FEF9FEF6A30E7
:1025C000710538F4B69EC001B79E900D1124840F9A
:1025D000951F81939193BFEFEB1AFB0A21503109AC
:1025E000D4CF82309105E9F6680D791DDACF23301A
:1025F0003105A1F5E2E0EE16F10480F15801D12C8D
:10260000C12C4701F1E08F1A9108C814D90430F5A4
:102610000E94F8139C01B7016C197D098FEF9FE7A9
:102620000E946B146F5F7F4FC9010E946B14FB0106
:10263000EC0DFD1DEE0FFF1FE00FF11F808191815A
:10264000D5012D913D915D0131832083FD013297AC
:1026500091838083BFEFCB1ADB0AD7CF9AA4E8948B
:1026600097F860E980919E0390919F030E94AB09C7
:10267000692D80919E0390919F030E94AB096FE7A3
:1026800080919E0390919F030E94AB095801D12C29
:10269000C12C80919E0390919F03CE14DF04D1F151
:1026A000F5012081F2E0AF0EB11C822EE89487F88C
:1026B00060E90E94AB09682D80919E0390919F0371
:1026C0000E94AB096FE780919E0390919F030E9447
:1026D000AB09609125057091260590E080E00E948D
:1026E000E80460E880919E0390919F030E94AB09EB
:1026F000682D80919E0390919F030E94AB0960E03A
:1027000080919E0390919F030E94AB092FEFC21A04
:10271000D20ABFCF60E80E94AB09692D80919E0369
:1027200090919F030E94AB0960E080919E0390917D
:102730009F030E94AB0960E085E00E944B0480E0AB
:1027400090E0892B09F4FDCC0E944903882309F409
:10275000F5CC0E940000F2CC8F929F92AF92BF9274
:10276000CF92DF92EF92FF92CF93DF93EC016881DB
:1027700079818A819B81611571058105910521F41B
:1027800064E279ED8BE597E02DE133EF41E050E035
:102790000E94081449015A019B01AC01A7EAB1E467
:1027A0000E9427146B017C01ACEEB4EFA5019401EB
:1027B0000E943514DC01CB018C0D9D1DAE1DBF1D8B
:1027C000B7FF03C00197A109B04888839983AA8302
:1027D000BB839F77DF91CF91FF90EF90DF90CF90F9
:1027E000BF90AF909F908F9008950E94AC13089572
:1027F0008FE291E00E94AC130895B0E0A0E08093D6
:102800002F0190933001A0933101B09332010895CC
:10281000052E97FB1EF400940E941F1457FD07D04D
:102820000E943A1407FC03D04EF40C941F145095E8
:102830004095309521953F4F4F4F5F4F08959095AC
:102840008095709561957F4F8F4F9F4F08950E949F
:102850005C14A59F900DB49F900DA49F800D911DB9
:1028600011240895B7FF0C9427140E942714821B8B
:10287000930B0895A1E21A2EAA1BBB1BFD010DC0EC
:10288000AA1FBB1FEE1FFF1FA217B307E407F50720
:1028900020F0A21BB30BE40BF50B661F771F881FFC
:1028A000991F1A9469F760957095809590959B0192
:1028B000AC01BD01CF010895A29FB001B39FC0013B
:1028C000A39F700D811D1124911DB29F700D811D5C
:1028D0001124911D0895AA1BBB1B51E107C0AA1F1B
:1028E000BB1FA617B70710F0A61BB70B881F991FB1
:1028F0005A95A9F780959095BC01CD01089597FB55
:10290000072E16F4009407D077FD09D00E946B14AF
:1029100007FC05D03EF4909581959F4F08957095E2
:1029200061957F4F0895EE0FFF1F0590F491E02D04
:102930000994AEE0B0E0EFE9F4E10C9448170D899A
:102940001E8986E08C831A8309838FEF9FE79E831D
:102950008D83AE01475E5F4F6F89788DCE01019602
:102960000E94BC142F813885020F131FF8011082BA
:102970002E96E4E00C946417ABE0B0E0E2ECF4E1F6
:102980000C943A177C013B018A01FC0117821682E4
:10299000838181FFC8C1CE0101965C01F70193815B
:1029A000F30193FD859193FF81913F01882309F401
:1029B00053C1853239F493FD859193FF81913F0195
:1029C000853229F4B70190E00E94AC16E7CF912C34
:1029D000212C312CFFE1F31538F08B3211F190F4FA
:1029E000803209F1833229F137FC3CC020ED280FF9
:1029F0002A3050F536FE20C08AE0989E200D112422
:102A0000922E06C08D3291F0803371F7689430F8C1
:102A1000F30193FD859193FF81913F018111DACFFD
:102A200021C0689431F8689432F8F2CF689433F892
:102A3000EFCF689434F8ECCFEAE02E9E200D1124FD
:102A4000222E689435F8E4CF8E3229F436FC04C186
:102A5000689436F8DDCF8C3619F4689437F8D8CFFF
:102A60008836B1F2982F9F7D95549330E0F08336ED
:102A7000A1F18337C1F1833509F063C02801F2E089
:102A80004F0E511CF801C080D180692D70E036FCDA
:102A900002C06FEF7FEFC6010E9496164C0168944A
:102AA00037F882010AC00C5F1F4FFFE3F9838824C7
:102AB0008394912C6501E89437F833FE2DC0522C95
:102AC0008114910471F5552009F468CFB70180E2B3
:102AD00090E00E94AC165A94F6CFF8018081898369
:102AE0000E5F1F4FE4CF2801F2E04F0E511CF8019A
:102AF000C080D180692D70E036FC02C06FEF7FEF9F
:102B0000C6010E94A1164C018201D5CFB70180E217
:102B100090E00E94AC162A942814190409F0B0F72A
:102B2000CECFF60137FC859137FE81916F01B70159
:102B300090E00E94AC1651105A94F1E08F1A91085F
:102B4000BFCF843619F0893609F077C0F80137FE17
:102B50006BC060817181828193810C5F1F4FF32D67
:102B6000FF763F2E97FF09C09095809570956195EF
:102B70007F4F8F4F9F4F689437F82AE030E0A501D0
:102B80000E94DC16C82ECA188C2C432C36FE0CC0B2
:102B9000E89440F8C91440F434FE05C032FC03C088
:102BA000F32DFE7E4F2E892C44FE95C0FE01EC0DC8
:102BB000F11D8081803309F087C0242D297E422EAB
:102BC000842D8870582E43FC95C040FE8FC09C2CED
:102BD000821418F42C0C922C981844FE91C0B70162
:102BE00080E390E00E94AC1642FE09C088E790E0C6
:102BF00041FE02C088E590E0B7010E94AC16C914FE
:102C000008F48AC0CA94D12C9FEFC91AD90ACA0CF9
:102C1000DB1CF60182916F01B70190E00E94AC16B7
:102C2000AC14BD04B1F74FCF60817181072E000C49
:102C3000880B990B0E5F1F4F92CFD32CE894D4F8DA
:102C40002AE030E0853739F1232D297FD22E8F36C7
:102C500001F148F48835A9F0F701868197812B9618
:102C6000E2E10C945617803749F08837A9F7D4FE73
:102C700002C06894D2F820E130E00DC06894D4F826
:102C8000F6CF34FE03C0822F8660D82E20E132E0DA
:102C900002C028E030E0F801D7FE0FC060817181EA
:102CA000828193810C5F1F4FA5010E94DC16C82E04
:102CB000CA183D2CE89437F867CF6081718190E0A5
:102CC00080E00E5F1F4FF0CF42FC02C0839478CFAC
:102CD0008394839475CF842D867809F471CFF6CFD1
:102CE000B70180E290E00E94AC1683948214C0F396
:102CF000512C73CF522C5818821408F46ECFF8CF91
:102D0000842D867809F47BCF8BE241FE80E247FC7C
:102D10008DE2B70190E071CFB70180E390E00E94AF
:102D2000AC169A946CCF8FEF9FEF99CFFC01059072
:102D3000615070400110D8F7809590958E0F9F1FBD
:102D40000895FC016150704001900110D8F7809502
:102D500090958E0F9F1F08950F931F93CF93DF932E
:102D6000182F092FEB018B8181FD09C01FEF0FEF99
:102D7000812F902FDF91CF911F910F91089582FFA6
:102D800014C02E813F818C819D81281739073CF426
:102D9000E881F981CF0101969983888310838E8120
:102DA0009F8101969F838E83E3CFE885F985812FEC
:102DB0000995892BA1F3DACFFA01AA27283051F11E
:102DC000203181F1E8946F936E7F6E5F7F4F8F4F5C
:102DD0009F4FAF4FB1E03ED0B4E03CD0670F781FBB
:102DE000891F9A1FA11D680F791F8A1F911DA11DA0
:102DF0006A0F711D811D911DA11D20D009F46894D9
:102E00003F912AE0269F11243019305D3193DEF680
:102E1000CF010895462F4770405D4193B3E00FD036
:102E2000C9F7F6CF462F4F70405D4A3318F0495D21
:102E300031FD4052419302D0A9F7EACFB4E0A69504
:102E40009795879577956795BA95C9F70097610526
:102E5000710508959B01AC010A2E0694579547957C
:102E600037952795BA95C9F7620F731F841F951F71
:102E7000A01D08952F923F924F925F926F927F9282
:102E80008F929F92AF92BF92CF92DF92EF92FF927A
:102E90000F931F93CF93DF93CDB7DEB7CA1BDB0B26
:102EA0000FB6F894DEBF0FBECDBF09942A883988CB
:102EB00048885F846E847D848C849B84AA84B984D2
:102EC000C884DF80EE80FD800C811B81AA81B981DE
:102ED000CE0FD11D0FB6F894DEBF0FBECDBFED01F2
:062EE0000895F894FFCFF5
:102EE6001400000040007F00F401F401F401F40135
:102EF600E803C8002C019001FFFFFFFF0A000A004B
:102F06000A000A00008000800080008004010001A1
:102F1600000000000002000100000003000100059F
:102F260000010006000000080000000A0001000081
:102F36000001000200020003000300050001000773
:102F4600000000080000000B000200000001000263
:102F56000002000300000005000100070001000850
:102F66000000000A0000000000000002000100044A
:102F76000002000500000007000100090001000A28
:102F8600000000000000000200000004000100062E
:102F960000020007000000090001000B000100000C
:102FA6000001000100000003000000050001000709
:102FB600000200080000000A0001000000010002F3
:102FC60000010003000000050000000700010009E1
:102FD6000002000A0000009102DB01BF01A3018785
:102FE600016B014F0133011815A015C019FF181503
:102FF600A115C819FF1815AE19FF1815AF19FF1836
:1030060015AE15D5168015A8161F15D31600154032
:10301600158D16141520160015A115C815DA1602F9
:103026001581168F15D916F115DB1640152E15A428
:1030360015A619FF0001140A6464323200127A00E0
:1030460000042896100400008000200006070809E6
:103056000A0B0C000000007E03DF020C03C5033DD3
:10306600031B032F03000000007109CA09F309F2CC
:103076000900000000020001000400010005000034
:103086000007000000090001000B0002002534645F
:02309600000038
:00000001FF
