:100000000C9420040C9448040C9448040C94480468
:100010000C9448040C9448040C9448040C94480430
:100020000C9448040C9448040C9448040C94400C20
:100030000C9448040C9448040C94990D0C944804B6
:100040000C94E40A0C9448040C9448040C9448045E
:100050000C9448040C94CE0D0C9448040C94480461
:100060000C942A0B0C944804000000002400270084
:100070002A002D0000000000250028002B002E0083
:10008000000000002300260029002C0004040404C2
:100090000404040402020202020203030303030332
:1000A000050505050505050102040810204080012D
:1000B00002040810200102040810200208010410A4
:1000C0002040000000085002010000030407000067
:1000D00000000000000000007F7F7F7F7F7F7F7F28
:1000E0007F7F7F7F7F7F7F7F7F7F7F7F7F7F7F7F20
:1000F0007F7F7F7F7F7F7F7F7F7F7F7F7F7F7F7F10
:100100007F7F7F7F7F7F7F7F7F7F7F7F7F7F7F7FFF
:100110007F7F7F7F7F7F7F7F7F7F7F7F7F7F7F7FEF
:100120007F7F7F7F7F7F7F7F7F7F7F7F7F7F7F7FDF
:100130007F7F7F7F7F7F7F7F7F7F7F7F7F7F7F7FCF
:100140007F7F7F7F7F7F7F7F7F7F7F7F7F7F7F7FBF
:100150007F7F7F7F7F7F7F7F83838383838383838F
:10016000838383838383838383838383838383835F
:10017000838383838383838383838383838383834F
:10018000838383838383838383838383838383833F
:10019000838383838383838383838383838383832F
:1001A000838383838383838383838383838383831F
:1001B000838383838383838383838383838383830F
:1001C00083838383838383838383838383838383FF
:1001D00083838383838383FF1A001C001E001F0018
:1001E00021002300250028002A002D002F003200C6
:1001F000350038003C003F00430047004B005000F2
:1002000055005A005F0065006B00710078007F00A8
:1002100087008F009700A000AA00B400BE00CA00AB
:10022000D600E300F000FE000E011E012F01410187
:10023000540168017D019401AC01C601E101FD0199
:100240001C023C025E028202A802D002FB022903C9
:1002500059038C03C203FB0338047804BC0404056F
:100260005005A105F7055206B20618078407F607E0
:100270007008F0087809080AA10A430BEF0BA40CD8
:10028000650D310E090FED0FE010E111F11211149F
:1002900043158716DE174919CA1A621C121EDB1F86
:1002A000C021C223E3252328862A0E2DBC2F92329B
:1002B0009435C438243CB73F81438547C64B4750EB
:1002C0000D551C5A785F2565296B887148786F7FBA
:1002D00003870A8F8C978FA0FFFEFEFEFDFDFDFCBD
:1002E000FCFBFBFAF9F8F8F7F6F5F1EDE8E4DFDBF3
:1002F000D7D2CDC8C3BDB8B3ADA8A39D97918B8508
:100300007F79736E6965605B56524D4845413E3A50
:1003100036332F2C292624211F1C1A1714131211CF
:100320000F0E0D0C0A09090908080707060606063C
:100330000505050505050505050404040404040375
:10034000030302020201010101010000000000009C
:1003500000000000000000000000710340031103D2
:10036000E502BB0294026F024C022B020C02EE016A
:10037000D301B801A001880172015D014A01370172
:10038000260115010601F700E900DC00D000C400D9
:10039000B900AE00A5009B0093008A0083007B009B
:1003A00074006E00680062005C00570052004D004F
:1003B0004900450041003D003A003700340031005B
:1003C0002E002B00290026002400220020001E0001
:1003D0001D001B001A001800170015001400130060
:1003E0001200110010000F000E000D000D000C0097
:1003F0000B000A000A0009000900080008000700B5
:1004000007000600060006000500050005000400C0
:1004100004000400040003000300030003000300C1
:1004200002000200020002000200020002000100BD
:1004300001000100010001000100010001000100B4
:1004400001000100010000000000000000000000A9
:10045000000000000000000000004D696E6F722A6D
:1004600020202020202020006C6F637269616E20A4
:100470002020002D2D2D2020202020202020202075
:10048000006861726D6F6E69632020004E61747543
:1004900072616C204D696E6F720061656F6C69618D
:1004A0006E202020004D616A6F72202020202020C5
:1004B0002020006D69786F6C796469616E004D6110
:1004C0006A6F722020202020202020006C7964692F
:1004D000616E20202020004D696E6F722020202048
:1004E0002020202000706872796769616E202000EA
:1004F0004D696E6F72202020202020202000646F24
:100500007269616E20202020004E61747572616CEA
:10051000204D616A6F7200696F6E69616E202020E4
:1005200020004D6F64653A2000417270656767690D
:1005300061746F72203630303000207F010100007E
:100540000000000000000000005F00000000000349
:1005500000000003000000227F22227F22000024EE
:100560002A6B2A1200004225120824522100002082
:1005700056494955225000000000030000000000C9
:100580001C224100000000000041221C000000006D
:100590000A041F040A000008083E080800000000C2
:1005A00000403000000000080808080808000000AB
:1005B0000040000000004020100804020100003E3E
:1005C0004141413E00000040427F40400000006247
:1005D0005149494600000022414949360000001CAB
:1005E00012117F1000000027454545390000003EEC
:1005F0004949493200000001017905030000003635
:1006000049494936000000264949493E000000009A
:100610000012000000000000002012000000000096
:1006200008142241000000141414141414000000D3
:1006300000412214080000020159090600003C4252
:1006400099A5A5B9221C60181611161860007F49DB
:100650004949494936003E414141414122007F41DB
:10066000414141413E007F494949494141007F099B
:100670000909090101003E41414149493A007F0809
:10068000080808087F000041417F414100002040E8
:10069000404040403F007F080808142241007F404E
:1006A0004040404040007F02040804027F007F0277
:1006B000040810207F003E41414141413E007F112E
:1006C000111111110E003E4141416141BE007F09EF
:1006D00009090919660026494949494932000101B9
:1006E000017F010101003F40404040403F000F10AA
:1006F000204020100F001F60201C20601F0041229E
:100700001408142241000304087008040300416126
:1007100051494543410000007F4141000000010272
:1007200004081020400000000041417F0000000448
:1007300002010204000080808080808080800000B0
:100740000001020000000020545454547800007F3F
:1007500044444444380000384444444428000038A9
:10076000444444447F00003854545454480000002A
:10077000047E050100000018A4A4A4A47C00007F4E
:100780000404040478000000447D400000000040A0
:100790008080847D0000007F10101028440000003D
:1007A000017F000000007C04047C04047800007CCD
:1007B000040404047800003844444444380000FC35
:1007C000444444443800003844444444FC00007C21
:1007D0000804040404000048545454542400000045
:1007E000043F44400000003C404040407C00001C6E
:1007F000204040201C00003C40403840403C004429
:10080000281028440000001CA0A0A0A07C000044E8
:1008100064544C4400000000083641000000000011
:1008200000FF00000000000000413608000008043E
:100830000408101008000000000000000000090E6D
:1008400011241FBECFEFD8E0DEBFCDBF12E0A0E085
:10085000B1E0ECE6FDE202C005900D92A03AB107CE
:10086000D9F723E0A0EAB2E001C01D92AA3AB2078C
:10087000E1F714E0C0E2D4E004C02197FE010E9439
:10088000D613CF31D107C9F70E94880E0C94B41645
:100890000C94000080E008951F93CF93DF9300D065
:1008A00000D01F92CDB7DEB71C8221E02B839A8344
:1008B0008983E0916303F091640311891D82A09103
:1008C0006303B0916403E0916703F09168039E01B4
:1008D0002F5F3F4F50964C916FE083E693E0099570
:1008E0008D818F5F8D83811750F30F900F900F9044
:1008F0000F900F90DF91CF911F9108959B01DC0124
:100900001896ED91FC9141E067E10994662329F086
:100910006A3019F0862F90E008958FEF9FEF0895C9
:10092000089581508B3088F5E82FF0E0E656FB4FB4
:100930000C94D613AF04B304A504AB04C504C504DA
:10094000B604BC04C004C604CA04809180008F773A
:10095000809380000895809180008F7DF9CF84B5C9
:100960008F7784BD089584B58F7DFBCF8091B000D3
:100970008F778093B00008958091B0008F7DF9CF7C
:10098000809190008F7780939000089580919000DF
:100990008F7DF9CF80919000877FF5CFCF93DF9344
:1009A000282F30E0F901EE53FF4F8491F901E9550A
:1009B000FF4FD491F901E457FF4FC491CC23A1F02C
:1009C00081110E949104EC2FF0E0EE0FFF1FE05820
:1009D000FF4FA591B491EC91ED2381E090E009F4F3
:1009E00080E0DF91CF91089580E090E0FACF1F93EF
:1009F000CF93DF93282F30E0F901EE53FF4F84911E
:100A0000F901E955FF4FD491F901E457FF4FC49123
:100A1000CC23A9F0162F81110E949104EC2FF0E055
:100A2000EE0FFF1FEC58FF4FA591B4918FB7F894CC
:100A3000EC91111108C0D095DE23DC938FBFDF91BC
:100A4000CF911F910895DE2BF8CFCF93DF93282FFE
:100A500030E0F901E955FF4F449124573F4FF90128
:100A60002491843019F583E08093A0002223D9F0EB
:100A7000822F90E0880F991FFC01E859FF4FA59144
:100A8000B491FC01EC58FF4FC591D491623019F537
:100A90009FB7F8942C91842F809582238C93E881C2
:100AA0004E2B48839FBFDF91CF9108959AEE980F08
:100AB000923020F48FEF84BF84BFD8CF8A31B1F653
:100AC0008091F00082608EBB80E88093F0008EB34E
:100AD0008093F000CBCF8FB7F894EC914E2B4C93D2
:100AE0008FBFE1CF3FB7F89480913E0390913F03D1
:100AF000A0914003B091410326B5A89B05C02F3FAC
:100B000019F00196A11DB11D3FBFBA2FA92F982F33
:100B10008827BC01CD01620F711D811D911D660FDB
:100B2000771F881F991F08958F929F92AF92BF924F
:100B3000CF92DF92EF92FF926B017C010E947205CF
:100B40004B015C01C114D104E104F104B9F00E942D
:100B50007205681979098A099B09683E7340810505
:100B6000910580F321E0C21AD108E108F10888EE6E
:100B7000880E83E0981EA11CB11CE4CFFF90EF907B
:100B8000DF90CF90BF90AF909F908F90089585EDAC
:100B90008093BC008091BC0084FDFCCF10921703B1
:100BA0000895613298F420911703243089F46093FA
:100BB000F302282FA3EDB2E0FC018E2F821B8617D3
:100BC00010F080E0089581918D93F7CF81E0089532
:100BD00082E008958FEF9FEF08958FEF9FEF0895C4
:100BE0008091D20290E09195819591090895CF93DB
:100BF000DF93CB01EA01642F0E94D105CE01DF9182
:100C0000CF910895CF93DF931F92CDB7DEB769835D
:100C100061E0CE0101960E94D10581E090E00F9045
:100C2000DF91CF910895DC011A96ED91FC9130E0AF
:100C300020E00994DC011696ED91FC9130E020E073
:100C400040E069E10994DC011696ED91FC9130E0F9
:100C500020E040E068E109949A01DC011696ED91EC
:100C6000FC91462F67E10994EF92FF920F931F9337
:100C7000CF93DF931F92CDB7DEB77C018B01D801F4
:100C80006C91673129F150F46531A0F40F90DF9138
:100C9000CF911F910F91FF90EF9008956A3118F155
:100CA0006E3FA1F7F8014181498369E2C7010E94C3
:100CB00013060BC0F80141814983D7011696ED91C7
:100CC000FC9130E020E0C70109950E5F1F4FD7CFA0
:100CD000F80181818983AE014F5F5F4F61E0C701F9
:100CE0000E942C06F2CF0F5F1F4FD7011696ED9191
:100CF000FC9130E020E040E0C7010995C0CF462FCD
:100D0000DC011696ED91FC9130E020E066E109945B
:100D1000462FDC011696ED91FC9130E020E065E174
:100D20000994EF92FF920F931F93CF93DF93EC01FF
:100D3000042F7901693069F480E692E09983888311
:100D40001C8A81E0DF91CF911F910F91FF90EF906E
:100D500008956D3009F475C038F46A3091F16B3044
:100D600009F468C080E0EECF6E3009F47DC06F30CA
:100D7000C9F70E942306F7011381110F110F110FFC
:100D80006C89160F612F62956F706061CE010E94B1
:100D90008806612F6F70CE010E948806F70164817A
:100DA000606BCE010E948806F7014081518162810B
:100DB000660F660F660FCE010E942C060150A1F748
:100DC0005DC0EA85FB8530E020E040E068E20995FF
:100DD000EE81FF8130E020E040E064E1CE01099542
:100DE00041E06BE4CE010E941306E881F981448161
:100DF00069E2CE010E94130640E06BE4CE010E943E
:100E00001306E881F981448169E2CE010E9413064C
:100E100041E06BE4CE010E941306E881F98145812F
:100E200069E2CE010E9413066BE272E0CE010E94DD
:100E3000340687CF66E272E04423C1F361E272E0D8
:100E4000F5CF411109C06AE172E00E943406E881E1
:100E5000F98182898C8B75CF63E172E00E94340640
:100E6000E881F9818389F6CF0E94230661E8CE01EB
:100E70000E948806602FCE010E947F06CE010E944C
:100E80001A065FCF41E06DE40C941306DC01ED918E
:100E9000FC9145856DE20C941306CF93DF93EC0132
:100EA00041E06CE40E941306CE01DF91CF910C94D7
:100EB0004607CF93DF93EC01662379F00E94420747
:100EC000CE010E944607CE010E944D0740E06CE42F
:100ED000CE01DF91CF910C94130640E06DE40E94A7
:100EE0001306EECF1F93CF93DF93EC01162F60789C
:100EF0000E945907612F6074CE010E945907612F2B
:100F00006072CE010E945907612F6071CE010E946C
:100F10005907612F6870CE010E945907612F6470D4
:100F2000CE010E945907612F6270CE010E945907BD
:100F3000612F6170CE010E945907CE010E944207C5
:100F4000CE010E944607CE010E944D07CE010E94AD
:100F50004207CE010E94460740E06CE4CE01DF91DB
:100F6000CF911F910C941306DC011896ED91FC9122
:100F700030E020E040E069E10994DC011896ED9151
:100F8000FC9130E020E040E068E10994CF93DF93EA
:100F90001F92CDB7DEB76983BE016F5F7F4F0E949E
:100FA0007E040F90DF91CF910895EF92FF921F93EF
:100FB000CF93DF93EC01162F7A010E94BD0760E406
:100FC000CE010E94C607E885F9859701412F67E1A8
:100FD000CE010995CE01DF91CF911F91FF90EF9047
:100FE0000C94B407EF92FF921F93CF93DF93EC0121
:100FF000142F7901663181F138F4643109F44BC062
:10100000653179F080E022C06831C9F150F1693171
:10101000C9F78091D102882391F1CE010E94B407D3
:101020002EC08091D102882319F0CE010E94B4070E
:10103000CE010E94BD0760E0CE010E94C607612F6D
:10104000CE010E94C60781E08093D102DF91CF914B
:101050001F91FF90EF900895642F0E94C60781E0D2
:10106000F5CF8091D102882319F0CE010E94B407F8
:10107000A701193138F4612FCE010E94D5071092D3
:10108000D102EDCF68E1CE010E94D507185188E169
:10109000E80EF11CEDCF8E898F3F11F488E78E8B1F
:1010A000E885F9859701412F64E1CE01DF91CF9169
:1010B0001F91FF90EF900994CF93DF93EC01A889E3
:1010C000B989FD01349131969491319684911396AA
:1010D000FD01A4916317A8F1961798F1631B770B94
:1010E0008A9FE02D1124E69FC001E79F900D1124F7
:1010F000280F392F311D83E0220F331F8A95E1F726
:10110000C9010496DA01245F3F4FE889F989E80FA5
:10111000F91FE491ED93019682179307B1F78D893A
:10112000882361F0FA019A01285F3F4F8191DF0126
:10113000119780958C932E173F07C1F7DF91CF91C0
:101140000895FA01CA0108961192E817F907E1F724
:10115000E6CF4F925F926F927F928F929F92AF9263
:10116000BF92CF92DF92EF92FF920F931F93CF9394
:10117000DF93CDB7DEB72D970FB6F894DEBF0FBE65
:10118000CDBF7C01C62ED42EB22EDC0150968D919F
:101190009C91FC013296149131960491512E560E79
:1011A000040F81E0860F581608F411E0712CFE013F
:1011B00031964F0144244394672CAC2C262DA40176
:1011C0006B2DC7010E945C08AC86DD864B869A8633
:1011D0008986D7011496ED91FC919E01275F3F4FC0
:1011E00041E06FE0C70109956394A394A51430F31F
:1011F000D394710ED01600F32D960FB6F894DEBF7F
:101200000FBECDBFDF91CF911F910F91FF90EF9057
:10121000DF90CF90BF90AF909F908F907F906F9016
:101220005F904F900895FF920F931F93CF93DF939A
:10123000E0917303F09174033296C49110927B0392
:101240008C01D0E085E0F82EF80161918F01E091EA
:101250006503F091660383E693E009958F3F980755
:1012600071F08E3F2FEF920779F3282F43E06F2D17
:1012700083E693E00E94A908FC0EDF5FE5CF8D2F87
:10128000DF91CF911F910F91FF900895EF92FF9200
:101290001F93CF93DF93EC01142F7901683151F143
:1012A00030F46431D1F06731A9F080E006C06931D3
:1012B00009F443C06032C9F781E0DF91CF911F91FB
:1012C000FF90EF900895F70161917F01CE010E9498
:1012D000720711501111F7CFEFCF41E06CE40E947B
:1012E000130641E06DE4CE010E941306CE010E9478
:1012F0004607E2CF8F89882349F0CE010E9442073A
:10130000CE010E944607CE010E944D07CE010E94E9
:10131000420740E06DE4CE010E941306CE010E9418
:10132000460740E06CE4CE010E94130681E08F8BFB
:101330006E89CE010E947207BFCF40E06DE40E942B
:101340001306CE010E944607CE010E944D07CE0132
:101350000E944207CE010E9446071F8AADCF0F931D
:101360001F93CF93DF938C01C62F642FCC32E8F408
:10137000CA3208F041C0C83271F1C93209F442C022
:1013800080E0C034D0F1CF73F801EC0FF11D868DF1
:101390008F3F91F1C031E0F00E94CE0421E0892B13
:1013A00009F420E0F801218F27C0CD3289F140F304
:1013B00084EB8C0F823020F7CF73C00FD12FD11D5B
:1013C0008E8D411135C061E00E94250560E08E8D53
:1013D0000E94F70411C0025E1F4FD0E0F801819116
:1013E0008F018F3F31F061E0D03108F062E00E9460
:1013F0002505DF5FD63191F781E0DF91CF911F9115
:101400000F91089570E090E080E00E949405F4CF81
:1014100025E030E0433010F022E030E046E0429F2B
:10142000C001439F900D112405970197F1F7E4CF78
:1014300062E00E942505E0CF1F93CF93DF93EC017C
:10144000EC89FD8949AD6A3059F43396E491E40F93
:10145000E9AF18AE81E090E0DF91CF911F91089540
:10146000262F3296149168AD04960E94A908E8AD23
:10147000E10FE8AFEFCF0F931F93CF93DF938C0172
:10148000D0E0C0E0F801EC0FFD1F6491662341F04D
:101490008FE593E00E941C0A892B11F02196F2CF70
:1014A000CE01DF91CF911F910F910895CF93DF93DC
:1014B00090E0E62FF0E0EE0FFF1FE852FE4F25917F
:1014C0003491880F991FFC01E752FE4F318320832E
:1014D000EC01CF52DE4F19821882A081B181608168
:1014E00071814881598187519E4FFC01C081D18112
:1014F000E091D001F0E086E0769567958A95E1F776
:1015000096E0569547959A95E1F7649F9001659FFF
:10151000300D749F300D1124220F232F221F330B07
:1015200031952C9FC0012D9F900D3C9F900D112453
:101530008A0F9B1FEE0FFF1FE853FE4F918380839E
:10154000DF91CF910895EAE7F0E084E0808380E6C0
:1015500080937C008FE180937E00ABE7B0E08C91BC
:101560008C938081886A80838081806480830895E1
:10157000CF92DF92EF92FF920F931F93CF93DF935F
:101580006C01EB017B01E40EF51E10E000E0CE15CE
:10159000DF0561F06991D601ED91FC910190F08138
:1015A000E02DC6010995080F191FF1CFC801DF9181
:1015B000CF911F910F91FF90EF90DF90CF90089502
:1015C000089590E080E008951F920F920FB60F9259
:1015D00011242F933F938F939F93AF93BF93809149
:1015E000530390915403A0915503B0915603309149
:1015F0003D0320E4230F2D3728F023EC230F019621
:10160000A11DB11D20933D03809353039093540378
:10161000A0935503B093560380913E0390913F03EE
:10162000A0914003B09141030196A11DB11D80938B
:101630003E0390933F03A0934003B0934103BF91B7
:10164000AF919F918F913F912F910F900FBE0F906F
:101650001F9018951F920F920FB60F9211242F937F
:101660003F934F935F936F937F938F939F93AF932A
:10167000BF93EF93FF938091B900887F803609F480
:101680004AC0F0F5883209F4A5C018F5803109F494
:1016900099C0B8F4882309F4F0C0883009F492C0E6
:1016A000FF91EF91BF91AF919F918F917F916F913A
:1016B0005F914F913F912F910F900FBE0F901F9010
:1016C0001895883109F486C0803251F7809316034B
:1016D00014C0803409F49BC040F48033B9F38833DC
:1016E000F9F68093160385ECAEC0803509F483C00B
:1016F000883509F494C0883499F60E94C705D0CF84
:10170000883909F48AC038F5883729F050F48836CA
:1017100011F0803729F683E08093170310921503A8
:1017200055C0883809F479C0803919F0803809F03B
:10173000B7CF80911503803208F06FC0E091150398
:1017400081E08E0F809315038091BB00F0E0EB5099
:10175000FD4F80833BC0803B39F0D0F4803A09F4E0
:1017600077C0883A09F09CCF84E0809317031092E9
:10177000F4021092F302F0E0E0E009958091F302A8
:1017800081110FC081E08093F3021092D30209C04F
:10179000803C09F4A8CF883C09F4A5CF883B09F028
:1017A0007FCFE091F40281E08E0F8093F402F0E0AD
:1017B000ED52FD4F80818093BB009091F4028091A7
:1017C000F30229C080913C038093BB0085EC809399
:1017D000BC0066CF90913B0380913A03981758F56F
:1017E000E0913B0381E08E0F80933B03F0E0E65EE7
:1017F000FC4F8081E9CFE0913B0381E08E0F809325
:101800003B038091BB00F0E0E65EFC4F808390914B
:101810003B0380913A039817C8F285E8D8CFE0914E
:101820003B0381E08E0F80933B038091BB00F0E08F
:10183000E65EFC4F80838091190381115ECF81E0C9
:101840008093180384EA8093BC001092170328CF7A
:1018500080911503803230F4E0911503F0E0EB50F5
:10186000FD4F10826091150370E085EF92E0F0E08B
:10187000E0E009951092150336CF109216033DCF84
:1018800078941F920F920FB60F9211240F931F930B
:101890002F933F934F935F936F937F938F939F9378
:1018A000AF93BF93EF93FF938091D0018F5F8093AD
:1018B000D0018091D00183708093D001811103C049
:1018C00081E08093D002E091D001F0E0EE0FFF1FA5
:1018D000EF52FE4F818187FD25C18091D001E091BB
:1018E000D001F0E0EE0FFF1FE65BFC4F208131815D
:1018F000A091D001B0E0AA0FBB1FAF51BE4F6D91B8
:101900007C91A091D001B0E0AA0FBB1FAF52BE4F97
:101910004D915C911197460F571F11965C934E9312
:101920001196EC91E20FF32FF11DE491A82FB0E096
:10193000AC53BE4FEC9300914203109143032091AE
:10194000C8013091C9018091C8029091C902820FEB
:10195000931F9093C9028093C802E091C902E00FDF
:10196000F12FF11D04912091C40160914403709105
:1019700045034091CA015091CB018091CA029091D8
:10198000CB02840F951F9093CB028093CA02E09103
:10199000CB02E60FF72FF11D74916091C501809184
:1019A000460390914703E091CC01F091CD01409125
:1019B000CC025091CD024E0F5F1F5093CD02409349
:1019C000CC02E091CD02E80FF92FF11D1491509156
:1019D000C6018091480390914903E091CE01F091B6
:1019E000CF01A091CE02B091CF02AE0FBF1FB09336
:1019F000CF02A093CE02E091CF02E80FF92FF11DA4
:101A000044913091C7010203F0011124EF2FFF0F21
:101A1000FF0B7603B0011124672F770F770BE60FCA
:101A2000F71F1503C0011124892F990F990BE80F97
:101A3000F91F4303C0011124892F990F990BE80F57
:101A4000F91FF595E795F595E795E158E093B40012
:101A5000E093B300E091D001F0E0EE0FFF1FE752FA
:101A6000FE4F80819181E091D001F0E0EE0FFF1FE9
:101A7000E752FE4F60817181E091D001F0E0EE0FFE
:101A8000FF1FEF52FE4F20813181E091D001F0E045
:101A9000EE0FFF1FE751FE4FA081B181E091D00111
:101AA000F0E016E0769567951A95E1F706E0369531
:101AB00027950A95E1F7629FA001639F500D729FE1
:101AC000500D1124440F452F441F550B51954A9F2B
:101AD00090014B9F300D5A9F300D1124820F931FA0
:101AE000EE0FFF1FE853FE4F918380838091C60263
:101AF0009091C70201969093C7028093C602FF910E
:101B0000EF91BF91AF919F918F917F916F915F9175
:101B10004F913F912F911F910F910F900FBE0F90FA
:101B20001F901895E091D001F0E0EC53FE4F108229
:101B300002CF1F920F920FB60F9211242F933F9353
:101B40004F935F936F937F938F939F93AF93BF93C5
:101B5000EF93FF938091C4029091C5020196843661
:101B60009105A8F49093C5028093C402FF91EF9170
:101B7000BF91AF919F918F917F916F915F914F91A5
:101B80003F912F910F900FBE0F901F9018951092BC
:101B9000C5021092C4020E94A30AE8CF1F920F92BE
:101BA0000FB60F9211242F933F938F939F93EF9330
:101BB000FF9380917C008F70815090917C009F5F9B
:101BC00090937C002091780030917900E82FF0E02C
:101BD000E95AFC4F30838230A1F48091590390E0A0
:101BE000880F991F9093A9038093A803FF91EF9109
:101BF0009F918F913F912F910F900FBE0F901F904B
:101C00001895863099F780917A008F7780937A00C3
:101C1000EDCFCF9382E090E090939A038093990365
:101C200085E090E090939C0380939B038EEF9FEF61
:101C300090939E0380939D0386E090E09093A00391
:101C400080939F0388EC90E09093A9038093A8036E
:101C50001092A2031092A10383EF91E09093A4034A
:101C60008093A30310926203109261031092970372
:101C70001092980383E992E09093600380935F034E
:101C800010926403109263031092780310927B0306
:101C900010926F03109270031092710310927203EE
:101CA0008FEF8093790380937D03E1E8F3E087E988
:101CB00093E0CFEFC1938E179F07E1F781E996E09C
:101CC000909368038093670382EF97E090936A0391
:101CD0008093690386E499E090936C0380936B038F
:101CE0008FEA99E090936E0380936D0330E020E0DB
:101CF00040E069E083E693E00E94910682E08093F1
:101D00008D0384E080938E03C0938C03CF9108955C
:101D1000CF93DF93CDB7DEB7AB970FB6F894DEBFA6
:101D20000FBECDBF8091F20080618EBB80E88093B2
:101D3000F2009EB39093F2008093610091E0909343
:101D400061008093610010926100789484B5826094
:101D500084BD84B5816084BD85B5826085BD85B54F
:101D6000816085BD80916E00816080936E001092CD
:101D70008100809181008260809381008091810048
:101D800081608093810080918000816080938000D9
:101D90008091B10084608093B1008091B000816037
:101DA0008093B00080919100826080939100809137
:101DB0009100816080939100809190008160809378
:101DC000900080917A00846080937A0080917A00FC
:101DD000826080937A0080917A00816080937A009B
:101DE00080917A00806880937A001092C10061E04F
:101DF00085E00E942505EFE8EE2EE2E0FE2E08E8E1
:101E000012E062E0D8018D918D010E942505E01657
:101E1000F106B9F761E084E00E94250561E082E007
:101E20000E94250560E084E00E94F70460E082E003
:101E30000E94F7040E94A30A1092800089E0809318
:101E400081001092820080E496E090938900809354
:101E5000880080916F00826080936F00789483E0A7
:101E60008093520383E28093B00081E08093B100BD
:101E70008FE78093B4008093B300539A68ED70E0CD
:101E8000709343036093420328ED31E0F90185919B
:101E900094919093DA018093D90148ED52E05093E8
:101EA0004B0340934A0382E294E0FC01A591B49174
:101EB000B093E201A093E1011092EA011092E901CE
:101EC0007093450360934403F90125913491309355
:101ED000DC012093DB0150934D0340934C03FC0144
:101EE000859194919093E4018093E3011092EC0129
:101EF0001092EB01E0916703F091680330E020E07D
:101F000040E06AE083E693E009958E010F5F1F4F82
:101F100088E0F80111928A95E9F7C8010E944C0403
:101F2000E0916703F091680330E020E040E06BE06F
:101F300083E693E00995E0916703F091680330E050
:101F400020E040E06BE083E693E009958FEA87BDEF
:101F500080916E00826080936E007CE0272E312C91
:101F60008FB7F894409153035091540360915503F7
:101F7000709156038FBFA0915803B0E025EF3FEF5B
:101F80004FEF5FEF0E946A132CEF30E040E050E02B
:101F90000E944B1329013A01FBE04F0E511C611CBA
:101FA000711C80915B03C0905703D0905A03A0919D
:101FB0005C03B0E029EF3FEF4FEF5FEF0E946A1341
:101FC0002CEF30E040E050E00E944B1349015A01F1
:101FD00087E0880E911CA11CB11CE0905903F09081
:101FE0005D0350929A034092990350929C03409251
:101FF0009B03AC2DB0E029EF3FEF4FEF5FEF0E9466
:102000006A132CEF30E040E050E00E944B13295F50
:102010003F4F4F4F5F4F30939E0320939D03AD2D55
:10202000B0E029EF3FEF4FEF5FEF0E946A132CEF14
:1020300030E040E050E00E944B13285F3F4F4F4F8D
:102040005F4F3093A00320939F038E2D90E0880F65
:10205000991F9093A9038093A8036F2D70E090E0DF
:1020600080E052E0660F771F881F991F5A95D1F7BD
:102070002CEF30E040E050E00E944B133093A60379
:102080002093A503F401EE0FFF1FE858FD4F808158
:1020900091819093A4038093A3038092A703AAE362
:1020A000B5E0B0937403A0937303B1E0B0937803E9
:1020B000109297031092980389E295E00E943B0AE0
:1020C0001092780310929703E1E0E093980382E284
:1020D00095E00E943B0A83E08093970380939803E6
:1020E0002091A70330E050E040E019A27E01F1E228
:1020F000EF0EF11CCA01B9012AE030E040E050E0E7
:102100000E947D13605DD7016E937D01211531051D
:102110004105510579F7109769F0FD010190002004
:10212000E9F73197AF014A1B5B0BBD018FE593E0E7
:102130000E94B80A80915C031F928F93EBE9F2E052
:10214000FF93EF931F930F930E94DC1386E894E0B4
:102150009093660380936503C8010E94130986E08B
:102160008093970391E0909398030F900F900F90B6
:102170000F900F900F90E091A703E830D0F4F0E0BB
:10218000EC53FF4E0C94D613CC10C911D511E111AC
:10219000ED11F9110512111287E195E00E943B0A39
:1021A0001092970382E08093980389E095E00E9463
:1021B0003B0AE0916703F091680330E020E040E0E3
:1021C00060E183E693E0099538E8E32E32E0F32EF0
:1021D000D12CC12CD7018D917D010E94CE04BFEF7F
:1021E000CB1ADB0A892B09F028C1E1E0E0935E03FA
:1021F000D092F201C092F10180915E03882309F42C
:10220000E6C18091F1019091F2010197883091052A
:1022100020F49093A2038093A10310925E0361E0E7
:1022200085E00E94F7048FE0D8011D928A95E9F7B6
:10223000E091A103F091A203EE0FFF1FEE0FFF1F2D
:102240008091A3039091A403E80FF91F8091990353
:1022500090919A0320813181820F931F8C309105D8
:1022600054F020919B0330919C032F5F3F4F30939C
:102270009C0320939B03B1010E94C2139C01809197
:102280009B0390919C0301968A30910508F0DBC076
:102290004CE0489F2001499F500C1124420E531ED0
:1022A000828193818130910509F4D1C008F4EAC09C
:1022B0008230910509F4D4C0039709F4DAC03BA336
:1022C0002AA3E8A5F9A5E20FF31FCF01B1010E94EF
:1022D000C2139DA38CA366246394712C3C9714F4C1
:1022E000712C612CAAA5BBA52A0F3B1FC901B10106
:1022F0000E94C2139FA38EA388248394912C2C3018
:10230000310514F4912C812C2091A5033091A60362
:102310002115310539F0C9010297F12CE12C029702
:1023200008F0C1C0E0909F03F090A003A0909D032F
:10233000B0909E036801F0E0E0E04CE0EE16FF068E
:1023400009F4B1C0CF0163E070E00E94C213813094
:10235000910509F09EC0660D771D6A0D7B1D880FE3
:10236000991FD801A80FB91F91968D919C916F5F0D
:102370007F4F6A30710508F093C0469FD001479F98
:10238000B00D11248A0F9B1FD6018D936D013196DC
:10239000D5CF8EEF94E00E943B0A1092970382E023
:1023A0008093980380EF94E002CF85EE94E00E9442
:1023B0003B0A1092970382E08093980387ED94E0A4
:1023C000F6CE8CEC94E00E943B0A1092970382E0D8
:1023D000809398038EEB94E0EACE83EB94E00E9426
:1023E0003B0A1092970382E08093980385EA94E079
:1023F000DECE8AE994E00E943B0A1092970382E0C5
:10240000809398038CE894E0D2CE81E894E00E9417
:102410003B0A1092970382E08093980383E794E04D
:10242000C6CE88E694E00E943B0A1092970382E0B1
:10243000809398038AE594E0BACEF7E0CF16D104F2
:1024400009F0C8CED9CE44244A94542C29CFE7E0D1
:10245000F0E0FBA7EAA783E090E099A788A72FCF39
:10246000A6E0B0E0BBA7AAA7E3E0F0E0F9A7E8A7E1
:1024700026CF88E090E09BA78AA7A4E0B0E0B9A7A8
:10248000A8A71DCFE7E0F0E0FBA7EAA784E090E073
:10249000E4CF8230910509F060CF680D791D5DCFE2
:1024A0008FEF9FEF71CFC9010197029708F040C0ED
:1024B00020919F033091A00321503109C0909D03CA
:1024C000D0909E03F801EE0DFF1D4CE07F01E01A55
:1024D000F10A37FD5EC0C90163E070E00E94C213DB
:1024E00081309105F9F4660D771D6C0D7D1D880F07
:1024F000991FD801A80FB91F91960D90BC91A02DDE
:102500006F5F7F4F8FEF9FEF6A30710538F4469F02
:10251000C001479F900D11248A0F9B1F819321506A
:102520003109D4CF8230910501F7680D791DDDCFD7
:102530002330310571F5B2E0EB16F10450F158018A
:10254000D12CC12C4701E1E08E1A9108C814D9049E
:1025500000F50E943B139C01B7016C197D098FEFB8
:102560009FE70E94AE136F5F7F4FC9010E94AE13B9
:10257000FB01EC0DFD1DE00FF11F8081D5019D9148
:102580005D019083FD0131978083BFEFCB1ADB0A99
:10259000DDCF642D80E00E94560A6801C601801BD1
:1025A000910B8E159F0578F4F60161916F0181E022
:1025B0000E94560A6091A8037091A90390E080E000
:1025C0000E949405EBCF60E085E00E94F70480E074
:1025D00090E0892B09F4C4CC0E940000C1CC8F92FA
:1025E0009F92AF92BF92CF92DF92EF92FF92CF93E2
:1025F000DF93EC01688179818A819B816115710586
:102600008105910521F464E279ED8BE597E02DE1F8
:1026100033EF41E050E00E944B1349015A019B0106
:10262000AC01A7EAB1E40E946A136B017C01ACEE35
:10263000B4EFA50194010E947813DC01CB018C0D4D
:102640009D1DAE1DBF1DB7FF03C00197A109B04876
:1026500088839983AA83BB839F77DF91CF91FF9073
:10266000EF90DF90CF90BF90AF909F908F900895A4
:102670000E94EF1208958FE092E00E94EF120895F9
:10268000B0E0A0E080930F0290931002A09311029B
:10269000B09312020895052E97FB1EF400940E9439
:1026A000621357FD07D00E947D1307FC03D04EF440
:1026B0000C94621350954095309521953F4F4F4FA4
:1026C0005F4F089590958095709561957F4F8F4FDE
:1026D0009F4F08950E949F13A59F900DB49F900D4A
:1026E000A49F800D911D11240895B7FF0C946A13C7
:1026F0000E946A13821B930B0895A1E21A2EAA1B53
:10270000BB1BFD010DC0AA1FBB1FEE1FFF1FA217A1
:10271000B307E407F50720F0A21BB30BE40BF50B9E
:10272000661F771F881F991F1A9469F76095709527
:10273000809590959B01AC01BD01CF010895A29FAA
:10274000B001B39FC001A39F700D811D1124911D85
:10275000B29F700D811D1124911D0895AA1BBB1BF2
:1027600051E107C0AA1FBB1FA617B70710F0A61B91
:10277000B70B881F991F5A95A9F780959095BC01B2
:10278000CD01089597FB072E16F4009407D077FD2E
:1027900009D00E94AE1307FC05D03EF490958195B8
:1027A0009F4F0895709561957F4F0895EE0FFF1F1D
:1027B0000590F491E02D0994AEE0B0E0E2EEF3E193
:1027C0000C948B160D891E8986E08C831A830983ED
:1027D0008FEF9FE79E838D83AE01475E5F4F6F89CA
:1027E000788DCE0101960E94FF132F813885020F4C
:1027F000131FF80110822E96E4E00C94A716ABE0AC
:10280000B0E0E5E0F4E10C947D167C013B018A0127
:10281000FC0117821682838181FFC8C1CE01019617
:102820005C01F7019381F30193FD859193FF819101
:102830003F01882309F453C1853239F493FD859112
:1028400093FF81913F01853229F4B70190E00E9406
:10285000EF15E7CF912C212C312CFFE1F31538F047
:102860008B3211F190F4803209F1833229F137FC77
:102870003CC020ED280F2A3050F536FE20C08AE0FB
:10288000989E200D1124922E06C08D3291F0803337
:1028900071F7689430F8F30193FD859193FF81916E
:1028A0003F018111DACF21C0689431F8689432F881
:1028B000F2CF689433F8EFCF689434F8ECCFEAE0C5
:1028C0002E9E200D1124222E689435F8E4CF8E32EE
:1028D00029F436FC04C1689436F8DDCF8C3619F43F
:1028E000689437F8D8CF8836B1F2982F9F7D9554E9
:1028F0009330E0F08336A1F18337C1F1833509F0DD
:1029000063C02801F2E04F0E511CF801C080D18055
:10291000692D70E036FC02C06FEF7FEFC6010E94A8
:10292000D9154C01689437F882010AC00C5F1F4F1B
:10293000FFE3F98388248394912C6501E89437F8A8
:1029400033FE2DC0522C8114910471F5552009F4E9
:1029500068CFB70180E290E00E94EF155A94F6CF5D
:10296000F801808189830E5F1F4FE4CF2801F2E0D8
:102970004F0E511CF801C080D180692D70E036FCEB
:1029800002C06FEF7FEFC6010E94E4154C01820187
:10299000D5CFB70180E290E00E94EF152A94281469
:1029A000190409F0B0F7CECFF60137FC859137FE58
:1029B00081916F01B70190E00E94EF1551105A9478
:1029C000F1E08F1A9108BFCF843619F0893609F0EB
:1029D00077C0F80137FE6BC060817181828193817D
:1029E0000C5F1F4FF32DFF763F2E97FF09C0909588
:1029F0008095709561957F4F8F4F9F4F689437F802
:102A00002AE030E0A5010E941F16C82ECA188C2C9F
:102A1000432C36FE0CC0E89440F8C91440F434FE50
:102A200005C032FC03C0F32DFE7E4F2E892C44FEE0
:102A300095C0FE01EC0DF11D8081803309F087C047
:102A4000242D297E422E842D8870582E43FC95C05B
:102A500040FE8FC09C2C821418F42C0C922C9818D9
:102A600044FE91C0B70180E390E00E94EF1542FE62
:102A700009C088E790E041FE02C088E590E0B70118
:102A80000E94EF15C91408F48AC0CA94D12C9FEF94
:102A9000C91AD90ACA0CDB1CF60182916F01B70171
:102AA00090E00E94EF15AC14BD04B1F74FCF6081E8
:102AB0007181072E000C880B990B0E5F1F4F92CF70
:102AC000D32CE894D4F82AE030E0853739F1232D6F
:102AD000297FD22E8F3601F148F48835A9F0F7010D
:102AE000868197812B96E2E10C949916803749F004
:102AF0008837A9F7D4FE02C06894D2F820E130E00C
:102B00000DC06894D4F8F6CF34FE03C0822F8660DF
:102B1000D82E20E132E002C028E030E0F801D7FEF4
:102B20000FC060817181828193810C5F1F4FA5016D
:102B30000E941F16C82ECA183D2CE89437F867CF9C
:102B40006081718190E080E00E5F1F4FF0CF42FC0A
:102B500002C0839478CF8394839475CF842D867834
:102B600009F471CFF6CFB70180E290E00E94EF1533
:102B700083948214C0F3512C73CF522C58188214B2
:102B800008F46ECFF8CF842D867809F47BCF8BE2E2
:102B900041FE80E247FC8DE2B70190E071CFB701C2
:102BA00080E390E00E94EF159A946CCF8FEF9FEF37
:102BB00099CFFC010590615070400110D8F78095C5
:102BC00090958E0F9F1F0895FC01615070400190F9
:102BD0000110D8F7809590958E0F9F1F08950F9341
:102BE0001F93CF93DF93182F092FEB018B8181FD6A
:102BF00009C01FEF0FEF812F902FDF91CF911F9111
:102C00000F91089582FF14C02E813F818C819D8198
:102C1000281739073CF4E881F981CF01019699839F
:102C2000888310838E819F8101969F838E83E3CF5B
:102C3000E885F985812F0995892BA1F3DACFFA016F
:102C4000AA27283051F1203181F1E8946F936E7FEB
:102C50006E5F7F4F8F4F9F4FAF4FB1E03ED0B4E0DC
:102C60003CD0670F781F891F9A1FA11D680F791F1D
:102C70008A1F911DA11D6A0F711D811D911DA11D2E
:102C800020D009F468943F912AE0269F112430193E
:102C9000305D3193DEF6CF010895462F4770405DD9
:102CA0004193B3E00FD0C9F7F6CF462F4F70405D88
:102CB0004A3318F0495D31FD4052419302D0A9F7E3
:102CC000EACFB4E0A6959795879577956795BA95DD
:102CD000C9F700976105710508959B01AC010A2EA3
:102CE00006945795479537952795BA95C9F7620F7A
:102CF000731F841F951FA01D08952F923F924F921E
:102D00005F926F927F928F929F92AF92BF92CF927B
:102D1000DF92EF92FF920F931F93CF93DF93CDB784
:102D2000DEB7CA1BDB0B0FB6F894DEBF0FBECDBFFC
:102D300009942A88398848885F846E847D848C84CD
:102D40009B84AA84B984C884DF80EE80FD800C81D6
:102D50001B81AA81B981CE0FD11D0FB6F894DEBFB9
:0C2D60000FBECDBFED010895F894FFCF29
:102D6C00000002000100000003000100050001004A
:102D7C0006000000080000000A000100000001002D
:102D8C000200020003000300050001000700000020
:102D9C00080000000B00020000000100020002000D
:102DAC0003000000050001000700010008000000FE
:102DBC000A000000000000000200010004000200F4
:102DCC000500000007000100090001000A000000D6
:102DDC0000000000020000000400010006000200D8
:102DEC0007000000090001000B00010000000100B9
:102DFC0001000000030000000500010007000200B4
:102E0C00080000000A00010000000100020001009F
:102E1C00030000000500000007000100090002008B
:102E2C000A000000FFFFFFFFE803C8002C0190011F
:102E3C00040080008000800080F401F401F401F4AF
:102E4C00010A000A000A000A001400000040007F7A
:102E5C000001000000000002000100040001000558
:102E6C0000000007000000090001000B0002000137
:102E7C000000001815A015C019FF1815A115C819C8
:102E8C00FF1815AE19FF1815AF19FF1815AE15D58B
:102E9C00168015A8161F15D316001540158D16147F
:102EAC001520160015A115C815DA16021581168FF6
:102EBC0015D916F115DB1640152E15A415A619FFFC
:102ECC000001140A6464323200127A00000428965D
:102EDC001004000080002000F301A8018C01700197
:102EEC00540138011C010001060708090A0B0C00EB
:102EFC000000001C0AB80AE10AE00A25346400004C
:00000001FF
