:100000000C946F020C9497020C9497020C94970234
:100010000C9497020C9497020C9497020C949702FC
:100020000C9497020C9497020C9497020C949702EC
:100030000C9497020C9497020C9497020C949702DC
:100040000C94550A0C9497020C94230A0C94FD0905
:100050000C9497020C94B10B0C9497020C94970299
:100060000C949B0A0C9497020000000024002700C7
:100070002A002D00330000000000250028002B007E
:100080002E003400000000002300260029002C0070
:100090003200040404040404040402020202020202
:1000A0000303030303030505020306050502030515
:1000B00005050506060606060606010204081020C8
:1000C00040800102040810200102040810200208E8
:1000D000408001408080400104102002040810206C
:1000E00040800000000850020100000304070000E7
:1000F00000000000000000004D696E6F722A202091
:100100002020202020006C6F637269616E20202007
:10011000002D2D2D202020202020202020200068B0
:1001200061726D6F6E69632020004E61747572613B
:100130006C204D696E6F720061656F6C69616E2035
:100140002020004D616A6F72202020202020202076
:10015000006D69786F6C796469616E004D616A6FDA
:10016000722020202020202020006C796469616E9C
:1001700020202020004D696E6F722020202020203A
:10018000202000706872796769616E2020004D69D7
:100190006E6F72202020202020202000646F726962
:1001A000616E20202020004E61747572616C204DBC
:1001B000616A6F7200696F6E69616E202020200095
:1001C0004D6F64653A2000417270656767696174BC
:1001D0006F72203630303000207F010100000000B7
:1001E000000000000000005F0000000000030000AD
:1001F0000003000000227F22227F220000242A6BBD
:100200002A120000422512082452210000205649DB
:1002100049552250000000000300000000001C228D
:100220004100000000000041221C000000000A0400
:100230001F040A000008083E0808000000000040F3
:10024000300000000008080808080800000000400E
:10025000000000004020100804020100003E41415F
:10026000413E00000040427F404000000062514992
:10027000494600000022414949360000001C121185
:100280007F1000000027454545390000003E4949E0
:100290004932000000010179050300000036494998
:1002A0004936000000264949493E0000000000127E
:1002B00000000000000000201200000000000814F0
:1002C0002241000000141414141414000000004112
:1002D0002214080000020159090600003C4299A5B9
:1002E000A5B9221C60181611161860007F494949EB
:1002F000494936003E414141414122007F4141414F
:1003000041413E007F494949494141007F0909096E
:10031000090101003E41414149493A007F0808086E
:1003200008087F000041417F4141000020404040DB
:1003300040403F007F080808142241007F404040B1
:10034000404040007F02040804027F007F0204084E
:1003500010207F003E41414141413E007F1111117B
:1003600011110E003E4141416141BE007F09090962
:100370000919660026494949494932000101017FAE
:10038000010101003F40404040403F000F1020402D
:1003900020100F001F60201C20601F004122140845
:1003A000142241000304087008040300416151490C
:1003B0004543410000007F41410000000102040864
:1003C0001020400000000041417F000000040201B5
:1003D0000204000080808080808080800000000116
:1003E000020000000020545454547800007F44441C
:1003F000444438000038444444442800003844440D
:1004000044447F0000385454545448000000047E93
:10041000050100000018A4A4A4A47C00007F04042B
:10042000040478000000447D40000000004080800B
:10043000847D0000007F1010102844000000017F20
:10044000000000007C04047C04047800007C0404A8
:1004500004047800003844444444380000FC444418
:1004600044443800003844444444FC00007C080400
:100470000404040000485454545424000000043F71
:1004800044400000003C404040407C00001C2040B4
:1004900040201C00003C40403840403C00442810B4
:1004A00028440000001CA0A0A0A07C0000446454CC
:1004B0004C4400000000083641000000000000FF2E
:1004C0000000000000000041360800000804040895
:1004D0001010080000000000000000006E0C112445
:1004E0001FBECFEFD8E0DEBFCDBF12E0A0E0B1E08D
:1004F000EEE2FDE202C005900D92A438B107D9F7F3
:1005000024E0A4E8B2E001C01D92AF3EB207E1F7DB
:1005100012E0CFE6D2E004C02197FE010E94B7139B
:10052000CE36D107C9F70E94D90D0C9495160C94BC
:10053000000080E008951F93CF93DF9300D000D098
:100540001F92CDB7DEB71C8221E02B839A8389836B
:10055000E0919904F0919A0411891D82A091990467
:10056000B0919A04E0919D04F0919E049E012F5F4A
:100570003F4F50964C916FE089E994E009958D8149
:100580008F5F8D83811750F30F900F900F900F9016
:100590000F90DF91CF911F9108959B01DC01189678
:1005A000ED91FC9141E067E10994662329F06A30FE
:1005B00019F0862F90E008958FEF9FEF0895AF9286
:1005C000BF92CF92DF92EF92FF920F931F93CF9340
:1005D000DF936C017B018B01040F151FEB015E01A2
:1005E000AE18BF08C017D10759F06991D601ED9137
:1005F000FC910190F081E02DC6010995892B79F7D6
:10060000C501DF91CF911F910F91FF90EF90DF9087
:10061000CF90BF90AF900895FC01538D448D252F4E
:1006200030E0842F90E0821B930B541710F0CF968C
:10063000089501970895FC01918D828D981761F0BE
:10064000A28DAE0FBF2FB11D5D968C91928D9F5FD5
:100650009F73928F90E008958FEF9FEF0895FC01B4
:10066000918D828D981731F0828DE80FF11D858D67
:1006700090E008958FEF9FEF0895FC01918D228DFA
:10068000892F90E0805C9F4F821B91098F7399277F
:10069000089586EF93E00E943D0321E0892B09F441
:1006A00020E0822F089580E090E0892B29F00E94BD
:1006B000490381110C9400000895FC01A48DA80F3A
:1006C000B92FB11DA35ABF4F2C91848D90E0019694
:1006D0008F739927848FA689B7892C93A089B189B4
:1006E0008C9180648C93938D848D981306C00288BE
:1006F000F389E02D80818F7D80830895EF92FF92B2
:100700000F931F93CF93DF93EC0181E0888F9B8D34
:100710008C8D981316C0E889F989808185FF11C0F6
:10072000EE89FF896083E889F9898081806480830C
:1007300081E090E0DF91CF911F910F91FF90EF90BA
:100740000895F62E0B8D10E00F5F1F4F0F731127CA
:10075000E02E8C8D8E110CC00FB607FCFACFE88905
:10076000F989808185FFF5CFCE010E945D03F1CF2D
:10077000EB8DEC0FFD2FF11DE35AFF4FF0820B8F35
:10078000EA89FB8980818062D2CFCF93DF93EC012D
:10079000888D8823B9F0AA89BB89E889F9898C9169
:1007A00085FD03C0808186FD0DC00FB607FCF7CF25
:1007B0008C9185FFF2CF808185FFEDCFCE010E9425
:1007C0005D03E9CFDF91CF91089581508B3088F59B
:1007D000E82FF0E0E251FC4F0C94B7130304070438
:1007E000F903FF03190419040A04100414041A0479
:1007F0001E04809180008F778093800008958091FF
:1008000080008F7DF9CF84B58F7784BD089584B53E
:100810008F7DFBCF8091B0008F778093B0000895DB
:100820008091B0008F7DF9CF809190008F77809379
:1008300090000895809190008F7DF9CF8091900075
:10084000877FF5CFCF93DF93282F30E0F901EE516A
:10085000FF4F8491F901E654FF4FD491F901EE5610
:10086000FF4FC491CC23A1F081110E94E503EC2F2E
:10087000F0E0EE0FFF1FEC57FF4FA591B491EC9104
:10088000ED2381E090E009F480E0DF91CF910895BD
:1008900080E090E0FACF1F93CF93DF93282F30E0D2
:1008A000F901EE51FF4F8491F901E654FF4FD491C5
:1008B000F901EE56FF4FC491CC23A9F0162F8111F8
:1008C0000E94E503EC2FF0E0EE0FFF1FEA58FF4F08
:1008D000A591B4918FB7F894EC91111108C0D095FF
:1008E000DE23DC938FBFDF91CF911F910895DE2B24
:1008F000F8CFCF93DF93282F30E0F901E654FF4F74
:1009000044912E563F4FF9012491843019F583E02C
:100910008093A0002223D9F0822F90E0880F991FA6
:10092000FC01E859FF4FA591B491FC01EA58FF4F33
:10093000C591D491623019F59FB7F8942C91842F0A
:10094000809582238C93E8814E2B48839FBFDF9153
:10095000CF91089593EE980F923020F48FEF84BFDB
:1009600084BFD8CF8931B1F68091F00082608EBB10
:1009700080E88093F0008EB38093F000CBCF8FB7E8
:10098000F894EC914E2B4C938FBFE1CF3FB7F89486
:100990008091150390911603A0911703B09118034D
:1009A00026B5A89B05C02F3F19F00196A11DB11DCA
:1009B0003FBFBA2FA92F982F8827BC01CD01620F06
:1009C000711D811D911D660F771F881F991F089546
:1009D0008F929F92AF92BF92CF92DF92EF92FF924F
:1009E0006B017C010E94C6044B015C01C114D1045F
:1009F000E104F104B9F00E94C604681979098A0972
:100A00009B09683E73408105910580F321E0C21A7D
:100A1000D108E108F10888EE880E83E0981EA11C39
:100A2000B11CE4CFFF90EF90DF90CF90BF90AF90DC
:100A30009F908F90089585ED8093BC008091BC00BD
:100A400084FDFCCF1092EE020895613298F420915B
:100A5000EE02243089F46093CA02282FAAEAB2E099
:100A6000FC018E2F821B861710F080E00895819183
:100A70008D93F7CF81E0089582E0089508958FEF78
:100A80009FEF08958FEF9FEF08958091A90290E066
:100A90009195819591090895CF93DF93CB01EA0158
:100AA000642F0E942505CE01DF91CF910895CF9349
:100AB000DF931F92CDB7DEB7698361E0CE01019667
:100AC0000E94250581E090E00F90DF91CF9108957D
:100AD000DC011A96ED91FC9130E020E00994DC01F4
:100AE0001696ED91FC9130E020E040E069E1099438
:100AF000DC011696ED91FC9130E020E040E068E1E9
:100B000009949A01DC011696ED91FC91462F67E15C
:100B10000994EF92FF920F931F93CF93DF931F924D
:100B2000CDB7DEB77C018B01D8016C91673129F11B
:100B300050F46531A0F40F90DF91CF911F910F9188
:100B4000FF90EF9008956A3118F16E3FA1F7F80118
:100B50004181498369E2C7010E9468050BC0F80121
:100B600041814983D7011696ED91FC9130E020E058
:100B7000C70109950E5F1F4FD7CFF8018181898387
:100B8000AE014F5F5F4F61E0C7010E948105F2CF68
:100B90000F5F1F4FD7011696ED91FC9130E020E0DA
:100BA00040E0C7010995C0CF462FDC011696ED91B4
:100BB000FC9130E020E066E10994462FDC011696B6
:100BC000ED91FC9130E020E065E10994EF92FF9215
:100BD0000F931F93CF93DF93EC01042F79016930BA
:100BE00069F483E392E0998388831C8A81E0DF9132
:100BF000CF911F910F91FF90EF9008956D3009F400
:100C000075C038F46A3091F16B3009F468C080E047
:100C1000EECF6E3009F47DC06F30C9F70E947805C1
:100C2000F7011381110F110F110F6C89160F612F2E
:100C300062956F706061CE010E94DD05612F6F705B
:100C4000CE010E94DD05F7016481606BCE010E9438
:100C5000DD05F701408151816281660F660F660FE5
:100C6000CE010E9481050150A1F75DC0EA85FB8598
:100C700030E020E040E068E20995EE81FF8130E05D
:100C800020E040E064E1CE01099541E06BE4CE0153
:100C90000E946805E881F981448169E2CE010E94E1
:100CA000680540E06BE4CE010E946805E881F981A7
:100CB000448169E2CE010E94680541E06BE4CE0107
:100CC0000E946805E881F981458169E2CE010E94B0
:100CD00068056EEF71E0CE010E94890587CF69EF4C
:100CE00071E04423C1F364EF71E0F5CF411109C015
:100CF0006DEE71E00E948905E881F98182898C8B13
:100D000075CF66EE71E00E948905E881F9818389DB
:100D1000F6CF0E94780561E8CE010E94DD05602FC4
:100D2000CE010E94D405CE010E946F055FCF41E045
:100D30006DE40C946805DC01ED91FC9145856DE254
:100D40000C946805CF93DF93EC0141E06CE40E94C2
:100D50006805CE01DF91CF910C949B06CF93DF9372
:100D6000EC01662379F00E949706CE010E949B0653
:100D7000CE010E94A20640E06CE4CE01DF91CF914B
:100D80000C94680540E06DE40E946805EECF1F9367
:100D9000CF93DF93EC01162F60780E94AE06612F8F
:100DA0006074CE010E94AE06612F6072CE010E9477
:100DB000AE06612F6071CE010E94AE06612F687091
:100DC000CE010E94AE06612F6470CE010E94AE0675
:100DD000612F6270CE010E94AE06612F6170CE015C
:100DE0000E94AE06CE010E949706CE010E949B068D
:100DF000CE010E94A206CE010E949706CE010E945B
:100E00009B0640E06CE4CE01DF91CF911F910C94E2
:100E10006805DC011896ED91FC9130E020E040E09F
:100E200069E10994DC011896ED91FC9130E020E035
:100E300040E068E10994CF93DF931F92CDB7DEB70E
:100E40006983BE016F5F7F4F0E94CD020F90DF91DB
:100E5000CF910895EF92FF921F93CF93DF93EC0110
:100E6000162F7A010E94120760E4CE010E941B0730
:100E7000E885F9859701412F67E1CE010995CE01FB
:100E8000DF91CF911F91FF90EF900C940907EF92A3
:100E9000FF921F93CF93DF93EC01142F79016631FA
:100EA00081F138F4643109F44BC0653179F080E0A8
:100EB00022C06831C9F150F16931C9F78091A802A7
:100EC000882391F1CE010E9409072EC08091A802CB
:100ED000882319F0CE010E940907CE010E94120753
:100EE00060E0CE010E941B07612FCE010E941B070C
:100EF00081E08093A802DF91CF911F91FF90EF9046
:100F00000895642F0E941B0781E0F5CF8091A8020D
:100F1000882319F0CE010E940907A701193138F47E
:100F2000612FCE010E942A071092A802EDCF68E13E
:100F3000CE010E942A07185188E1E80EF11CEDCF7E
:100F40008E898F3F11F488E78E8BE885F9859701AC
:100F5000412F64E1CE01DF91CF911F91FF90EF907F
:100F60000994CF93DF93EC01A889B989FD013491ED
:100F700031969491319684911396FD01A491631753
:100F8000A8F1961798F1631B770B8A9FE02D112427
:100F9000E69FC001E79F900D1124280F392F311DC6
:100FA00083E0220F331F8A95E1F7C9010496DA0125
:100FB000245F3F4FE889F989E80FF91FE491ED9329
:100FC000019682179307B1F78D89882361F0FA01A2
:100FD0009A01285F3F4F8191DF01119780958C9393
:100FE0002E173F07C1F7DF91CF910895FA01CA018B
:100FF00008961192E817F907E1F7E6CF4F925F9252
:101000006F927F928F929F92AF92BF92CF92DF9218
:10101000EF92FF920F931F93CF93DF93CDB7DEB77D
:101020002D970FB6F894DEBF0FBECDBF7C01C62E44
:10103000D42EB22EDC0150968D919C91FC013296FB
:10104000149131960491512E560E040F81E0860FB3
:10105000581608F411E0712CFE0131964F0144241A
:101060004394672CAC2C262DA4016B2DC7010E9444
:10107000B107AC86DD864B869A868986D7011496A1
:10108000ED91FC919E01275F3F4F41E06FE0C7016A
:1010900009956394A394A51430F3D394710ED016DC
:1010A00000F32D960FB6F894DEBF0FBECDBFDF91D3
:1010B000CF911F910F91FF90EF90DF90CF90BF9055
:1010C000AF909F908F907F906F905F904F9008951A
:1010D000FF920F931F93CF93DF93E091A904F091B8
:1010E000AA043296C4911092B1048C01D0E085E03C
:1010F000F82EF80161918F01E0919B04F0919C041E
:1011000089E994E009958F3F980771F08E3F2FEFA2
:10111000920779F3282F43E06F2D89E994E00E942C
:10112000FE07FC0EDF5FE5CF8D2FDF91CF911F9182
:101130000F91FF900895EF92FF921F93CF93DF934B
:10114000EC01142F7901683151F130F46431D1F0A0
:101150006731A9F080E006C0693109F443C060320C
:10116000C9F781E0DF91CF911F91FF90EF90089533
:10117000F70161917F01CE010E94C7061150111144
:10118000F7CFEFCF41E06CE40E94680541E06DE4E9
:10119000CE010E946805CE010E949B06E2CF8F8996
:1011A000882349F0CE010E949706CE010E949B063B
:1011B000CE010E94A206CE010E94970640E06DE497
:1011C000CE010E946805CE010E949B0640E06CE4BF
:1011D000CE010E94680581E08F8B6E89CE010E944E
:1011E000C706BFCF40E06DE40E946805CE010E94B3
:1011F0009B06CE010E94A206CE010E949706CE0158
:101200000E949B061F8AADCF0F931F93CF93DF934E
:101210008C01C62F642FCC32E8F4CA3208F041C0EA
:10122000C83271F1C93209F442C080E0C034D0F153
:10123000CF73F801EC0FF11D868D8F3F91F1C03116
:10124000E0F00E94220421E0892B09F420E0F8015B
:10125000218F27C0CD3289F140F384EB8C0F82308F
:1012600020F7CF73C00FD12FD11D8E8D411135C006
:1012700061E00E94790460E08E8D0E944B0411C0F1
:10128000025E1F4FD0E0F80181918F018F3F31F056
:1012900061E0D03108F062E00E947904DF5FD6316E
:1012A00091F781E0DF91CF911F910F91089570E048
:1012B00090E080E00E94E804F4CF25E030E0433085
:1012C00010F022E030E046E0429FC001439F900DC5
:1012D000112405970197F1F7E4CF62E00E947904A9
:1012E000E0CF1F93CF93DF93EC01EC89FD8949ADEB
:1012F0006A3059F43396E491E40FE9AF18AE81E017
:1013000090E0DF91CF911F910895262F329614918E
:1013100068AD04960E94FE07E8ADE10FE8AFEFCF9D
:101320000F931F93CF93DF938C01D0E0C0E0F801BF
:10133000EC0FFD1F6491662341F085E994E00E9463
:101340007109892B11F02196F2CFCE01DF91CF9157
:101350001F910F910895DC018D919C91DC01ED911D
:10136000FC910190F081E02D0994F894EAE7F0E017
:1013700086E0808380E680937C008FE180937E000E
:10138000ABE7B0E08C918C938081886A8083808108
:1013900080648083EDE7F0E08081846080837894CE
:1013A0000895CF92DF92EF92FF920F931F93CF9306
:1013B000DF936C01EB017B01E40EF51E10E000E011
:1013C000CE15DF0561F06991D601ED91FC91019098
:1013D000F081E02DC6010995080F191FF1CFC80152
:1013E000DF91CF911F910F91FF90EF90DF90CF9001
:1013F0000895089590E080E008951F920F920FB62F
:101400000F9211242F933F934F935F936F937F938A
:101410008F939F93AF93BF93EF93FF9386EF93E0E8
:101420000E945D03FF91EF91BF91AF919F918F91CA
:101430007F916F915F914F913F912F910F900FBED0
:101440000F901F9018951F920F920FB60F921124B4
:101450002F938F939F93EF93FF93E0910604F09166
:1014600007048081E0910C04F0910D0482FD1BC003
:10147000908180910F048F5F8F73209110048217E9
:1014800041F0E0910F04F0E0EA50FC4F958F80931B
:101490000F04FF91EF919F918F912F910F900FBEAD
:1014A0000F901F9018958081F4CF1F920F920FB666
:1014B0000F9211242F933F938F939F93AF93BF93DA
:1014C0008091190390911A03A0911B03B0911C0302
:1014D0003091140320E4230F2D3728F023EC230F41
:1014E0000196A11DB11D20931403809319039093BD
:1014F0001A03A0931B03B0931C03809115039091D2
:101500001603A0911703B09118030196A11DB11DF8
:101510008093150390931603A0931703B0931803B9
:10152000BF91AF919F918F913F912F910F900FBEDF
:101530000F901F9018951F920F920FB60F921124C3
:101540002F933F934F935F936F937F938F939F93CB
:10155000AF93BF93EF93FF938091B900887F80365C
:1015600009F44AC0F0F5883209F4A5C018F58031B5
:1015700009F499C0B8F4882309F4F0C0883009F45C
:1015800092C0FF91EF91BF91AF919F918F917F9109
:101590006F915F914F913F912F910F900FBE0F90E0
:1015A0001F901895883109F486C0803251F78093D6
:1015B000ED0214C0803409F49BC040F48033B9F3C9
:1015C0008833F9F68093ED0285ECAEC0803509F4DE
:1015D00083C0883509F494C0883499F60E941B05AD
:1015E000D0CF883909F48AC038F5883729F050F40B
:1015F000883611F0803729F683E08093EE0210924E
:10160000EC0255C0883809F479C0803919F0803867
:1016100009F0B7CF8091EC02803208F06FC0E09102
:10162000EC0281E08E0F8093EC028091BB00F0E031
:10163000E453FD4F80833BC0803B39F0D0F4803AC7
:1016400009F477C0883A09F09CCF84E08093EE02D9
:101650001092CB021092CA02F0E0E0E0099580916E
:10166000CA0281110FC081E08093CA021092AA02BF
:1016700009C0803C09F4A8CF883C09F4A5CF883B79
:1016800009F07FCFE091CB0281E08E0F8093CB02F7
:10169000F0E0E655FD4F80818093BB009091CB0236
:1016A0008091CA0229C0809113038093BB0085EC0E
:1016B0008093BC0066CF909112038091110398171C
:1016C00058F5E091120381E08E0F80931203F0E051
:1016D000EF50FD4F8081E9CFE091120381E08E0F42
:1016E000809312038091BB00F0E0EF50FD4F8083A8
:1016F00090911203809111039817C8F285E8D8CF12
:10170000E091120381E08E0F809312038091BB0061
:10171000F0E0EF50FD4F80838091F00281115ECFA9
:1017200081E08093EF0284EA8093BC001092EE0285
:1017300028CF8091EC02803230F4E091EC02F0E0AE
:10174000E453FD4F10826091EC0270E08CEC92E06B
:10175000F0E0E0E009951092EC0236CF1092ED0235
:101760003DCF1F920F920FB60F9211240F931F932C
:101770002F933F934F935F936F937F938F939F9399
:10178000AF93BF93CF93DF93EF93FF93E0917C00F0
:1017900080917C008F5F80937C00EF70E730C8F40D
:1017A000F0E0EB52F44F0C94B713DC0BFE0B0C0C77
:1017B0001A0C280C360C440C80917800909179001A
:1017C000E6E096958795EA95E1F79093D4048093A7
:1017D000D304FF91EF91DF91CF91BF91AF919F9192
:1017E0008F917F916F915F914F913F912F911F91B9
:1017F0000F910F900FBE0F901F9018958091780059
:101800009091790076E0969587957A95E1F7909397
:10181000D0048093CF04DDCF80917800909179003F
:1018200066E0969587956A95E1F79093D804809342
:10183000D704CFCF809178009091790056E09695AB
:1018400087955A95E1F79093D6048093D504C1CF3C
:10185000809178009091790046E0969587954A9519
:10186000E1F79093D2048093D104B3CF80917800B4
:101870009091790036E0969587953A95E1F79093A7
:10188000DC048093DB04A5CF0BE412E0D0E0C0E0E1
:10189000F80181918F010E9422042196892BD1F4B5
:1018A00081E080932503D0930101C09300018091D2
:1018B00078009091790026E0969587952A95E1F732
:1018C0009093DA048093D90480917A008F77809383
:1018D0007A007FCFC730D105D9F6E9CFCF931092E8
:1018E000F9031092F80388EE93E0A0E0B0E0809353
:1018F000FA039093FB03A093FC03B093FD0386E5EA
:1019000092E09093F7038093F60385EC90E0909338
:1019100003048093020484EC90E090930504809388
:10192000040480EC90E0909307048093060481EC1B
:1019300090E0909309048093080482EC90E09093E7
:101940000B0480930A0486EC90E090930D0480933E
:101950000C0410920F0410921004109211041092B3
:10196000120486EF93E09093940480939304109272
:101970002703109226031092290310922803109235
:101980002B0310922A0310922D0310922C03109215
:101990002F0310922E0310923103109230031092F5
:1019A00033031092320310923503109234031092D5
:1019B00037031092360310923903109238031092B5
:1019C0003B0310923A0310923D0310923C03109295
:1019D0003F0310923E031092410310924003109275
:1019E0004303109242031092450310924403109255
:1019F0004703109246031092490310924803109235
:101A00004B0310924A0310924D0310924C03109214
:101A10004F0310924E0383E994E090935103809317
:101A200050031092520310925303109254031092D9
:101A300059031092580310925B0310925A038FEFD0
:101A40009FEF90935D0380935C0390935F0380937B
:101A50005E0383E08093600310926103109262033F
:101A600010926303109264031092E503E5E6F3E03D
:101A700080E8DF011D928A95E9F71092E803109241
:101A8000E9031092EA031092EB031092EC03109218
:101A9000ED031092EE031092EF031092F0031092F8
:101AA000F1031092F2031092F3031092F4031092D8
:101AB000F50388EC90E09093E0048093DF041092AB
:101AC000E2041092E10485E090E09093E4048093B6
:101AD000E30482E090E09093E6048093E50486E0DE
:101AE00090E09093E8048093E7041092EC04109245
:101AF000EB041092EA041092E9048AEC91E09093CE
:101B0000EE048093ED0410929804109297041092C2
:101B1000CD041092CE0488E692E0909396048093D0
:101B2000950410929A04109299041092AE041092A7
:101B3000B1041092A5041092A6041092A70410926A
:101B4000A8048FEF8093AF048093B304E7EBF4E035
:101B50008DEC94E0CFEFC1938E179F07E1F786EEEF
:101B600095E090939E0480939D0487E497E0909382
:101B7000A00480939F048BE998E09093A204809343
:101B8000A10484E099E09093A4048093A30430E03E
:101B900020E040E069E089E994E00E94E60583E006
:101BA0008093C30484E08093C404C093C204CF91A3
:101BB0000895CF93DF93CDB7DEB7AF970FB6F89404
:101BC000DEBF0FBECDBF8091F20080618EBB80E88A
:101BD0008093F2009EB39093F2008093610091E0B5
:101BE000909361008093610010926100789484B5B5
:101BF000826084BD84B5816084BD85B5826085BD09
:101C000085B5816085BD80916E00816080936E0096
:101C10001092810080918100826080938100809188
:101C20008100816080938100809180008160809339
:101C300080008091B10084608093B1008091B000F9
:101C400081608093B00080919100826080939100C8
:101C500080919100816080939100809190008160DB
:101C60008093900080917A00846080937A008091C4
:101C70007A00826080937A0080917A0081608093FC
:101C80007A0080917A00806880937A001092C10077
:101C900061E085E00E9479040BE412E042E5E42E65
:101CA00042E0F42E62E0D8018D918D010E9479040A
:101CB000E016F106B9F761E084E00E94790461E082
:101CC00083E00E94790460E084E00E944B0460E0BD
:101CD00083E00E944B040E94B509E0915003F0910B
:101CE00051030190F081E02DA089B18982E08C93AD
:101CF000A485B5851C92A685B7858FE78C93108E39
:101D0000A489B58986E08C93A289B3898C9180617E
:101D10008C93A289B3898C9188608C93A289B389B2
:101D20008C9180688C930288F389E02D80818F7D6F
:101D3000808384E0809352031092540310925303E3
:101D400010925B0310925A03109259031092580399
:101D50008FEF9FEF90935D0380935C0390935F03FD
:101D600080935E032FB7F8948091190390911A0322
:101D7000A0911B03B0911C032FBF8093E8039093A5
:101D8000E903A093EA03B093EB031092E5031092EA
:101D90006203109261031092630310926403109225
:101DA000E7031092E6038091600381708260816096
:101DB00080936003E0919D04F0919E0430E020E068
:101DC00040E06AE089E994E009958E010F5F1F4FBA
:101DD00088E0F80111928A95E9F7C8010E949B02F8
:101DE000E0919D04F0919E0430E020E040E06BE043
:101DF00089E994E00995E0919D04F0919E0430E01A
:101E000020E040E06BE089E994E009953CEFC32EC7
:101E100033E0D32EE12CF12C2CE0222E312C8091BA
:101E20002503882309F4EEC18091000190910101FE
:101E300001978830910520F49093E2048093E104A7
:101E40001092250361E085E00E944B048EE1D801E9
:101E50001D928A95E9F7E091E104F091E204EE0F1A
:101E6000FF1FEE0FFF1F8091ED049091EE04E80F2D
:101E7000F91F8091EB049091EC0420813181820F55
:101E8000931F8C30910554F02091E3043091E404C9
:101E90002F5F3F4F3093E4042093E304B1010E948D
:101EA000A3139C018091E3049091E40401968A308D
:101EB000910508F088C0BCE0B89FA001B99F500D03
:101EC0001124CA01820F931F9DA78CA78281938141
:101ED0008130910509F47CC008F493C082309105EB
:101EE00009F47FC0039709F485C03BA32AA3E8A5A2
:101EF000F9A5E20FF31FCF01B1010E94A3139DA327
:101F00008CA388248394912C3C9714F4912C812CDD
:101F1000EAA5FBA52E0F3F1FC901B1010E94A31323
:101F20009FA38EA344244394512C2C30310514F4E8
:101F3000512C412C2091E9043091EA0421153105FE
:101F400039F0C9010297712C612C029708F06AC020
:101F50006090E7047090E8044091E5045091E60435
:101F60005FA74EA75801F0E0E0E06E167F0609F487
:101F700059C0CF0163E070E00E94A3138130910546
:101F800009F046C0680D791D4EA55FA5640F751F49
:101F9000880F991FD801A80FB91F91968D919C9118
:101FA0006F5F7F4F6A307105D0F5ACE0A69FA0014E
:101FB000A79F500D1124840F951FD5018D939D93DC
:101FC0005D013196D2CFAFEFBFEFBDA7ACA77ECFFB
:101FD000E7E0F0E0FBA7EAA743E050E059A748A7F5
:101FE00084CF86E090E09BA78AA7A3E0B0E0B9A7E2
:101FF000A8A77BCFE8E0F0E0FBA7EAA744E050E029
:10200000EDCF87E090E09BA78AA7A4E0B0E0EFCFF8
:102010008230910509F0B8CF640D751DB5CF8FEFF3
:102020009FEFCBCFC9010197029708F043C02091E1
:10203000E7043091E80421503109A090E504B09004
:10204000E604F301EE0FFF1FE00FF11F37FD69C03B
:10205000C90163E070E00E94A3138130910509F586
:10206000680D791D6A0D7B1D880F991FD801A80F77
:10207000B91F91968D919C916F5F7F4F6A3071056A
:10208000B0F4BCE0B69FA001B79F500D1124840F9F
:10209000951F819391934FEF641A740A215031096F
:1020A000D5CF82309105F1F6640D751DDBCF8FEF32
:1020B0009FEFEFCF23303105A1F552E06516710493
:1020C00080F14801B12CA12C230161E0461A51088E
:1020D000A414B50430F50E941C139C01B3016A19C5
:1020E0007B098FEF9FE70E948F136F5F7F4FC901BE
:1020F0000E948F13FB01EA0DFB1DEE0FFF1FE00F87
:10210000F11F80819181D4012D913D914D01318349
:102110002083FD01329791838083BFEFAB1ABB0A06
:10212000D7CF5CA4E89457F860E980915003909170
:1021300051030E94AB09652D80915003909151038A
:102140000E94AB096FE780915003909151030E9468
:10215000AB094801B12CA12C8091500390915103FF
:10216000A614B704D1F1F4012081F2E08F0E911C86
:10217000422EE89447F860E90E94AB09642D8091F3
:102180005003909151030E94AB096FE78091500377
:10219000909151030E94AB096091DF047091E004BB
:1021A00090E080E00E94E80460E880915003909104
:1021B00051030E94AB09642D80915003909151030B
:1021C0000E94AB0960E080915003909151030E94FE
:1021D000AB093FEFA31AB30ABFCF60E80E94AB0977
:1021E000652D80915003909151030E94AB0960E0EE
:1021F00080915003909151030E94AB0960E085E00B
:102200000E944B048091210390912203A09123030B
:10221000B091240380931D0390931E03A0931F038A
:10222000B09320032FB7F8948091190390911A036B
:10223000A0911B03B0911C032FBF809321039093A7
:102240002203A0932303B093240340911D035091D4
:102250001E0360911F0370912003841B950BA60B36
:10226000B70B4597A105B10508F439C1A091CF047A
:10227000B091D00425EF3FEF4FEF5FEF0E944B137B
:10228000A70196010E942C13255F3F4F4F4F5F4FD0
:102290003093EC042093EB04A091D104B091D204CC
:1022A00029EF3FEF4FEF5FEF0E944B13A70196011D
:1022B0000E942C13295F3F4F4F4F5F4F3093E40430
:1022C0002093E304A091D304B091D40429EF3FEF0D
:1022D0004FEF5FEF0E944B13A70196010E942C1352
:1022E000295F3F4F4F4F5F4F3093E6042093E50443
:1022F000A091D504B091D60429EF3FEF4FEF5FEFE7
:102300000E944B13A70196010E942C13285F3F4F98
:102310004F4F5F4F3093E8042093E7042091D70498
:102320003091D804A4EFB1E00E948013A701960178
:102330000E942C133093E0042093DF04A091DB046F
:10234000B091DC0429EF3FEF4FEF5FEF0E944B139A
:10235000A70196010E942C13295F3F4F4F4F5F4FFB
:102360003093DE042093DD04220F331F20593D4FAC
:10237000D9018D919C919093EE048093ED0460912E
:10238000D9047091DA0490E080E022E0660F771FB4
:10239000881F991F2A95D1F7A70196010E942C1337
:1023A0003093EA042093E90488ED91E09093AA0425
:1023B0008093A904BB24B394B092AE041092CD04D0
:1023C0001092CE0487EC91E00E9490091092AE0426
:1023D0001092CD04B092CE0480EC91E00E9490095E
:1023E00083E08093CD048093CE042091DD0430916E
:1023F000DE0450E040E019A25E01B1E2AB0EB11C78
:10240000CA01B9012AE030E040E050E00E945E13CA
:10241000605DF50162935F012115310541055105AC
:1024200079F7309761F001900020E9F73197AF011B
:102430004A195B09B50185E994E00E94D1098091B0
:10244000DB049091DC049F938F9380E892E09F934C
:102450008F931F930F930E94BD1385ED92E090938D
:102460009C0480939B04C8010E94680886E08093C6
:10247000CD0481E08093CE040F900F900F900F90C9
:102480000F900F90E091DD04F091DE04E830F1054B
:10249000C8F4E35BFD4E0C94B71355127C128812FE
:1024A0009412A012AC12B812C41285EB91E00E94F3
:1024B00090091092CD0482E08093CE0487EA91E0E7
:1024C0000E949009E0919D04F0919E0430E020E08C
:1024D00040E060E189E994E009950E94B50980E057
:1024E00090E0892B09F49BCC0E944903882309F4CE
:1024F00096CC0E94000090CC8CE991E00E9490095B
:102500001092CD0482E08093CE048EE891E0D8CF83
:1025100083E891E00E9490091092CD0482E08093BC
:10252000CE0485E791E0CCCF8AE691E00E94900945
:102530001092CD0482E08093CE048CE591E0C0CF70
:1025400081E591E00E9490091092CD0482E0809391
:10255000CE0483E491E0B4CF88E391E00E94900937
:102560001092CD0482E08093CE048AE291E0A8CF5D
:102570008FE191E00E9490091092CD0482E0809357
:10258000CE0481E191E09CCF86E091E00E94900929
:102590001092CD0482E08093CE0488EF90E090CF3B
:1025A0008F929F92AF92BF92CF92DF92EF92FF9263
:1025B000CF93DF93EC01688179818A819B816115DA
:1025C00071058105910521F464E279ED8BE597E0D1
:1025D0002DE133EF41E050E00E942C1349015A01F4
:1025E0009B01AC01A7EAB1E40E944B136B017C0193
:1025F000ACEEB4EFA50194010E945913DC01CB01AC
:102600008C0D9D1DAE1DBF1DB7FF03C00197A10915
:10261000B04888839983AA83BB839F77DF91CF914A
:10262000FF90EF90DF90CF90BF90AF909F908F90F2
:1026300008950E94D012089582E091E00E94D01285
:102640000895B0E0A0E08093020190930301A0936D
:102650000401B09305010895052E97FB1EF4009424
:102660000E94431357FD07D00E945E1307FC03D05E
:102670004EF40C94431350954095309521953F4F5F
:102680004F4F5F4F089590958095709561957F4F5E
:102690008F4F9F4F08950E948013A59F900DB49F68
:1026A000900DA49F800D911D11240895B7FF0C94E7
:1026B0004B130E944B13821B930B0895A1E21A2E19
:1026C000AA1BBB1BFD010DC0AA1FBB1FEE1FFF1FD6
:1026D000A217B307E407F50720F0A21BB30BE40B26
:1026E000F50B661F771F881F991F1A9469F760956D
:1026F0007095809590959B01AC01BD01CF01089527
:10270000A29FB001B39FC001A39F700D811D112432
:10271000911DB29F700D811D1124911D0895AA1B5A
:10272000BB1B51E107C0AA1FBB1FA617B70710F0BC
:10273000A61BB70B881F991F5A95A9F780959095EE
:10274000BC01CD01089597FB072E16F4009407D025
:1027500077FD09D00E948F1307FC05D03EF49095B9
:1027600081959F4F0895709561957F4F0895EE0F65
:10277000FF1F0590F491E02D0994AEE0B0E0E3EC8A
:10278000F3E10C946C160D891E8986E08C831A8304
:1027900009838FEF9FE79E838D83AE01475E5F4F76
:1027A0006F89788DCE0101960E94E0132F813885C4
:1027B000020F131FF80110822E96E4E00C94881685
:1027C000ABE0B0E0E6EEF3E10C945E167C013B0179
:1027D0008A01FC0117821682838181FFC8C1CE0164
:1027E00001965C01F7019381F30193FD859193FFBD
:1027F00081913F01882309F453C1853239F493FD57
:10280000859193FF81913F01853229F4B70190E0D2
:102810000E94D015E7CF912C212C312CFFE1F3152C
:1028200038F08B3211F190F4803209F1833229F1C2
:1028300037FC3CC020ED280F2A3050F536FE20C072
:102840008AE0989E200D1124922E06C08D3291F0C0
:10285000803371F7689430F8F30193FD859193FF0D
:1028600081913F018111DACF21C0689431F86894D9
:1028700032F8F2CF689433F8EFCF689434F8ECCFA5
:10288000EAE02E9E200D1124222E689435F8E4CF24
:102890008E3229F436FC04C1689436F8DDCF8C36CC
:1028A00019F4689437F8D8CF8836B1F2982F9F7D05
:1028B00095549330E0F08336A1F18337C1F183352D
:1028C00009F063C02801F2E04F0E511CF801C080EE
:1028D000D180692D70E036FC02C06FEF7FEFC6013A
:1028E0000E94BA154C01689437F882010AC00C5F47
:1028F0001F4FFFE3F98388248394912C6501E894AA
:1029000037F833FE2DC0522C8114910471F55520F7
:1029100009F468CFB70180E290E00E94D0155A9484
:10292000F6CFF801808189830E5F1F4FE4CF280125
:10293000F2E04F0E511CF801C080D180692D70E08B
:1029400036FC02C06FEF7FEFC6010E94C5154C0137
:102950008201D5CFB70180E290E00E94D0152A9481
:102960002814190409F0B0F7CECFF60137FC859191
:1029700037FE81916F01B70190E00E94D015511090
:102980005A94F1E08F1A9108BFCF843619F0893636
:1029900009F077C0F80137FE6BC0608171818281D8
:1029A00093810C5F1F4FF32DFF763F2E97FF09C0D9
:1029B00090958095709561957F4F8F4F9F4F68944C
:1029C00037F82AE030E0A5010E940016C82ECA1888
:1029D0008C2C432C36FE0CC0E89440F8C91440F40B
:1029E00034FE05C032FC03C0F32DFE7E4F2E892C31
:1029F00044FE95C0FE01EC0DF11D8081803309F08D
:102A000087C0242D297E422E842D8870582E43FCA9
:102A100095C040FE8FC09C2C821418F42C0C922C74
:102A2000981844FE91C0B70180E390E00E94D01551
:102A300042FE09C088E790E041FE02C088E590E0D0
:102A4000B7010E94D015C91408F48AC0CA94D12CC9
:102A50009FEFC91AD90ACA0CDB1CF60182916F01DB
:102A6000B70190E00E94D015AC14BD04B1F74FCF70
:102A700060817181072E000C880B990B0E5F1F4F30
:102A800092CFD32CE894D4F82AE030E0853739F19E
:102A9000232D297FD22E8F3601F148F48835A9F0F5
:102AA000F701868197812B96E2E10C947A168037A4
:102AB00049F08837A9F7D4FE02C06894D2F820E123
:102AC00030E00DC06894D4F8F6CF34FE03C0822FF6
:102AD0008660D82E20E132E002C028E030E0F80124
:102AE000D7FE0FC060817181828193810C5F1F4F7F
:102AF000A5010E940016C82ECA183D2CE89437F88C
:102B000067CF6081718190E080E00E5F1F4FF0CF52
:102B100042FC02C0839478CF8394839475CF842D34
:102B2000867809F471CFF6CFB70180E290E00E9479
:102B3000D01583948214C0F3512C73CF522C5818A3
:102B4000821408F46ECFF8CF842D867809F47BCFF9
:102B50008BE241FE80E247FC8DE2B70190E071CF4D
:102B6000B70180E390E00E94D0159A946CCF8FEF6C
:102B70009FEF99CFFC010590615070400110D8F78C
:102B8000809590958E0F9F1F0895FC0161507040B5
:102B900001900110D8F7809590958E0F9F1F089592
:102BA0000F931F93CF93DF93182F092FEB018B8186
:102BB00081FD09C01FEF0FEF812F902FDF91CF9183
:102BC0001F910F91089582FF14C02E813F818C8147
:102BD0009D81281739073CF4E881F981CF010196DE
:102BE0009983888310838E819F8101969F838E8332
:102BF000E3CFE885F985812F0995892BA1F3DACFF9
:102C0000FA01AA27283051F1203181F1E8946F931D
:102C10006E7F6E5F7F4F8F4F9F4FAF4FB1E03ED0C3
:102C2000B4E03CD0670F781F891F9A1FA11D680F61
:102C3000791F8A1F911DA11D6A0F711D811D911D94
:102C4000A11D20D009F468943F912AE0269F112409
:102C50003019305D3193DEF6CF010895462F47706D
:102C6000405D4193B3E00FD0C9F7F6CF462F4F70C8
:102C7000405D4A3318F0495D31FD4052419302D026
:102C8000A9F7EACFB4E0A6959795879577956795CC
:102C9000BA95C9F700976105710508959B01AC01CC
:102CA0000A2E06945795479537952795BA95C9F7F3
:102CB000620F731F841F951FA01D08952F923F92CE
:102CC0004F925F926F927F928F929F92AF92BF923C
:102CD000CF92DF92EF92FF920F931F93CF93DF93E8
:102CE000CDB7DEB7CA1BDB0B0FB6F894DEBF0FBE45
:102CF000CDBF09942A88398848885F846E847D8492
:102D00008C849B84AA84B984C884DF80EE80FD8093
:102D10000C811B81AA81B981CE0FD11D0FB6F89409
:0E2D2000DEBF0FBECDBFED010895F894FFCFCA
:102D2E00010001000000000002000100000003008D
:102D3E0001000500010006000000080000000A0066
:102D4E000100000001000200020003000300050064
:102D5E00010007000000080000000B000200000048
:102D6E000100020002000300000005000100070040
:102D7E000100080000000A00000000000000020030
:102D8E000100040002000500000007000100090018
:102D9E0001000A0000000000000002000000040014
:102DAE0001000600020007000000090001000B00F0
:102DBE0001000000010001000000030000000500FA
:102DCE00010007000200080000000A0001000000D8
:102DDE0001000200010003000000050000000700D2
:102DEE000100090002000A000000000000000200BD
:102DFE0001000400010005000000070000000900AA
:102E0E0001000B0002001815A015C019FF1815A11E
:102E1E0015C819FF1815AE19FF1815AF19FF18159B
:102E2E00AE15D5168015A8161F15D316001540150C
:102E3E008D16141520160015A115C815DA160215D3
:102E4E0081168F15D916F115DB1640152E15A41502
:102E5E00A619FF0001140A6464323200127A0000CF
:102E6E000428961004000080002000060708090AB6
:102E7E000B0C000000007E03DF020C03C5033D03B4
:102E8E001B032F03000000007109D109FA09F9098B
:102E9E00CA01AE01920176015A013E0122010601DC
:042EAE002534640063
:00000001FF
